:100000000C9480000C94A1000C94A1000C94A1000D
:100010000C94A1000C94A1000C94A1000C94A100DC
:100020000C94A1000C94A1000C94A1000C94A100CC
:100030000C94A1000C94A1000C94A1000C94A100BC
:100040000C94A1000C943C050C94A1000C94A1000C
:100050000C94A1000C9499050C94A1000C94A1009F
:100060000C94A1000C94A1000C94A1000C94A1008C
:100070000C94A1000C94A1000C94A1000C94A1007C
:100080000C94A1000C94A1000C94A1000C94A1006C
:100090000C94A1000C94A1000C94A1000C94A1005C
:1000A0000C94A1000C94A1000C94A1000C94A1004C
:1000B0000C94A1000C94A1000C94A1000C94A1003C
:1000C0000C94A1000C94A1000C94A1000C94A1002C
:1000D0000C94A1000C94A1000C94A1000C94A1001C
:1000E0000C94A1000C945F020C94B0000C943805A1
:1000F0000C94CE020C94BB080C94A3000C94F9024F
:1001000011241FBECFEFD1E2DEBFCDBF00E00CBF98
:1001100013E0A0E0B2E0E0E1FBE100E00BBF02C0D1
:1001200007900D92AE31B107D9F723E0AEE1B3E00D
:1001300001C01D92AC3FB207E1F70E94BB080C94CE
:10014000860D0C94000085E090E00E9443070E9419
:10015000220585E090E00E9443070E942D05F3CF21
:10016000C0E0D0E014E681C18D3609F492C18A372F
:1001700051F4809102029091030284569109909368
:1001800003028093020286E290E00E94D70440912D
:10019000F5035091F6039A013695279536952795E4
:1001A000ABE7B4E10E94490996958795189F9001A5
:1001B000199F300D11244217530709F421960E940C
:1001C000B50484E492E00E944C03CE010E946103D6
:1001D00060E070E083E090E00E94770482E592E0C6
:1001E0000E944C038091F40390E00E94610360E060
:1001F00070E084E090E00E94770486E692E00E943E
:100200004C038091760390E00E94610360E070E00F
:1002100085E090E00E94770481E792E00E944C0321
:1002200080917703909178030E944C0360E070E026
:1002300086E090E00E9477048EE792E00E944C03F3
:1002400080EB90E00E94610360E070E087E090E066
:100250000E94770489E892E00E944C038091790320
:1002600090917A0320917B0330917C03820F931F3E
:1002700020917D0330917E03821B930B0E946103CA
:1002800060E070E088E090E00E94770486E992E008
:100290000E944C038091790390917A030E9461033C
:1002A00060E070E089E090E00E94770488EA92E0E4
:1002B0000E944C0380917B0390917C030E94610318
:1002C00060E070E08AE090E00E9477048EEB92E0BC
:1002D0000E944C0380917D0390917E030E946103F4
:1002E00060E070E08BE090E00E9477048AEC92E09E
:1002F0000E944C032091790330917A0380917D0311
:1003000090917E03820F931F0E94610360E070E072
:100310008CE090E00E94770485ED92E00E944C030F
:1003200080917B0390917C030E94610360E070E008
:100330008EE090E00E94770486E692E00E944C03F3
:100340008091840390E00E94610360E070E08FE0A0
:1003500090E00E94770481E792E00E944C03809134
:100360008503909186030E944C0360E070E080E179
:1003700090E00E9477048EE792E00E944C0383EAAB
:1003800090E00E94610360E070E081E190E00E94F3
:10039000770489E892E00E944C0380918703909152
:1003A00088032091890330918A03820F931F209143
:1003B0008B0330918C03821B930B0E94610360E0DE
:1003C00070E082E190E00E94770486E992E00E946A
:1003D0004C0380918703909188030E94610360E041
:1003E00070E083E190E00E94770488EA92E00E9446
:1003F0004C038091890390918A030E94610360E01D
:1004000070E084E190E00E9477048EEB92E00E941D
:100410004C0380918B0390918C030E94610360E0F8
:1004200070E085E190E00E9477048AEC92E00E94FF
:100430004C03209187033091880380918B03909126
:100440008C03820F931F0E94610360E070E086E1DD
:1004500090E00E94770485ED92E00E944C03809129
:10046000890390918A030E9461030E9437038B36AF
:10047000D9F00CF079CE813609F085CE8091020258
:10048000909103028C599F4F909303028093020234
:100490007ACE809100029091010284569109909346
:1004A0000102809300026FCE8091000290910102C0
:1004B0008C599F4F909301028093000264CECF939A
:1004C000DF93F89485E393E00E94A6078FE190E024
:1004D0000E94D70460E570E089E190E00E94770413
:1004E0008AED92E00E944C032091020230910302B7
:1004F000C901880F991F220F331F220F331F220FAC
:10050000331F820F931F0E94610387EE92E00E94C7
:100510004C0360E570E08BE190E00E9477048BEE85
:1005200092E00E944C032091000230910102C90127
:10053000880F991F220F331F220F331F220F331FE3
:10054000820F931F0E94610387EE92E00E944C038A
:1005500080911E038823B1F0C0E0D0E060E570E038
:10056000CE014E960E94770486EF92E00E944C03E3
:10057000CE010E946103219680911E0390E0C8176E
:10058000D90764F38EE190E00E94D70485E393E0FD
:100590000E94CA077894DF91CF910895F894CAE039
:1005A0000EC080931E0381E693E00E94FE078BE25B
:1005B00093E00E94FE0785E393E00E94CA0785E36B
:1005C00093E00E94A60780910202909103020E948C
:1005D00043078BE693E00E94F80781E693E00E94D0
:1005E000F80780911E038F5F8B30D8F2C0931E03F3
:1005F000DACFF8940EC010921E0381E693E00E94B9
:10060000FE078BE693E00E94FE0785E393E00E94DD
:10061000CA0785E393E00E94A6078BE293E00E945D
:10062000F80781E693E00E94F8078091000290911C
:1006300001020E94430780911E038823E1F281504A
:1006400080931E03DACF82E08093C0001092C50031
:1006500080E18093C400E1ECF0E0808188618083D8
:1006600008958091C000881F8827881F0895809171
:10067000C00087FD02C08FEF08958091C6000895E5
:100680009091C10095FDFCCF9091C00095FFF8CFEF
:100690008093C60081E00895FC019081992371F058
:1006A00031968091C10085FDFCCF8091C00085FF0F
:1006B000F8CF9093C60091919111F3CF80E090E034
:1006C0000895CF93DF9300D01F921F92CDB7DEB76E
:1006D0004AE0BE016F5F7F4F0E94850ACE010196FE
:1006E0000E944C030F900F900F900F900F90DF918E
:1006F000CF9108958F929F92AF92BF92CF92DF9247
:10070000EF92FF920F931F93CF93DF93CDB7DEB796
:100710002A970FB6F894DEBF0FBECDBF61157105E5
:1007200081059105A1F18E010F5F1F4F6801E12C3A
:10073000F12C2AE0822E912CA12CB12CA501940140
:100740000E942709605DF60161936F01B901CA013A
:10075000FFEFEF1AFF0A611571058105910571F729
:10076000F7013196E00FF11F92918091C10085FD54
:10077000FCCF8091C00085FFF8CF9093C6000E1784
:100780001F0791F710C08091C00085FD09C08091BE
:10079000C10085FFF8CF8091C10085FDF8CFF3CF70
:1007A00080E38093C6002A960FB6F894DEBF0FBE92
:1007B000CDBFDF91CF911F910F91FF90EF90DF9010
:1007C000CF90BF90AF909F908F9008950F931F93FD
:1007D000CF93DF93CDB7DEB72A970FB6F894DEBF7D
:1007E0000FBECDBF9F938F938DEF92E09F938F931A
:1007F0008E010F5F1F4F1F930F930E949F0AC80126
:100800000E944C030F900F900F900F900F900F903D
:100810002A960FB6F894DEBF0FBECDBFDF91CF9101
:100820001F910F910895CF92DF92EF92FF92CF9395
:10083000DF93CDB7DEB72A970FB6F894DEBF0FBEB1
:10084000CDBF6B017C01672B682B692B21F1AE01B9
:100850004F5F5F4FFA0180E090E010C0205D208381
:1008600024E0F694E794D794C7942A95D1F701969B
:100870003196C114D104E104F10431F196012F70D5
:1008800033272A30310554F3295C2083E9CF809146
:10089000C00085FD09C08091C10085FFF8CF80911F
:1008A000C10085FDF8CFF3CF80E38093C6002A9680
:1008B0000FB6F894DEBF0FBECDBFDF91CF91FF9092
:1008C000EF90DF90CF9008950196FA01E80FF91F9D
:1008D00092918091C10085FDFCCF8091C00085FF81
:1008E000F8CF9093C600E417F50791F7E0CFCF93C8
:1008F000DF931F92CDB7DEB79091C10095FDFCCF7D
:100900009091C00095FFF8CF9BE19093C600909125
:10091000C10095FDFCCF9091C00095FFF8CF9BE5FD
:100920009093C60090E069830E9461036981909171
:10093000C10095FDFCCF9091C00095FFF8CF8BE3EF
:100940008093C600862F90E00E9461038091C100D1
:1009500085FDFCCF8091C00085FFF8CF88E48093AF
:10096000C6000F90DF91CF9108958091C10085FD61
:10097000FCCF8091C00085FFF8CF8BE18093C6004B
:100980008091C10085FDFCCF8091C00085FFF8CF2C
:100990008BE58093C6008091C10085FDFCCF8091DE
:1009A000C00085FFF8CF88E48093C6000895909139
:1009B000C10095FDFCCF9091C00095FFF8CF9BE161
:1009C0009093C6009091C10095FDFCCF9091C0001E
:1009D00095FFF8CF9BE59093C60090E00E946103DD
:1009E0008091C10085FDFCCF8091C00085FFF8CFCC
:1009F0008DE68093C60008958091C10085FDFCCFEF
:100A00008091C00085FFF8CF8BE18093C600809174
:100A1000C10085FDFCCF8091C00085FFF8CF8BE53C
:100A20008093C60082E090E00E9461038091C10043
:100A300085FDFCCF8091C00085FFF8CF8AE48093CC
:100A4000C6000895E4E2F0E0208120682083E5E21A
:100A5000F0E02081206820830895E4E2F0E0208126
:100A600020682083E5E2F0E020812F77208308953D
:100A70007894C201F10109941F920F920FB60F9260
:100A800011240F900FBE0F901F901895EEE6F0E026
:100A900080818260808384B5826084BD85B58560F5
:100AA00085BD8CE987BD89E09DE3909389008093A3
:100AB0008800EFE6F0E0808182608083E1E8F0E08A
:100AC00080818D60808308952F923F924F925F9234
:100AD0006F927F928F929F92AF92BF92CF92DF924E
:100AE000EF92FF920F931F93CF93DF93F0E0EDE52A
:100AF000A080F0E0EEE5B080FB01A192B082FC01A5
:100B0000C190D080F0E0EDE5C192D082DF91CF912D
:100B10001F910F91FF90EF90DF90CF90BF90AF901B
:100B20009F908F907F906F905F904F903F902F900D
:100B300008951F920F920FB60F9211240BB60F92C9
:100B40002F933F934F935F936F937F938F939F93D5
:100B5000AF93BF93EF93FF9385E290E00E94D70499
:100B60008091F5039091F60301969093F60380939C
:100B7000F50380911F03863009F482C080911F0322
:100B800080937503E1E8F3E021E005C03E9683E041
:100B9000E53DF80769F080818230C1F7818192815B
:100BA000009749F520833E9683E0E53DF80799F7E5
:100BB00080911F0390E040911F0350E015C09C01FD
:100BC000220F331FF901EE0FFF1FEE0FFF1FEE0F75
:100BD000FF1FE21BF30BEA58FC4F2385213079F00D
:100BE0004817590709F449C001968630910539F72D
:100BF00080E090E0E4CF019792838183C7CF809318
:100C00001F0380911F038093F703E091F7039EE099
:100C1000E99FF0011124EA58FC4F1386E091750317
:100C20002EE0E29FF0011124EA58FC4F81E0838717
:100C3000609175038091F7039EE0699FB0011124D4
:100C400065587C4F2EE0829FC001112485589C4F2F
:100C50000E946405FF91EF91BF91AF919F918F9199
:100C60007F916F915F914F913F912F910F900BBEAC
:100C70000F900FBE0F901F90189580911F03C3CF48
:100C800010921F037BCF1092F4031092F603109280
:100C9000F5030C942303CF92DF92FF920F931F93DF
:100CA000CF93DF9300D01F92CDB7DEB76901E2E3A7
:100CB000CE0ED11C08E315E0E0911F032EE0E29F69
:100CC000F0011124EA58FC4F92838183F0901F03B6
:100CD000C6014B835C8369837A830E9458092EE0A6
:100CE000F29EF0011124EA58FC4F90878783E0912F
:100CF0001F03A0911F038EE0E89FF0011124EA5822
:100D0000FC4F9EE0A99FD0011124AA58BC4F179612
:100D10008D919C91189701978C0D9D1D96838583CD
:100D2000E0911F03A0911F032EE0E29FF001112428
:100D3000EA58FC4F8EE0A89FD0011124AA58BC4F5E
:100D400015968D919C911697469796838583E09191
:100D50001F039EE0E99FF0011124EA58FC4F058033
:100D6000F681E02D7A81718B6981628B5C81578776
:100D70004B81408B058B148B138AE0911F0380916C
:100D80001F032EE0E29FF0011124EA58FC4F8083FC
:100D9000E0911F038EE0E89FF0011124EA58FC4F18
:100DA000D482C382E0911F039EE0E99FF0011124E9
:100DB000EA58FC4F81E08387E4EFF3E080818F5FA6
:100DC000808380911F038F5F80931F030F900F908C
:100DD0000F900F90DF91CF911F910F91FF90DF90B7
:100DE000CF9008950E94460578940E94FC0467E91C
:100DF00073E08BE793E00E946405089580911F03E0
:100E000090E040911F0350E014C09C01220F331F5B
:100E1000F901EE0FFF1FEE0FFF1FEE0FFF1FE21B8A
:100E2000F30BEA58FC4F2385213051F084179507C6
:100E300061F001968630910541F780E090E0E5CFC2
:100E400080931F0380911F03089580911F030895CD
:100E5000E1E8F3E021E005C03E9683E0E53DF807D8
:100E600069F080818230C1F781819281009739F4E5
:100E700020833E9683E0E53DF80799F708950197B2
:100E800092838183E9CF81309105A9F0E0911F031E
:100E90002EE0E29FF0011124EA58FC4F22E0238764
:100EA000E0911F032EE0E29FF0011124EA58FC4F6D
:100EB00095878487089580911F038093750380919F
:100EC0001F0390E040911F0350E014C09C01220FCB
:100ED000331FF901EE0FFF1FEE0FFF1FEE0FFF1F75
:100EE000E21BF30BEA58FC4F2385213051F04817E1
:100EF000590701F101968630910541F780E090E0B5
:100F0000E5CF80931F0380911F038093F7036091C7
:100F100075038091F7032EE0629FB001112465589C
:100F20007C4F2EE0829FC001112485589C4F0E9467
:100F30006405089580911F03E8CFFC0181E0808360
:100F400017821086128686E081870895FC018081D1
:100F500081111EC0208591E0920F8185981708F0BD
:100F600090E082858F5F828780911F03DF01A20F4F
:100F7000B11D11968C93A0911F038EE0A89FD00104
:100F80001124AA58BC4F83E01B968C939087089538
:100F900010820895FC018781DF01A80FB11D119611
:100FA000AC9181E080839285992399F09EE0A99F7E
:100FB000D0011124AA58BC4F1B968C9387818F5F58
:100FC0009185891708F080E09285915092878783F8
:100FD00010820895FC0116821782608786E081875F
:100FE00088EC8083818382838383848385830895CF
:100FF000FC01F8949085915090870895CF93DF93EA
:10100000FC01F8948681DF01A80FB11D9C918085B9
:101010008F5F8087811112C0EF018EE0989FF001F1
:101020001124EA58FC4F81E083878E819F819817B5
:1010300059F08F5F9985891728F48E837894DF9112
:10104000CF91089580E0F9CF62E370E081E490E011
:101050000E9477048E81EDCFCF93DF93FC01F8944B
:101060008681DF01A80FB11D9C9180858F5F8087ED
:10107000811135C0EF012EE0929FF0011124EA5852
:10108000FC4F1386E0911F038EE0E89FF0011124CE
:10109000EA58FC4F81E0838780911F03809375039A
:1010A0009093F70390931F038E819F819817E9F027
:1010B0008F5F99858917B8F48E836091750380914D
:1010C000F7039EE0699FB001112465587C4F2EE024
:1010D000829FC001112485589C4F0E94640578941A
:1010E000DF91CF91089580E0E7CF60E070E086E483
:1010F00090E00E94770480E093E00E944C038E8190
:10110000D7CF60911F0380911F0390E040911F0390
:1011100050E014C09C01220F331FF901EE0FFF1F96
:10112000EE0FFF1FEE0FFF1FE21BF30BEA58FC4F01
:101130002385213051F048175907D1F001968630A8
:10114000910541F780E090E0E5CF80931F03809107
:101150001F032EE0629FB001112465587C4F2EE0E2
:10116000829FC001112485589C4F0E9464050895F8
:1011700080911F03EECF0E94430622E330E040E05F
:1011800050E060EB70E08AE092E00E944B0622E3C0
:1011900030E040E050E063EA70E080E192E00E94DD
:1011A0004B0622E330E040E050E06BEB78E086E174
:1011B00092E00E944B0622E330E040E050E06EEC0B
:1011C00072E08BE192E00E944B0622E330E040E0C7
:1011D00050E06FE572E084E292E00E944B0622E369
:1011E00030E040E050E069EF72E08BE392E00E9473
:1011F0004B06E0903503F0903603009137031091D1
:1012000038032091390330913A0340913B035091C8
:101210003C0360913D0370913E0380913F030E9427
:101220009D076AE070E08BE693E00E94EA0760E0C9
:1012300070E08BE293E00E94EA0761E070E081E6F3
:1012400093E00E94EA070E94F2067894FFCFA1E2A1
:101250001A2EAA1BBB1BFD010DC0AA1FBB1FEE1F30
:10126000FF1FA217B307E407F50720F0A21BB30B7B
:10127000E40BF50B661F771F881F991F1A9469F7F7
:1012800060957095809590959B01AC01BD01CF0153
:101290000895A29FB001B39FC001A39F700D811D4F
:1012A0001124911DB29F700D811D1124911D08956F
:1012B000CF93DF938230910510F482E090E0E091CB
:1012C000FA03F091FB0320E030E0C0E0D0E030977B
:1012D00011F14081518148175907C0F0481759074B
:1012E00061F482819381209719F09B838A832BC0BC
:1012F0009093FB038093FA0326C02115310519F062
:101300004217530718F49A01BE01DF01EF01028072
:10131000F381E02DDCCF2115310509F1281B390BB4
:101320002430310590F412968D919C91139761159C
:10133000710521F0FB019383828304C09093FB032A
:101340008093FA03FD01329644C0FD01E20FF31FC2
:1013500081939193225031092D933C933AC020916F
:10136000F8033091F903232B41F4209106023091C8
:1013700007023093F9032093F8032091040230917F
:1013800005022115310541F42DB73EB74091080201
:1013900050910902241B350BE091F803F091F903F9
:1013A000E217F307A0F42E1B3F0B2817390778F03C
:1013B000AC014E5F5F4F2417350748F04E0F5F1F9B
:1013C0005093F9034093F8038193919302C0E0E0B6
:1013D000F0E0CF01DF91CF9108950F931F93CF934A
:1013E000DF93009709F48CC0FC01329713821282BC
:1013F0000091FA031091FB030115110581F420817E
:101400003181820F931F2091F8033091F90328173F
:10141000390779F5F093F903E093F80371C0D80127
:1014200040E050E0AE17BF0750F412962D913C916A
:101430001397AD012115310509F1D901F3CF9D01B4
:10144000DA013383228360817181860F971F8217AF
:10145000930769F4EC0128813981260F371F2E5F2D
:101460003F4F318320838A819B8193838283452BE5
:1014700029F4F093FB03E093FA0342C01396FC9324
:10148000EE931297ED01499159919E01240F351F5A
:10149000E217F30771F480819181840F951F029602
:1014A00011969C938E938281938113969C938E9335
:1014B0001297E0E0F0E0D80112968D919C9113977D
:1014C000009719F0F8018C01F6CF8D919C9198014D
:1014D0002E5F3F4F820F931F2091F8033091F90345
:1014E0002817390769F4309729F41092FB031092FA
:1014F000FA0302C0138212821093F9030093F803D7
:10150000DF91CF911F910F910895BB27FB015527C4
:10151000AA27880F991FAA1FA41710F0A41B839550
:101520005051B9F7A05DAA3308F0A95DA1930097C7
:1015300079F7B111B1931192CB010C94E00C0F9398
:101540001F93CF93DF93CDB7DEB72E970FB6F894E6
:10155000DEBF0FBECDBF0E891F8986E08C831A8344
:1015600009838FEF9FE79E838D83AE01465E5F4FB9
:10157000688D798DCE0101960E94CF0A2F81388522
:10158000F801E20FF31F10822E960FB6F894DEBF1B
:101590000FBECDBFDF91CF911F910F9108952F9274
:1015A0003F924F925F926F927F928F929F92AF92F3
:1015B000BF92CF92DF92EF92FF920F931F93CF9340
:1015C000DF93CDB7DEB72C970FB6F894DEBF0FBE12
:1015D000CDBF7C016B018A01FC01178216828381D9
:1015E00081FFBDC1CE0101964C01F7019381F60147
:1015F00093FD859193FF81916F01882309F4ABC11D
:10160000853239F493FD859193FF81916F01853285
:1016100029F4B70190E00E94F00CE7CF512C312C57
:1016200020E02032A0F48B3269F030F4803259F09F
:10163000833269F420612CC08D3239F0803339F463
:10164000216026C02260246023C0286021C027FDBD
:1016500027C030ED380F3A3078F426FF06C0FAE0A4
:101660005F9E300D1124532E13C08AE0389E300D3A
:101670001124332E20620CC08E3221F426FD6BC162
:10168000206406C08C3611F4206802C0883641F40C
:10169000F60193FD859193FF81916F018111C1CF77
:1016A000982F9F7D9554933028F40C5F1F4FFFE3D4
:1016B000F9830DC0833631F0833771F0833509F03B
:1016C0005BC022C0F801808189830E5F1F4F4424D4
:1016D0004394512C540115C03801F2E06F0E711C77
:1016E000F801A080B18026FF03C0652D70E002C024
:1016F0006FEF7FEFC5012C870E94D50C2C01830171
:101700002C852F77222E17C03801F2E06F0E711C46
:10171000F801A080B18026FF03C0652D70E002C0F3
:101720006FEF7FEFC5012C870E94CA0C2C012C851E
:101730002068222E830123FC1BC0832D90E04816D5
:101740005906B0F4B70180E290E00E94F00C3A94A0
:10175000F4CFF50127FC859127FE81915F01B70148
:1017600090E00E94F00C31103A94F1E04F1A5108C9
:101770004114510471F7E5C0843611F0893639F50A
:10178000F80127FF07C060817181828193810C5F1E
:101790001F4F08C060817181072E000C880B990BC8
:1017A0000E5F1F4F2F76722E97FF09C09095809580
:1017B000709561957F4F8F4F9F4F2068722E2AE062
:1017C00030E0A4010E94280DA82EA81844C0853737
:1017D00029F42F7EB22E2AE030E025C0F22FF97FC7
:1017E000BF2E8F36C1F018F4883579F0B4C0803739
:1017F00019F0883721F0AFC02F2F2061B22EB4FE30
:101800000DC08B2D8460B82E09C024FF0AC09F2F05
:101810009660B92E06C028E030E005C020E130E037
:1018200002C020E132E0F801B7FE07C0608171819B
:10183000828193810C5F1F4F06C06081718180E0BF
:1018400090E00E5F1F4FA4010E94280DA82EA8183B
:10185000FB2DFF777F2E76FE0BC0372D3E7FA51424
:1018600050F474FE0AC072FC08C0372D3E7E05C0DD
:10187000BA2C372D03C0BA2C01C0B52C34FF0DC0D3
:10188000FE01EA0DF11D8081803311F4397E09C01B
:1018900032FF06C0B394B39404C0832F867809F056
:1018A000B39433FD13C030FF06C05A2CB31418F4A0
:1018B000530C5B18B32CB31468F4B70180E290E0CA
:1018C0003C870E94F00CB3943C85F5CFB31410F420
:1018D0003B1801C0312C34FF12C0B70180E390E007
:1018E0003C870E94F00C3C8532FF17C031FD03C0DD
:1018F00088E790E002C088E590E0B7010CC0832F34
:10190000867859F031FF02C08BE201C080E237FDDA
:101910008DE2B70190E00E94F00CA51438F4B701F5
:1019200080E390E00E94F00C5A94F7CFAA94F4015F
:10193000EA0DF11D8081B70190E00E94F00CA1102A
:10194000F5CF332009F451CEB70180E290E00E9438
:10195000F00C3A94F6CFF7018681978102C08FEFA1
:101960009FEF2C960FB6F894DEBF0FBECDBFDF9170
:10197000CF911F910F91FF90EF90DF90CF90BF908C
:10198000AF909F908F907F906F905F904F903F901F
:101990002F900895FC010590615070400110D8F718
:1019A000809590958E0F9F1F0895FC0161507040A7
:1019B00001900110D8F7809590958E0F9F1F089584
:1019C000DC01FC01672F71917723E1F7329704C0A6
:1019D0007C916D9370836291AE17BF07C8F3089531
:1019E0000F931F93CF93DF93FB01238121FD03C04E
:1019F0008FEF9FEF28C022FF16C0468157812481B8
:101A000035814217530744F4A081B1819D012F5FB6
:101A10003F4F318320838C93268137812F5F3F4F47
:101A20003783268310C0EB01092F182F0084F1851E
:101A3000E02D1995892BE1F68E819F8101969F8378
:101A40008E83812F902FDF91CF911F910F91089559
:101A5000FA01AA27283051F1203181F1E8946F93DF
:101A60006E7F6E5F7F4F8F4F9F4FAF4FB1E03ED085
:101A7000B4E03CD0670F781F891F9A1FA11D680F23
:101A8000791F8A1F911DA11D6A0F711D811D911D56
:101A9000A11D20D009F468943F912AE0269F1124CB
:101AA0003019305D3193DEF6CF010895462F47702F
:101AB000405D4193B3E00FD0C9F7F6CF462F4F708A
:101AC000405D4A3318F0495D31FD4052419302D0E8
:101AD000A9F7EACFB4E0A69597958795779567958E
:101AE000BA95C9F700976105710508959B01AC018E
:101AF0000A2E06945795479537952795BA95C9F7B5
:101B0000620F731F841F951FA01D0895F894FFCFC7
:101B1000640064000000FC032000737461747300AF
:101B2000626C696E6B006D61696E0070726F6475D6
:101B300063657200646973706C61795F626F756E62
:101B40006465645F62756666657200636F6E737567
:101B50006D65720053797374656D2054696D653AD3
:101B600020004E756D626572206F66207468726524
:101B70006164733A20005468726561642049443A94
:101B800000546872656164204E616D653A00546866
:101B9000726561642050433A00537461636B205551
:101BA000736167653A00546F74616C2053746163AC
:101BB0006B2053697A653A0043757272656E7420C2
:101BC000746F70206F6620537461636B3A005374B6
:101BD00061636B20626173653A00537461636B20CB
:101BE000656E643A0053503A200050726F6475631A
:101BF00074696F6E3A2000206D7300436F6E7375C9
:101C00006D65723A20004974656D3A2000255800D0
:101C1000736F6D657468696E67207765697264209B
:0E1C200069732068617070656E696E67000000
:00000001FF
