:100000000C9480000C94A1000C94A1000C94A1000D
:100010000C94A1000C94A1000C94A1000C94A100DC
:100020000C94A1000C94A1000C94A1000C94A100CC
:100030000C94A1000C94A1000C94A1000C94A100BC
:100040000C94A1000C94E7040C94A1000C94A10062
:100050000C94A1000C9444050C94A1000C94A100F4
:100060000C94A1000C94A1000C94A1000C94A1008C
:100070000C94A1000C94A1000C94A1000C94A1007C
:100080000C94A1000C94A1000C94A1000C94A1006C
:100090000C94A1000C94A1000C94A1000C94A1005C
:1000A0000C94A1000C94A1000C94A1000C94A1004C
:1000B0000C94A1000C94A1000C94A1000C94A1003C
:1000C0000C94A1000C94A1000C94A1000C94A1002C
:1000D0000C94A1000C94A1000C94A1000C94A1001C
:1000E0000C94A1000C9485020C9499080C9428029D
:1000F0000C94E3040C94B0000C94AF020C94A30095
:1001000011241FBECFEFD1E2DEBFCDBF00E00CBF98
:1001100013E0A0E0B2E0E2EBFAE100E00BBF02C0C6
:1001200007900D92A834B107D9F724E0A8E4B3E012
:1001300001C01D92A632B207E1F70E9499080C9403
:10014000570D0C94000085E090E00E94F9060E9493
:10015000CD0485E090E00E94F9060E94D804F3CF18
:100160000E94A704C0E0D0E014E68EE190E00E9477
:10017000820440911F04509120049A0136952795DE
:1001800036952795ABE7B4E10E94270996958795A8
:10019000189F9001199F300D11244217530709F43D
:1001A00021960E94600484E492E00E940103CE0143
:1001B0000E94160360E070E083E090E00E94220459
:1001C00082E592E00E94010380911E0490E00E946B
:1001D000160360E070E084E090E00E94220486E66E
:1001E00092E00E9401038091A00390E00E94160318
:1001F00060E070E085E090E00E94220481E792E0F8
:100200000E9401038091A1039091A2030E94010327
:1002100060E070E086E090E00E9422048EE792E0C9
:100220000E94010380EB90E00E94160360E070E002
:1002300087E090E00E94220489E892E00E94010396
:100240008091A3039091A4032091A5033091A6036C
:10025000820F931F2091A7033091A803821B930B59
:100260000E94160360E070E088E090E00E942204A3
:1002700086E992E00E9401038091A3039091A40378
:100280000E94160360E070E089E090E00E94220482
:1002900088EA92E00E9401038091A5039091A60351
:1002A0000E94160360E070E08AE090E00E94220461
:1002B0008EEB92E00E9401038091A7039091A80326
:1002C0000E94160360E070E08BE090E00E94220440
:1002D0008AEC92E00E9401032091A3033091A403D1
:1002E0008091A7039091A803820F931F0E94160389
:1002F00060E070E08CE090E00E94220485ED92E0E6
:100300000E9401038091A5039091A6030E94160309
:1003100060E070E08EE090E00E94220486E692E0C9
:100320000E9401038091AE0390E00E94160360E0FA
:1003300070E08FE090E00E94220481E792E00E944A
:1003400001038091AF039091B0030E94010360E02C
:1003500070E080E190E00E9422048EE792E00E942B
:10036000010383EA90E00E94160360E070E081E1FF
:1003700090E00E94220489E892E00E9401038091AB
:10038000B1039091B2032091B3033091B403820F73
:10039000931F2091B5033091B603821B930B0E94EB
:1003A000160360E070E082E190E00E94220486E99A
:1003B00092E00E9401038091B1039091B2030E94E8
:1003C000160360E070E083E190E00E94220488EA76
:1003D00092E00E9401038091B3039091B4030E94C4
:1003E000160360E070E084E190E00E9422048EEB4E
:1003F00092E00E9401038091B5039091B6030E94A0
:10040000160360E070E085E190E00E9422048AEC2F
:1004100092E00E9401032091B1033091B2038091D8
:10042000B5039091B603820F931F0E94160360E0FC
:1004300070E086E190E00E94220485ED92E00E9447
:1004400001038091B3039091B4030E9416038DCEF3
:10045000CF93DF938FE593E00E945C078FE190E0FC
:100460000E94820460E570E089E190E00E9422042D
:100470008AED92E00E9401038091020290910302B2
:100480000E94160360E570E08BE190E00E94220478
:1004900087EE92E00E940103809100029091010298
:1004A0000E94160360E570E08DE190E00E94220456
:1004B00082EF92E00E9401038091480390E00E9445
:1004C0001603809148038823B1F0C0E0D0E060E5D6
:1004D00070E0CE014E960E94220480E093E00E94DC
:1004E0000103CE010E94160321968091480390E0FB
:1004F000C817D90764F38EE190E00E9482048FE56B
:1005000093E0DF91CF910C949807CAE00EC08093DE
:1005100048038BE893E00E94DE0785E593E00E94A4
:10052000DE078FE593E00E9498078FE593E00E9435
:100530005C0780910202909103020E94F90685E90E
:1005400093E00E94D8078BE893E00E94D80780913F
:1005500048038F5F8B30D8F2C0934803DACF8FE522
:1005600093E00E945C0785E593E00E94D8078BE842
:1005700093E00E94D80780910002909101020E94AE
:10058000F9068091480381110FC0109248038BE84F
:1005900093E00E94DE0785E993E00E94DE078FE585
:1005A00093E00E949807DBCF815080934803EFCF00
:1005B00082E08093C0001092C50080E18093C40067
:1005C000E1ECF0E080818861808308958091C00033
:1005D000881F8827881F08958091C00087FD02C06A
:1005E0008FEF08958091C60008959091C10095FD08
:1005F000FCCF9091C00095FFF8CF8093C60081E0BA
:100600000895FC012081222371F031968091C10070
:1006100085FDFCCF8091C00085FFF8CF2093C600F8
:1006200021912111F3CF80E090E00895CF93DF93E3
:1006300000D01F921F92CDB7DEB74AE0BE016F5FB8
:100640007F4F0E945D0ACE0101960E9401030F9028
:100650000F900F900F900F90DF91CF9108958F9290
:100660009F92AF92BF92CF92DF92EF92FF920F9341
:100670001F93CF93DF93CDB7DEB72A970FB6F894C9
:10068000DEBF0FBECDBF6115710581059105A1F1DA
:100690009E012F5F3F4F6901790100E010E02AE0E1
:1006A000822E912CA12CB12CA50194010E94050948
:1006B000605DF70161937F01B901CA010F5F1F4FB0
:1006C000611571058105910579F7F8013196EC0DF9
:1006D000FD1D92918091C10085FDFCCF8091C000ED
:1006E00085FFF8CF9093C600EC15FD0591F710C07B
:1006F0008091C00085FD09C08091C10085FFF8CFC1
:100700008091C10085FDF8CFF3CF80E38093C600D0
:100710002A960FB6F894DEBF0FBECDBFDF91CF9102
:100720001F910F91FF90EF90DF90CF90BF90AF900F
:100730009F908F9008950F931F93CF93DF93CDB722
:10074000DEB72A970FB6F894DEBF0FBECDBF9F93DA
:100750008F9387E093E09F938F938E010F5F1F4FDE
:100760001F930F930E94770AC8010E9401030F9004
:100770000F900F900F900F900F902A960FB6F8944D
:10078000DEBF0FBECDBFDF91CF911F910F910895B6
:10079000CF93DF93CDB7DEB72A970FB6F894DEBFBD
:1007A0000FBECDBF611571058105910521F1AE0127
:1007B0004F5F5F4FDA01E0E0F0E010C0205D2C9366
:1007C00034E096958795779567953A95D1F7319668
:1007D0001196611571058105910511F19B012F702D
:1007E00033272A30310554F3295C2C93E9CF8091CB
:1007F000C00085FD09C08091C10085FFF8CF8091C0
:10080000C10085FDF8CFF3CF80E38093C6002A9620
:100810000FB6F894DEBF0FBECDBFDF91CF91089524
:100820003196E40FF51F92918091C10085FDFCCFB8
:100830008091C00085FFF8CF9093C600E417F507BC
:1008400091F7E5CFCF93DF931F92CDB7DEB79091AD
:10085000C10095FDFCCF9091C00095FFF8CF9BE1C2
:100860009093C6009091C10095FDFCCF9091C0007F
:1008700095FFF8CF9BE59093C60090E069830E94B6
:10088000160369819091C10095FDFCCF9091C00045
:1008900095FFF8CF8BE38093C600862F90E00E94EF
:1008A00016038091C10085FDFCCF8091C00085FFBB
:1008B000F8CF88E48093C6000F90DF91CF91089520
:1008C0008091C10085FDFCCF8091C00085FFF8CFED
:1008D0008BE18093C6008091C10085FDFCCF8091A3
:1008E000C00085FFF8CF8BE58093C6008091C100E2
:1008F00085FDFCCF8091C00085FFF8CF88E4809310
:10090000C60008959091C10095FDFCCF9091C00064
:1009100095FFF8CF9BE19093C6009091C10095FDA3
:10092000FCCF9091C00095FFF8CF9BE59093C60057
:1009300090E00E9416038091C10085FDFCCF80915C
:10094000C00085FFF8CF8DE68093C60008958091A2
:10095000C10085FDFCCF8091C00085FFF8CF8BE101
:100960008093C6008091C10085FDFCCF8091C000BE
:1009700085FFF8CF8BE58093C60082E090E00E946F
:1009800016038091C10085FDFCCF8091C00085FFDA
:10099000F8CF8AE48093C6000895E4E2F0E0208175
:1009A00020682083E5E2F0E020812068208308951C
:1009B000E4E2F0E0208120682083E5E2F0E020819D
:1009C0002F77208308957894C201F10109941F9232
:1009D0000F920FB60F9211240F900FBE0F901F9021
:1009E0001895EEE6F0E080818260808384B58260B5
:1009F00084BD85B5856085BD8CE987BD89E09DE3B3
:100A00009093890080938800EFE6F0E08081826017
:100A10008083E1E8F0E080818D60808308952F92EB
:100A20003F924F925F926F927F928F929F92AF927E
:100A3000BF92CF92DF92EF92FF920F931F93CF93CB
:100A4000DF93F0E0EDE5A080F0E0EEE5B080FB01A3
:100A5000A192B082FC01C190D080F0E0EDE5C1929E
:100A6000D082DF91CF911F910F91FF90EF90DF9097
:100A7000CF90BF90AF909F908F907F906F905F903E
:100A80004F903F902F9008951F920F920FB60F92A4
:100A900011240BB60F922F933F934F935F936F9355
:100AA0007F938F939F93AF93BF93EF93FF93809127
:100AB0001F049091200401969093200480931F04BA
:100AC00080914903863009F491C080914903809355
:100AD0009F03EBEAF3E021E005C03E9683E0EF3FA1
:100AE000F80769F080818230C1F781819281009797
:100AF00049F520833E9683E0EF3FF80799F7809110
:100B0000490390E04091490350E015C09C01220F39
:100B1000331FF901EE0FFF1FEE0FFF1FEE0FFF1F38
:100B2000E21BF30BE056FC4F2385213079F0481788
:100B3000590709F458C001968630910539F780E0CD
:100B400090E0E4CF019792838183C7CF80934903DC
:100B5000809149038093210466E470E080E090E096
:100B60000E9422048AE093E00E94010380914903DD
:100B700090E00E941603E09121049EE0E99FF001BD
:100B80001124E056FC4F1386E0919F032EE0E29F74
:100B9000F0011124E056FC4F81E0838760919F03B0
:100BA000809121049EE0699FB00111246B557C4F18
:100BB0002EE0829FC00111248B559C4F0E940F058F
:100BC000FF91EF91BF91AF919F918F917F916F9125
:100BD0005F914F913F912F910F900BBE0F900FBEE1
:100BE0000F901F90189580914903B4CF109249033C
:100BF0006CCF10921E041092200410921F040C94CB
:100C0000D802CF92DF92FF920F931F93CF93DF937F
:100C100000D01F92CDB7DEB7690122E3C20ED11C0E
:100C200003EE14E0E0914903AEE0EA9FF0011124E5
:100C3000E056FC4F92838183F0904903C6014B83B9
:100C40005C8369837A830E943609BEE0FB9EF001D3
:100C50001124E056FC4F90878783E0914903A091CF
:100C600049032EE0E29FF0011124E056FC4F8EE094
:100C7000A89FD0011124A056BC4F17968D919C912E
:100C8000189701978C0D9D1D96838583E0914903EC
:100C9000A09149039EE0E99FF0011124E056FC4F2A
:100CA0002EE0A29FD0011124A056BC4F15968D9125
:100CB0009C911697469796838583E09149038EE031
:100CC000E89FF0011124E056FC4F0580F681E02DED
:100CD0007A81718B6981628B5C8157874B81408BF4
:100CE000058B148B138AE0914903809149039EE0A0
:100CF000E99FF0011124E056FC4F8083E091490305
:100D0000AEE0EA9FF0011124E056FC4FD482C3828A
:100D1000E0914903BEE0EB9FF0011124E056FC4F47
:100D200081E08387EEE1F4E080818F5F80838091B2
:100D300049038F5F809349030F900F900F900F909E
:100D4000DF91CF911F910F91FF90DF90CF90089589
:100D50000E94F10478940E94A70461EC73E085EA94
:100D600093E00E940F0508958091490390E040911F
:100D7000490350E014C09C01220F331FF901EE0F0C
:100D8000FF1FEE0FFF1FEE0FFF1FE21BF30BE056DE
:100D9000FC4F2385213051F08417950761F00196AF
:100DA0008630910541F780E090E0E5CF80934903DC
:100DB000809149030895809149030895EBEAF3E097
:100DC00021E005C03E9683E0EF3FF80769F080819F
:100DD0008230C1F781819281009739F420833E9659
:100DE00083E0EF3FF80799F7089501979283818395
:100DF000E9CF81309105A9F0E09149032EE0E29F0F
:100E0000F0011124E056FC4F22E02387E0914903D2
:100E10002EE0E29FF0011124E056FC4F9587848775
:100E200008958091490380939F038091490390E046
:100E30004091490350E014C09C01220F331FF90177
:100E4000EE0FFF1FEE0FFF1FEE0FFF1FE21BF30B56
:100E5000E056FC4F2385213051F04817590701F126
:100E600001968630910541F780E090E0E5CF8093D0
:100E70004903809149038093210460919F038091ED
:100E800021042EE0629FB00111246B557C4F2EE0AF
:100E9000829FC00111248B559C4F0E940F0508951D
:100EA00080914903E8CFFC0181E08083178210869E
:100EB000128686E0818708951F93CF93DF93EC011C
:100EC0008881811124C0888511E0180F9985191730
:100ED000E0F49F81911701F1282F8A858F5F8A871F
:100EE00090914903FE01E20FF11D9183E0914903C6
:100EF0008EE0E89FF0011124E056FC4F83E08387E9
:100F00001887DF91CF911F91089510E0E2CF1882EA
:100F1000DF91CF911F91089562E370E08CE390E040
:100F20000E94220485E193E00E9401032885D5CF29
:100F3000CF93DF93EC018F81FE01E80FF11DE1817A
:100F400081E088839A859923A1F09EE0E99FF001D2
:100F50001124E056FC4F83879F818885891771F0A3
:100F60009F5F8985981740F48A8581508A879F837F
:100F70001882DF91CF91089590E0F6CF62E370E0A0
:100F800087E390E00E94220484E293E00E94010340
:100F90009F81E6CFFC0116821782608786E08187F9
:100FA00088EC80838183828383838483858308950F
:100FB000F894FC012085215020870895CF93DF937A
:100FC000EC01F8948E81FE01E80FF11DE081888527
:100FD0008F5F8887811111C08EE0E89FF001112496
:100FE000E056FC4F81E083878E819F81981759F0EE
:100FF0008F5F9985891728F48E837894DF91CF913C
:10100000089580E0F9CF62E370E081E490E00E940F
:1010100022048E81EDCFCF93DF93EC01F8948E8183
:10102000FE01E80FF11D908188858F5F888781110F
:1010300034C02EE0929FF0011124E056FC4F13863D
:10104000E09149038EE0E89FF0011124E056FC4F47
:1010500081E083878091490380939F0390932104CB
:10106000909349038E819F819817E9F08F5F99854E
:101070008917B8F48E8360919F03809121049EE0CC
:10108000699FB00111246B557C4F2EE0829FC001F7
:1010900011248B559C4F0E940F057894DF91CF91BE
:1010A000089580E0E7CF60E070E086E490E00E9481
:1010B00022048AE293E00E9401038E81D7CF6091DF
:1010C00049038091490390E04091490350E014C0E6
:1010D0009C01220F331FF901EE0FFF1FEE0FFF1FC0
:1010E000EE0FFF1FE21BF30BE056FC4F2385213070
:1010F00051F048175907D1F001968630910541F714
:1011000080E090E0E5CF80934903809149032EE091
:10111000629FB00111246B557C4F2EE0829FC0016D
:1011200011248B559C4F0E940F050895809149030F
:10113000EECF0E94F90522E330E040E050E060EBA2
:1011400070E08AE092E00E94010622E330E040E095
:1011500050E063EA70E080E192E00E94010622E341
:1011600030E040E050E069E978E086E192E00E94FA
:10117000010622E330E040E050E065E872E08BE1F8
:1011800092E00E94010622E330E040E050E068E295
:1011900072E084E292E00E94010622E330E040E047
:1011A00050E06FEA72E08BE392E00E940106E0906B
:1011B0005F03F0906003009161031091620320913E
:1011C000630330916403409165035091660360911D
:1011D000670370916803809169030E9453076AE076
:1011E00070E085E993E00E94CA0760E070E085E561
:1011F00093E00E94CA0761E070E08BE893E00E94F0
:10120000CA070E94A8067894FFCFA1E21A2EAA1B53
:10121000BB1BFD010DC0AA1FBB1FEE1FFF1FA217A6
:10122000B307E407F50720F0A21BB30BE40BF50BA3
:10123000661F771F881F991F1A9469F7609570952C
:10124000809590959B01AC01BD01CF010895A29FAF
:10125000B001B39FC001A39F700D811D1124911D8A
:10126000B29F700D811D1124911D0895CF93DF93BE
:101270008230910510F482E090E0E0912404F09136
:10128000250420E030E0A0E0B0E0309739F1408163
:10129000518148175907B8F04817590771F48281EE
:1012A0009381109729F013969C938E9312972CC0DC
:1012B000909325048093240427C02115310531F033
:1012C0004217530718F0A901DB0101C0EF019A0191
:1012D000BD01DF010280F381E02DD7CF211531055B
:1012E000F9F0281B390B2430310580F48A819B8169
:1012F0006115710521F0FB019383828304C09093F3
:10130000250480932404FE01329644C0FE01E20FBE
:10131000F31F8193919322503109398328833AC076
:101320002091220430912304232B41F420910602C2
:101330003091070230932304209322042091040269
:10134000309105022115310541F42DB73EB740918A
:10135000080250910902241B350BE0912204F09100
:101360002304E217F307A0F42E1B3F0B28173907BD
:1013700078F0AC014E5F5F4F2417350748F04E0FF1
:101380005F1F50932304409322048193919302C0E2
:10139000E0E0F0E0CF01DF91CF910895CF93DF93AC
:1013A000009709F487C0FC01329713821282C09122
:1013B0002404D0912504209781F420813181280FC5
:1013C000391F80912204909123048217930779F5A5
:1013D000F0932304E09322046DC0DE0120E030E0AE
:1013E000AE17BF0750F412964D915C9113979D0173
:1013F0004115510509F1DA01F3CFB383A28340818E
:101400005181840F951F8A179B0771F48D919C91D0
:101410001197840F951F02969183808312968D9168
:101420009C911397938382832115310529F4F093BE
:101430002504E09324043EC0D9011396FC93EE9357
:1014400012974D915D91A40FB51FEA17FB0779F430
:1014500080819181840F951F0296D90111969C93EA
:101460008E938281938113969C938E931297E0E0E2
:10147000F0E08A819B81009719F0FE01EC01F9CF21
:10148000CE01029628813981820F931F2091220478
:10149000309123042817390769F4309729F4109202
:1014A00025041092240402C013821282D0932304D4
:1014B000C0932204DF91CF910895BB27FB015527EC
:1014C000AA27880F991FAA1FA41710F0A41B8395A1
:1014D0005051B9F7A05DAA3308F0A95DA193009718
:1014E00079F7B111B1931192CB010C94B70C0F9312
:1014F0001F93CF93DF93CDB7DEB72E970FB6F89437
:10150000DEBF0FBECDBF0E891F8986E08C831A8394
:1015100009838FEF9FE79E838D83AE01465E5F4F09
:10152000688D798DCE0101960E94A60AEF81F8851B
:10153000E00FF11F10822E960FB6F894DEBF0FBE9B
:10154000CDBFDF91CF911F910F9108952F923F92C0
:101550004F925F926F927F928F929F92AF92BF92C3
:10156000CF92DF92EF92FF920F931F93CF93DF936F
:10157000CDB7DEB72C970FB6F894DEBF0FBECDBF48
:101580007C016B018A01FC0117821682838181FF35
:10159000BDC1CE0101964C01F7019381F60193FD87
:1015A000859193FF81916F01882309F4ABC1853246
:1015B00039F493FD859193FF81916F01853229F470
:1015C000B70190E00E94C70CE7CF512C312C20E0EE
:1015D0002032A0F48B3269F030F4803259F083323B
:1015E00069F420612CC08D3239F0803339F42160E8
:1015F00026C02260246023C0286021C027FD27C0A8
:1016000030ED380F3A3078F426FF06C0FAE05F9EDE
:10161000300D1124532E13C08AE0389E300D112452
:10162000332E20620CC08E3221F426FD6BC1206463
:1016300006C08C3611F4206802C0883641F4F601E9
:1016400093FD859193FF81916F018111C1CF982FF7
:101650009F7D9554933028F40C5F1F4FFFE3F9836F
:101660000DC0833631F0833771F0833509F05BC0EC
:1016700022C0F801808189830E5F1F4F4424439468
:10168000512C540115C03801F2E06F0E711CF801A5
:10169000A080B18026FF03C0652D70E002C06FEF0F
:1016A0007FEFC5012C870E94AC0C2C0183012C8597
:1016B0002F77222E17C03801F2E06F0E711CF8014F
:1016C000A080B18026FF03C0652D70E002C06FEFDF
:1016D0007FEFC5012C870E94A10C2C012C8520686E
:1016E000222E830123FC1BC0832D90E0481659064F
:1016F000B0F4B70180E290E00E94C70C3A94F4CFB6
:10170000F50127FC859127FE81915F01B70190E0EB
:101710000E94C70C31103A94F1E04F1A510841145D
:10172000510471F7E5C0843611F0893639F5F801B6
:1017300027FF07C060817181828193810C5F1F4FF9
:1017400008C060817181882777FD8095982F0E5F92
:101750001F4F2F76B22E97FF09C0909580957095F8
:1017600061957F4F8F4F9F4F2068B22E2AE030E067
:10177000A4010E94F90CA82EA81844C0853729F4AA
:101780002F7EB22E2AE030E025C0F22FF97FBF2E47
:101790008F36C1F018F4883579F0B4C0803719F06D
:1017A000883721F0AFC02F2F2061B22EB4FE0DC0BC
:1017B0008B2D8460B82E09C024FF0AC09F2F96602D
:1017C000B92E06C028E030E005C020E130E002C0BC
:1017D00020E132E0F801B7FE07C0608171818281AB
:1017E00093810C5F1F4F06C06081718180E090E0A3
:1017F0000E5F1F4FA4010E94F90CA82EA818FB2D04
:10180000FF77BF2EB6FE0BC02B2D2E7FA51450F4F4
:10181000B4FE0AC0B2FC08C02B2D2E7E05C07A2C67
:101820002B2D03C07A2C01C0752C24FF0DC0FE01A6
:10183000EA0DF11D8081803311F4297E09C022FF59
:1018400006C07394739404C0822F867809F0739451
:1018500023FD13C020FF06C05A2C731418F4530C38
:101860005718732C731468F4B70180E290E02C874A
:101870000E94C70C73942C85F5CF731410F437189D
:1018800001C0312C24FF12C0B70180E390E02C8707
:101890000E94C70C2C8522FF17C021FF03C088E5DA
:1018A00090E002C088E790E0B7010CC0822F8678F4
:1018B00059F021FD02C080E201C08BE227FD8DE2DC
:1018C000B70190E00E94C70CA51438F4B70180E37B
:1018D00090E00E94C70C5A94F7CFAA94F401EA0D45
:1018E000F11D8081B70190E00E94C70CA110F5CFD7
:1018F000332009F451CEB70180E290E00E94C70C7A
:101900003A94F6CFF7018681978102C08FEF9FEF5F
:101910002C960FB6F894DEBF0FBECDBFDF91CF91EE
:101920001F910F91FF90EF90DF90CF90BF90AF90FD
:101930009F908F907F906F905F904F903F902F90EF
:101940000895FC010590615070400110D8F7809512
:1019500090958E0F9F1F0895FC016150704001907B
:101960000110D8F7809590958E0F9F1F0895DC0188
:10197000FC01672F71917723E1F7329704C07C91C6
:101980006D9370836291AE17BF07C8F308950F93EC
:101990001F93CF93DF93182F092FEB018B8181FDCC
:1019A00003C08FEF9FEF20C082FF10C04E815F8188
:1019B0002C813D81421753077CF4E881F9819F0116
:1019C0002F5F3F4F39832883108306C0E885F98550
:1019D000812F1995892B29F72E813F812F5F3F4F4A
:1019E0003F832E83812F902FDF91CF911F910F91F5
:1019F0000895FA01AA27283051F1203181F1E894A5
:101A00006F936E7F6E5F7F4F8F4F9F4FAF4FB1E0F1
:101A10003ED0B4E03CD0670F781F891F9A1FA11DEC
:101A2000680F791F8A1F911DA11D6A0F711D811DED
:101A3000911DA11D20D009F468943F912AE0269FB2
:101A400011243019305D3193DEF6CF010895462F11
:101A50004770405D4193B3E00FD0C9F7F6CF462FF2
:101A60004F70405D4A3318F0495D31FD405241935B
:101A700002D0A9F7EACFB4E0A69597958795779518
:101A80006795BA95C9F700976105710508959B019F
:101A9000AC010A2E06945795479537952795BA9528
:101AA000C9F7620F731F841F951FA01D0895F89436
:021AB000FFCF66
:101AB20064006400000026042000737461747300E3
:101AC200626C696E6B006D61696E0070726F647535
:101AD20063657200646973706C61795F626F756EC1
:101AE2006465645F62756666657200636F6E7375C6
:101AF2006D65720053797374656D2054696D653A32
:101B020020004E756D626572206F66207468726582
:101B12006164733A20005468726561642049443AF2
:101B220000546872656164204E616D653A005468C4
:101B3200726561642050433A00537461636B2055AF
:101B4200736167653A00546F74616C20537461630A
:101B52006B2053697A653A0043757272656E742020
:101B6200746F70206F6620537461636B3A00537414
:101B720061636B20626173653A00537461636B2029
:101B8200656E643A0053503A200050726F64756378
:101B920074696F6E3A2000436F6E73756D65723AA9
:101BA200200048656C6C6F20776F726C643A20007D
:101BB2004974656D3A200025580054687265616465
:101BC2004E756D3A004275666665722069732066CD
:101BD200756C6C00656D70747900736F6D657468F7
:101BE200696E672077656972642069732068617025
:081BF20070656E696E6700006A
:00000001FF
