:100000000C947A000C949B000C949B000C949B0025
:100010000C949B000C949B000C949B000C949B00F4
:100020000C949B000C949B000C949B000C949B00E4
:100030000C949B000C949B000C949B000C949B00D4
:100040000C949B000C949B000C949B000C949B00C4
:100050000C949B000C942C040C949B000C949B001F
:100060000C949B000C949B000C949B000C949B00A4
:100070000C949B000C949B000C949B000C949B0094
:100080000C949B000C949B000C949B000C949B0084
:100090000C949B000C949B000C949B000C949B0074
:1000A0000C949B000C949B000C949B000C949B0064
:1000B0000C949B000C949B000C949B000C949B0054
:1000C0000C949B000C949B000C949B000C949B0044
:1000D0000C949B000C949B000C949B000C949B0034
:1000E0000C949B000C94AF050C94BA000C949D00EA
:1000F0000C94E90311241FBECFEFD1E2DEBFCDBFC8
:1001000000E00CBF12E0A0E0B2E0E8E5F4E100E0BE
:100110000BBF02C007900D92AA3CB107D9F723E0AC
:10012000AAECB2E001C01D92A532B207E1F70E942D
:10013000AF050C942A0A0C94000080E090E007C000
:10014000EFE3FCE93197F1F700C0000001968A3037
:100150009105B4F30E94D3038AE090E0EFE3FCE959
:100160003197F1F700C0000001970097B9F70E949E
:10017000DE03E3CF0E94AD03C0E0D0E014E640917F
:100180001E0350911F039A013695279536952795A2
:10019000ABE7B4E10E94FA0596958795189F900108
:1001A000199F300D11244217530709F421960E941C
:1001B000660381E292E00E940702CE010E941C02C7
:1001C00060E070E083E090E00E9428038FE292E01C
:1001D0000E94070280911D0390E00E941C0260E0D3
:1001E00070E084E090E00E94280383E492E00E94A3
:1001F00007028091CC0290E00E941C0260E070E057
:1002000085E090E00E9428038EE492E00E940702BD
:100210008091CD029091CE020E94070260E070E0D2
:1002200086E090E00E9428038BE592E00E9407029E
:1002300060E070E087E090E00E94280386E692E0AC
:100240000E94070260E070E088E090E00E942803CE
:1002500083E792E00E9407028091CF029091D00242
:100260000E94070260E070E089E090E00E942803AD
:1002700085E892E00E94070260E070E08AE090E08A
:100280000E9428038BE992E00E9407028091D3022A
:100290009091D4020E941C0260E070E08BE090E03C
:1002A0000E94280387EA92E00E94070260E070E063
:1002B0008CE090E00E94280382EB92E00E9407020B
:1002C0008091D1029091D2020E941C0260E070E005
:1002D0008EE090E00E94280383E492E00E940702EF
:1002E0008091D50290E00E941C0260E070E08FE0F7
:1002F00090E00E9428038EE492E00E940702809121
:10030000D6029091D7020E94070260E070E080E17F
:1003100090E00E9428038BE592E00E94070260E0D3
:1003200070E081E190E00E94280386E692E00E945E
:10033000070260E070E082E190E00E94280383E71A
:1003400092E00E9407028091D8029091D9020E9407
:10035000070260E070E083E190E00E94280385E8F6
:1003600092E00E94070260E070E084E190E00E9469
:1003700028038BE992E00E9407028091DC029091B1
:10038000DD020E941C0260E070E085E190E00E94C6
:10039000280387EA92E00E94070260E070E086E1AD
:1003A00090E00E94280382EB92E00E940702809175
:1003B000DA029091DB020E941C02E1CE82E080937F
:1003C000C0001092C50080E18093C400E1ECF0E031
:1003D00080818861808308958091C000881F88276C
:1003E000881F08958091C00087FD02C08FEF089597
:1003F0008091C60008959091C10095FDFCCF909129
:10040000C00095FFF8CF8093C60081E00895FC01FD
:100410002081222371F031968091C10085FDFCCFAF
:100420008091C00085FFF8CF2093C6002191211153
:10043000F3CF80E090E00895CF93DF9300D01F9238
:100440001F92CDB7DEB74AE0BE016F5F7F4F0E94BB
:100450003007CE0101960E9407020F900F900F9077
:100460000F900F90DF91CF9108958F929F92AF924E
:10047000BF92CF92DF92EF92FF920F931F93CF9391
:10048000DF93CDB7DEB72A970FB6F894DEBF0FBE65
:10049000CDBF6115710581059105A1F19E012F5F09
:1004A0003F4F6901790100E010E02AE0822E912C93
:1004B000A12CB12CA50194010E94D805605DF70123
:1004C00061937F01B901CA010F5F1F4F611571056B
:1004D0008105910579F7F8013196EC0DFD1D92919A
:1004E0008091C10085FDFCCF8091C00085FFF8CFD1
:1004F0009093C600EC15FD0591F710C08091C000E7
:1005000085FD09C08091C10085FFF8CF8091C100B1
:1005100085FDF8CFF3CF80E38093C6002A960FB60F
:10052000F894DEBF0FBECDBFDF91CF911F910F9129
:10053000FF90EF90DF90CF90BF90AF909F908F9003
:1005400008950F931F93CF93DF93CDB7DEB72A970C
:100550000FB6F894DEBF0FBECDBF9F938F9387EB8E
:1005600092E09F938F938E010F5F1F4F1F930F9306
:100570000E944A07C8010E9407020F900F900F9037
:100580000F900F900F902A960FB6F894DEBF0FBE13
:10059000CDBFDF91CF911F910F910895CF93DF933E
:1005A000CDB7DEB72A970FB6F894DEBF0FBECDBF2A
:1005B000611571058105910521F1AE014F5F5F4F16
:1005C000DA01E0E0F0E010C0205D2C9334E0969575
:1005D0008795779567953A95D1F73196119661157C
:1005E00071058105910511F19B012F7033272A3088
:1005F000310554F3295C2C93E9CF8091C00085FD2F
:1006000009C08091C10085FFF8CF8091C10085FDB0
:10061000F8CFF3CF80E38093C6002A960FB6F89404
:10062000DEBF0FBECDBFDF91CF9108953196E40FAD
:10063000F51F92918091C10085FDFCCF8091C00093
:1006400085FFF8CF9093C600E417F50791F7E5CF43
:10065000CF93DF931F92CDB7DEB79091C10095FD88
:10066000FCCF9091C00095FFF8CF9BE19093C6001E
:100670009091C10095FDFCCF9091C00095FFF8CFFF
:100680009BE59093C60090E069830E941C026981FB
:100690009091C10095FDFCCF9091C00095FFF8CFDF
:1006A0008BE38093C600862F90E00E941C0280910D
:1006B000C10085FDFCCF8091C00085FFF8CF88E4A4
:1006C0008093C6000F90DF91CF9108958091C10073
:1006D00085FDFCCF8091C00085FFF8CF8BE1809332
:1006E000C6008091C10085FDFCCF8091C00085FFD0
:1006F000F8CF8BE58093C6008091C10085FDFCCFCB
:100700008091C00085FFF8CF88E48093C6000895EB
:100710009091C10095FDFCCF9091C00095FFF8CF5E
:100720009BE19093C6009091C10095FDFCCF909104
:10073000C00095FFF8CF9BE59093C60090E00E9423
:100740001C028091C10085FDFCCF8091C00085FF17
:10075000F8CF8DE68093C60008958091C10085FD95
:10076000FCCF8091C00085FFF8CF8BE18093C6005D
:100770008091C10085FDFCCF8091C00085FFF8CF3E
:100780008BE58093C60082E090E00E941C0280917D
:10079000C10085FDFCCF8091C00085FFF8CF8AE4C1
:1007A0008093C6000895E4E2F0E020812068208371
:1007B000E5E2F0E02081206820830895E4E2F0E0A3
:1007C000208120682083E5E2F0E020812F772083DC
:1007D00008957894C201F1010994EEE6F0E0808179
:1007E0008260808384B5826084BD85B5856085BD67
:1007F0008CE987BD08952F923F924F925F926F923E
:100800007F928F929F92AF92BF92CF92DF92EF92A0
:10081000FF920F931F93F0E0EDE5A080F0E0EEE58E
:10082000B080FB01A192B082FC01C190D080F0E0C9
:10083000EDE5C192D0821F910F91FF90EF90DF9074
:10084000CF90BF90AF909F908F907F906F905F9070
:100850004F903F902F9008951F920F920FB60F92D6
:1008600011240BB60F922F933F934F935F936F9387
:100870007F938F939F93AF93BF93CF93DF93EF9328
:10088000FF9380911E0390911F03019690931F0385
:1008900080931E038091CA02833009F448C080917E
:1008A000CA02823009F443C08091CA028093CB020D
:1008B0008091CA02813009F445C081E08093CA0268
:1008C0008091CA02809320038091CB022091200363
:1008D00090E0BC01660F771F660F771F660F771FCA
:1008E000680F791F6F527D4F30E0C901880F991F43
:1008F000880F991F880F991F820F931F8F529D4F4A
:100900000E94FB03FF91EF91DF91CF91BF91AF91D7
:100910009F918F917F916F915F914F913F912F9117
:100920000F900BBE0F900FBE0F901F901895109256
:10093000CA028091CA028093CB028091CA028130A0
:1009400009F0BBCF1092CA028091CA02BBCF1092AD
:100950001D0310921F0310921E030C94DE01CF9210
:10096000DF92FF920F931F93CF93DF9300D01F92DC
:10097000CDB7DEB7690122E3C20ED11C09EE13E048
:100980002091CA0230E0F901EE0FFF1FEE0FFF1FAA
:10099000EE0FFF1FE20FF31FE453FD4F928381839D
:1009A000F090CA02C6014B835C8369837A830E94FC
:1009B00009062F2D30E0F901EE0FFF1FEE0FFF1F8C
:1009C000EE0FFF1FE20FF31FE453FD4F9087878365
:1009D0002091CA028091CA0230E0F901EE0FFF1F98
:1009E000EE0FFF1FEE0FFF1FE20FF31FE453FD4F4B
:1009F00090E0DC01AA0FBB1FAA0FBB1FAA0FBB1FF1
:100A0000A80FB91FA453BD4F17968D919C911897AD
:100A100001978C0D9D1D968385832091CA0280913C
:100A2000CA0230E0F901EE0FFF1FEE0FFF1FEE0FBD
:100A3000FF1FE20FF31FE453FD4F90E0DC01AA0F0C
:100A4000BB1FAA0FBB1FAA0FBB1FA80FB91FA45320
:100A5000BD4F15968D919C911697449796838583EB
:100A60008091CA0290E0FC01EE0FFF1FEE0FFF1F06
:100A7000EE0FFF1FE80FF91FE453FD4F0580F681CD
:100A8000E02D7A8177876981608B5C8155874B8106
:100A90004687038B128B118A8091CA022091CA0269
:100AA00090E0FC01EE0FFF1FEE0FFF1FEE0FFF1F88
:100AB000E80FF91FE453FD4F20838091CA0290E0B4
:100AC000FC01EE0FFF1FEE0FFF1FEE0FFF1FE80FE1
:100AD000F91FE453FD4FD482C382EDE1F3E080813E
:100AE0008F5F80838091CA028F5F8093CA028AEBF6
:100AF00092E00E9407028091CA0290E00F900F904E
:100B00000F900F90DF91CF911F910F91FF90DF9089
:100B1000CF900C94A102EEE6F0E0808182608083A9
:100B200084B5826084BD85B5856085BD8CE987BD4F
:100B3000789463EE72E081ED92E00E94FB030895E9
:100B40008091CA02813031F081E08093CA028091A5
:100B5000CA0208951092CA028091CA0208950E94A2
:100B6000A70486E092E00E94070222E330E040E022
:100B700050E06AEB70E085E192E00E94AF0422E36E
:100B800030E040E050E06DE970E08BE192E00E94DF
:100B9000AF0422E330E040E050E06FEA75E080E12E
:100BA00092E00E94AF040E948B0580E090E00895DF
:100BB000A1E21A2EAA1BBB1BFD010DC0AA1FBB1F61
:100BC000EE1FFF1FA217B307E407F50720F0A21BD3
:100BD000B30BE40BF50B661F771F881F991F1A9440
:100BE00069F760957095809590959B01AC01BD016A
:100BF000CF010895A29FB001B39FC001A39F700DC4
:100C0000811D1124911DB29F700D811D1124911D14
:100C10000895CF93DF938230910510F482E090E045
:100C2000E0912303F091240320E030E0A0E0B0E065
:100C3000309739F14081518148175907B8F048176A
:100C4000590771F482819381109729F013969C9330
:100C50008E9312972CC0909324038093230327C074
:100C60002115310531F04217530718F0A901DB01B6
:100C700001C0EF019A01BD01DF010280F381E02D87
:100C8000D7CF21153105F9F0281B390B2430310558
:100C900080F48A819B816115710521F0FB019383AA
:100CA000828304C09093240380932303FE01329631
:100CB00044C0FE01E20FF31F81939193225031094A
:100CC000398328833AC02091210330912203232BBA
:100CD00041F42091020230910302309322032093C9
:100CE000210320910002309101022115310541F4C8
:100CF0002DB73EB74091040250910502241B350BDD
:100D0000E0912103F0912203E217F307A0F42E1BD8
:100D10003F0B2817390778F0AC014E5F5F4F24175F
:100D2000350748F04E0F5F1F509322034093210375
:100D30008193919302C0E0E0F0E0CF01DF91CF9189
:100D40000895CF93DF93009709F487C0FC01329791
:100D500013821282C0912303D0912403209781F43F
:100D600020813181280F391F809121039091220326
:100D70008217930779F5F0932203E09321036DC066
:100D8000DE0120E030E0AE17BF0750F412964D911F
:100D90005C9113979D014115510509F1DA01F3CFDB
:100DA000B383A28340815181840F951F8A179B07CB
:100DB00071F48D919C911197840F951F02969183E8
:100DC000808312968D919C91139793838283211532
:100DD000310529F4F0932403E09323033EC0D901A5
:100DE0001396FC93EE9312974D915D91A40FB51F4E
:100DF000EA17FB0779F480819181840F951F029691
:100E0000D90111969C938E938281938113969C9322
:100E10008E931297E0E0F0E08A819B81009719F0B1
:100E2000FE01EC01F9CFCE01029628813981820FB3
:100E3000931F20912103309122032817390769F469
:100E4000309729F4109224031092230302C01382D6
:100E50001282D0932203C0932103DF91CF91089592
:100E6000BB27FB015527AA27880F991FAA1FA41784
:100E700010F0A41B83955051B9F7A05DAA3308F078
:100E8000A95DA193009779F7B111B1931192CB01AC
:100E90000C948A090F931F93CF93DF93CDB7DEB7DE
:100EA0002E970FB6F894DEBF0FBECDBF0E891F89F7
:100EB00086E08C831A8309838FEF9FE79E838D835F
:100EC000AE01465E5F4F688D798DCE0101960E941E
:100ED0007907EF81F885E00FF11F10822E960FB68B
:100EE000F894DEBF0FBECDBFDF91CF911F910F9160
:100EF00008952F923F924F925F926F927F928F92BE
:100F00009F92AF92BF92CF92DF92EF92FF920F9398
:100F10001F93CF93DF93CDB7DEB72C970FB6F8941E
:100F2000DEBF0FBECDBF7C016B018A01FC011782C1
:100F30001682838181FFBDC1CE0101964C01F7016C
:100F40009381F60193FD859193FF81916F01882331
:100F500009F4ABC1853239F493FD859193FF8191FA
:100F60006F01853229F4B70190E00E949A09E7CF1A
:100F7000512C312C20E02032A0F48B3269F030F477
:100F8000803259F0833269F420612CC08D3239F0FF
:100F9000803339F4216026C02260246023C0286099
:100FA00021C027FD27C030ED380F3A3078F426FFF6
:100FB00006C0FAE05F9E300D1124532E13C08AE064
:100FC000389E300D1124332E20620CC08E3221F455
:100FD00026FD6BC1206406C08C3611F4206802C067
:100FE000883641F4F60193FD859193FF81916F015D
:100FF0008111C1CF982F9F7D9554933028F40C5FB9
:101000001F4FFFE3F9830DC0833631F0833771F052
:10101000833509F05BC022C0F801808189830E5FAF
:101020001F4F44244394512C540115C03801F2E061
:101030006F0E711CF801A080B18026FF03C0652DE2
:1010400070E002C06FEF7FEFC5012C870E947F091F
:101050002C0183012C852F77222E17C03801F2E056
:101060006F0E711CF801A080B18026FF03C0652DB2
:1010700070E002C06FEF7FEFC5012C870E947409FA
:101080002C012C852068222E830123FC1BC0832D7C
:1010900090E048165906B0F4B70180E290E00E9453
:1010A0009A093A94F4CFF50127FC859127FE8191A6
:1010B0005F01B70190E00E949A0931103A94F1E083
:1010C0004F1A51084114510471F7E5C0843611F0EC
:1010D000893639F5F80127FF07C060817181828167
:1010E00093810C5F1F4F08C060817181882777FD55
:1010F0008095982F0E5F1F4F2F76B22E97FF09C055
:1011000090958095709561957F4F8F4F9F4F206888
:10111000B22E2AE030E0A4010E94CC09A82EA81823
:1011200044C0853729F42F7EB22E2AE030E025C056
:10113000F22FF97FBF2E8F36C1F018F4883579F081
:10114000B4C0803719F0883721F0AFC02F2F20614D
:10115000B22EB4FE0DC08B2D8460B82E09C024FFC2
:101160000AC09F2F9660B92E06C028E030E005C067
:1011700020E130E002C020E132E0F801B7FE07C014
:1011800060817181828193810C5F1F4F06C06081F5
:10119000718180E090E00E5F1F4FA4010E94CC0996
:1011A000A82EA818FB2DFF77BF2EB6FE0BC02B2D47
:1011B0002E7FA51450F4B4FE0AC0B2FC08C02B2D3B
:1011C0002E7E05C07A2C2B2D03C07A2C01C0752CE5
:1011D00024FF0DC0FE01EA0DF11D8081803311F462
:1011E000297E09C022FF06C07394739404C0822F25
:1011F000867809F0739423FD13C020FF06C05A2C93
:10120000731418F4530C5718732C731468F4B70143
:1012100080E290E02C870E949A0973942C85F5CF88
:10122000731410F4371801C0312C24FF12C0B70119
:1012300080E390E02C870E949A092C8522FF17C03A
:1012400021FF03C088E590E002C088E790E0B70185
:101250000CC0822F867859F021FD02C080E201C0C7
:101260008BE227FD8DE2B70190E00E949A09A51458
:1012700038F4B70180E390E00E949A095A94F7CFBE
:10128000AA94F401EA0DF11D8081B70190E00E945B
:101290009A09A110F5CF332009F451CEB70180E2AD
:1012A00090E00E949A093A94F6CFF70186819781DF
:1012B00002C08FEF9FEF2C960FB6F894DEBF0FBEE3
:1012C000CDBFDF91CF911F910F91FF90EF90DF90F5
:1012D000CF90BF90AF909F908F907F906F905F90D6
:1012E0004F903F902F900895FC0105906150704001
:1012F0000110D8F7809590958E0F9F1F0895FC01DF
:101300006150704001900110D8F7809590958E0F34
:101310009F1F0895DC01FC01672F71917723E1F78E
:10132000329704C07C916D9370836291AE17BF07B2
:10133000C8F308950F931F93CF93DF93182F092FAE
:10134000EB018B8181FD03C08FEF9FEF20C082FFF7
:1013500010C04E815F812C813D81421753077CF480
:10136000E881F9819F012F5F3F4F398328831083E4
:1013700006C0E885F985812F1995892B29F72E81DB
:101380003F812F5F3F4F3F832E83812F902FDF912F
:10139000CF911F910F910895FA01AA27283051F19A
:1013A000203181F1E8946F936E7F6E5F7F4F8F4F96
:1013B0009F4FAF4FB1E03ED0B4E03CD0670F781FF5
:1013C000891F9A1FA11D680F791F8A1F911DA11DDA
:1013D0006A0F711D811D911DA11D20D009F4689413
:1013E0003F912AE0269F11243019305D3193DEF6BB
:1013F000CF010895462F4770405D4193B3E00FD071
:10140000C9F7F6CF462F4F70405D4A3318F0495D5B
:1014100031FD4052419302D0A9F7EACFB4E0A6953E
:101420009795879577956795BA95C9F70097610560
:10143000710508959B01AC010A2E069457954795B6
:1014400037952795BA95C9F7620F731F841F951FAB
:08145000A01D0895F894FFCFE0
:1014580000002503200057652061726520696E2011
:101468006D61696E00737461747300626C696E6B90
:101478000053797374656D2054696D653A20004E88
:10148800756D626572206F66207468726561647339
:101498003A20005468726561642049443A005468EF
:1014A80072656164204E616D653A005468726561C9
:1014B800642050433A00537461636B20557361672D
:1014C800653A00546F74616C20537461636B2053E8
:1014D800697A653A0043757272656E7420746F702C
:1014E800206F6620537461636B3A00537461636BB9
:1014F80020626173653A00537461636B20656E64A2
:101508003A0053503A2000255800546872656164C7
:0A15180020637265617465642100B0
:00000001FF
