:100000000C9472000C947E000C947E000C947E0084
:100010000C947E000C947E000C947E000C947E0068
:100020000C947E000C947E000C947E000C947E0058
:100030000C947E000C947E000C947E000C947E0048
:100040000C947E000C947E000C947E000C947E0038
:100050000C947E000C9496000C947E000C947E0010
:100060000C947E000C947E000C947E000C947E0018
:100070000C947E000C947E000C947E000C947E0008
:100080000C947E000C947E000C947E000C947E00F8
:100090000C947E000C947E000C947E000C947E00E8
:1000A0000C947E000C947E000C947E000C947E00D8
:1000B0000C947E000C947E000C947E000C947E00C8
:1000C0000C947E000C947E000C947E000C947E00B8
:1000D0000C947E000C947E000C947E000C947E00A8
:1000E0000C947E0011241FBECFEFD1E2DEBFCDBF46
:1000F00000E00CBF0E9400010C9442010C9400002F
:10010000E4E2F0E0208120682083E5E2F0E0208155
:10011000206820830895E4E2F0E0208120682083B5
:10012000E5E2F0E020812F77208308951F920F925F
:100130000FB60F9211240BB60F922F933F934F934C
:100140005F936F937F938F939F93AF93BF93CF935F
:10015000DF93EF93FF93FF91EF91DF91CF91BF91E9
:10016000AF919F918F917F916F915F914F913F914F
:100170002F910F900BBE0F900FBE0F901F901895F0
:10018000EEE6F0E080818260808384B5826084BD89
:1001900085B5856085BD8CE987BD08952F923F9216
:1001A0004F925F926F927F928F929F92AF92BF9287
:1001B000CF92DF92EF92FF920F931F93FB0100818A
:1001C000FC011081FEE5EDE520810083FB01108339
:1001D000FC0120831F910F91FF90EF90DF90CF9053
:1001E000BF90AF909F908F907F906F905F904F9057
:1001F0003F902F9008957894089508950895089554
:10020000CF93DF93CDB7DEB7C454D1090FB6F894BE
:10021000DEBF0FBECDBF80E090E08A30910554F183
:10022000E4E2F0E0208120682083E5E2F0E0208134
:10023000206820838AE090E0EFE3FCE93197F1F752
:1002400000C0000001970097B9F7E4E2F0E02081D8
:1002500020682083E5E2F0E020812F772083BE0133
:100260006A5F7F4FCB010E94CE0080E090E08A3031
:100270009105B4F6EFE3FCE93197F1F700C0000017
:080280000196CBCFF894FFCFEB
:00000001FF
