:100000000C947A000C949B000C949B000C949B0025
:100010000C949B000C949B000C949B000C949B00F4
:100020000C949B000C949B000C949B000C949B00E4
:100030000C949B000C949B000C949B000C949B00D4
:100040000C949B000C949B000C949B000C949B00C4
:100050000C949B000C9431030C949B000C949B001B
:100060000C949B000C949B000C949B000C949B00A4
:100070000C949B000C949B000C949B000C949B0094
:100080000C949B000C949B000C949B000C949B0084
:100090000C949B000C949B000C949B000C949B0074
:1000A0000C949B000C949B000C949B000C949B0064
:1000B0000C949B000C949B000C949B000C949B0054
:1000C0000C949B000C949B000C949B000C949B0044
:1000D0000C949B000C949B000C949B000C949B0034
:1000E0000C949B000C94A0040C94BA000C949D00FA
:1000F0000C94EE0211241FBECFEFD1E2DEBFCDBFC4
:1001000000E00CBF12E0A0E0B2E0ECE1F2E100E0C0
:100110000BBF02C007900D92A036B107D9F722E0BD
:10012000A0E6B2E001C01D92AD3BB207E1F70E942C
:10013000A0040C940C090C94000080E090E007C02F
:10014000EFE3FCE93197F1F700C0000001968A3037
:100150009105B4F30E94D8028AE090E0EFE3FCE955
:100160003197F1F700C0000001970097B9F70E949E
:10017000E302E3CF81E292E00E940C0180916902E8
:1001800090916A020E943A0180E392E00E940C0181
:1001900080916702909168020E943A0187E392E0A1
:1001A0000E940C0180917202909173020E943A01A8
:1001B00086E492E00E940C0180917002909171029D
:1001C0000E943A01D7CF82E08093C0001092C50010
:1001D00080E18093C400E1ECF0E08081886180835D
:1001E00008958091C000881F8827881F08958091F6
:1001F000C00087FD02C08FEF08958091C60008956A
:100200009091C10095FDFCCF9091C00095FFF8CF73
:100210008093C60081E00895FC012081222371F0C3
:1002200031968091C10085FDFCCF8091C00085FF93
:10023000F8CF2093C60021912111F3CF80E090E008
:100240000895CF93DF9300D01F921F92CDB7DEB7F2
:100250004AE0BE016F5F7F4F0E941206CE010196F9
:100260000E940C010F900F900F900F900F90DF9154
:10027000CF9108958F929F92AF92BF92CF92DF92CB
:10028000EF92FF920F931F93CF93DF93CDB7DEB71B
:100290002A970FB6F894DEBF0FBECDBF611571056A
:1002A00081059105A1F19E012F5F3F4F6901790101
:1002B00000E010E02AE0822E912CA12CB12CA501A7
:1002C00094010E94C904605DF70161937F01B90147
:1002D000CA010F5F1F4F611571058105910579F7FF
:1002E000F8013196EC0DFD1D92918091C10085FDC4
:1002F000FCCF8091C00085FFF8CF9093C600EC152D
:10030000FD0591F710C08091C00085FD09C0809166
:10031000C10085FFF8CF8091C10085FDF8CFF3CFF4
:1003200080E38093C6002A960FB6F894DEBF0FBE16
:10033000CDBFDF91CF911F910F91FF90EF90DF9094
:10034000CF90BF90AF909F908F9008950F931F9381
:10035000CF93DF93CDB7DEB72A970FB6F894DEBF01
:100360000FBECDBF9F938F938DE492E09F938F93A9
:100370008E010F5F1F4F1F930F930E942C06C80121
:100380000E940C010F900F900F900F900F900F9004
:100390002A960FB6F894DEBF0FBECDBFDF91CF9186
:1003A0001F910F910895CF93DF93CDB7DEB72A97B2
:1003B0000FB6F894DEBF0FBECDBF61157105810584
:1003C000910521F1AE014F5F5F4FDA01E0E0F0E00F
:1003D00010C0205D2C9334E09695879577956795AE
:1003E0003A95D1F731961196611571058105910500
:1003F00011F19B012F7033272A30310554F3295C0A
:100400002C93E9CF8091C00085FD09C08091C10087
:1004100085FFF8CF8091C10085FDF8CFF3CF80E351
:100420008093C6002A960FB6F894DEBF0FBECDBFEC
:10043000DF91CF9108953196E40FF51F929180914D
:10044000C10085FDFCCF8091C00085FFF8CF90935F
:10045000C600E417F50791F7E5CFCF93DF931F921E
:10046000CDB7DEB79091C10095FDFCCF9091C00053
:1004700095FFF8CF9BE19093C6009091C10095FD48
:10048000FCCF9091C00095FFF8CF9BE59093C600FC
:1004900090E069830E94210169819091C10095FDDE
:1004A000FCCF9091C00095FFF8CF8BE38093C600FE
:1004B000862F90E00E9421018091C10085FDFCCF34
:1004C0008091C00085FFF8CF88E48093C6000F902C
:1004D000DF91CF9108958091C10085FDFCCF80917F
:1004E000C00085FFF8CF8BE18093C6008091C100EA
:1004F00085FDFCCF8091C00085FFF8CF8BE5809310
:10050000C6008091C10085FDFCCF8091C00085FFB1
:10051000F8CF88E48093C60008959091C10095FDBE
:10052000FCCF9091C00095FFF8CF9BE19093C6005F
:100530009091C10095FDFCCF9091C00095FFF8CF40
:100540009BE59093C60090E00E9421018091C1003C
:1005500085FDFCCF8091C00085FFF8CF8DE68093AC
:10056000C60008958091C10085FDFCCF8091C00038
:1005700085FFF8CF8BE18093C6008091C10085FD97
:10058000FCCF8091C00085FFF8CF8BE58093C6003B
:1005900082E090E00E9421018091C10085FDFCCFA6
:1005A0008091C00085FFF8CF8AE48093C60008954B
:1005B000E4E2F0E0208120682083E5E2F0E02081A1
:1005C000206820830895E4E2F0E020812068208301
:1005D000E5E2F0E020812F77208308957894C2012E
:1005E000F1010994EEE6F0E080818260808384B5B9
:1005F000826084BD85B5856085BD8CE987BD089521
:100600002F923F924F925F926F927F928F929F9222
:10061000AF92BF92CF92DF92EF92FF920F931F9310
:10062000F0E0EDE5A080F0E0EEE5B080FB01A19206
:10063000B082FC01C190D080F0E0EDE5C192D082A3
:100640001F910F91FF90EF90DF90CF90BF90AF90F0
:100650009F908F907F906F905F904F903F902F90E2
:1006600008951F920F920FB60F9211240BB60F929E
:100670002F933F934F935F936F937F938F939F93AA
:10068000AF93BF93CF93DF93EF93FF93809160027B
:10069000833009F448C080916002823009F443C07D
:1006A000809160028093610280916002813009F440
:1006B00045C081E080936002809160028093B8021F
:1006C000809161022091B80290E0BC01660F771F13
:1006D000660F771F660F771F680F791F69597D4F67
:1006E00030E0C901880F991F880F991F880F991F43
:1006F000820F931F89599D4F0E940003FF91EF9134
:10070000DF91CF91BF91AF919F918F917F916F9129
:100710005F914F913F912F910F900BBE0F900FBEA5
:100720000F901F9018951092600280916002809344
:10073000610280916002813009F0BBCF10926002AB
:1007400080916002BBCF0C94E300CF92DF92FF92C6
:100750000F931F93CF93DF9300D01F92CDB7DEB7D7
:10076000690122E3C20ED11C0EEE12E0209160025C
:1007700030E0F901EE0FFF1FEE0FFF1FEE0FFF1F1E
:10078000E20FF31FEE59FD4F92838183F0906002D8
:10079000C6014B835C8369837A830E94EB042F2D0F
:1007A00030E0F901EE0FFF1FEE0FFF1FEE0FFF1FEE
:1007B000E20FF31FEE59FD4F90878783209160026F
:1007C0008091600230E0F901EE0FFF1FEE0FFF1F76
:1007D000EE0FFF1FE20FF31FEE59FD4F90E0DC011B
:1007E000AA0FBB1FAA0FBB1FAA0FBB1FA80FB91FC1
:1007F000AE59BD4F17968D919C91189701978C0D0E
:100800009D1D96838583209160028091600230E077
:10081000F901EE0FFF1FEE0FFF1FEE0FFF1FE20F9C
:10082000F31FEE59FD4F90E0DC01AA0FBB1FAA0F8A
:10083000BB1FAA0FBB1FA80FB91FAE59BD4F1596FE
:100840008D919C9116974497968385838091600241
:1008500090E0FC01EE0FFF1FEE0FFF1FEE0FFF1FDA
:10086000E80FF91FEE59FD4F0580F681E02D7A81E2
:1008700077876981608B5C8155874B814687038BC5
:10088000128B118A809160022091600290E0FC013D
:10089000EE0FFF1FEE0FFF1FEE0FFF1FE80FF91FF8
:1008A000EE59FD4F20838091600290E0FC01EE0F35
:1008B000FF1FEE0FFF1FEE0FFF1FE80FF91FEE598E
:1008C000FD4FD482C382809160028F5F809360026B
:1008D00080E592E00E940C018091600290E00F9010
:1008E0000F900F900F90DF91CF911F910F91FF907C
:1008F000DF90CF900C94A601EEE6F0E0808182605C
:10090000808384B5826084BD85B5856085BD8CE9B2
:1009100087BD789469E772E087E692E00E94000361
:10092000089580916002813031F081E0809360020F
:100930008091600208951092600280916002089593
:100940000E94A30386E092E00E940C0122E330E0C3
:1009500040E050E06AEB70E085E192E00E94A50380
:1009600022E330E040E050E06DE970E08BE192E09E
:100970000E94A50322E330E040E050E060EA74E02A
:1009800080E192E00E94A5030E947C0480E090E058
:100990000895A1E21A2EAA1BBB1BFD010DC0AA1FC0
:1009A000BB1FEE1FFF1FA217B307E407F50720F0D8
:1009B000A21BB30BE40BF50B661F771F881F991F53
:1009C0001A9469F760957095809590959B01AC019C
:1009D000BD01CF010895CF93DF938230910510F4CC
:1009E00082E090E0E091BB02F091BC0220E030E0B8
:1009F000A0E0B0E0309739F14081518148175907A4
:100A0000B8F04817590771F482819381109729F043
:100A100013969C938E9312972CC09093BC02809354
:100A2000BB0227C02115310531F04217530718F0DA
:100A3000A901DB0101C0EF019A01BD01DF010280C4
:100A4000F381E02DD7CF21153105F9F0281B390BA3
:100A50002430310580F48A819B816115710521F074
:100A6000FB019383828304C09093BC028093BB02FA
:100A7000FE01329644C0FE01E20FF31F8193919371
:100A800022503109398328833AC02091B90230912C
:100A9000BA02232B41F420910202309103023093D9
:100AA000BA022093B902209100023091010221156F
:100AB000310541F42DB73EB7409104025091050233
:100AC000241B350BE091B902F091BA02E217F3074B
:100AD000A0F42E1B3F0B2817390778F0AC014E5FAE
:100AE0005F4F2417350748F04E0F5F1F5093BA022F
:100AF0004093B9028193919302C0E0E0F0E0CF010E
:100B0000DF91CF910895CF93DF93009709F487C0C9
:100B1000FC01329713821282C091BB02D091BC02B9
:100B2000209781F420813181280F391F8091B902EB
:100B30009091BA028217930779F5F093BA02E09385
:100B4000B9026DC0DE0120E030E0AE17BF0750F4FF
:100B500012964D915C9113979D014115510509F134
:100B6000DA01F3CFB383A28340815181840F951FB3
:100B70008A179B0771F48D919C911197840F951F93
:100B800002969183808312968D919C911397938303
:100B900082832115310529F4F093BC02E093BB0256
:100BA0003EC0D9011396FC93EE9312974D915D913F
:100BB000A40FB51FEA17FB0779F480819181840F98
:100BC000951F0296D90111969C938E9382819381F1
:100BD00013969C938E931297E0E0F0E08A819B81BC
:100BE000009719F0FE01EC01F9CFCE0102962881A1
:100BF0003981820F931F2091B9023091BA022817D0
:100C0000390769F4309729F41092BC021092BB02A4
:100C100002C013821282D093BA02C093B902DF914C
:100C2000CF910895BB27FB015527AA27880F991F4D
:100C3000AA1FA41710F0A41B83955051B9F7A05D0B
:100C4000AA3308F0A95DA193009779F7B111B19388
:100C50001192CB010C946C080F931F93CF93DF93E9
:100C6000CDB7DEB72E970FB6F894DEBF0FBECDBF5F
:100C70000E891F8986E08C831A8309838FEF9FE793
:100C80009E838D83AE01465E5F4F688D798DCE0168
:100C900001960E945B06EF81F885E00FF11F10823C
:100CA0002E960FB6F894DEBF0FBECDBFDF91CF9169
:100CB0001F910F9108952F923F924F925F926F92E2
:100CC0007F928F929F92AF92BF92CF92DF92EF92DC
:100CD000FF920F931F93CF93DF93CDB7DEB72C977F
:100CE0000FB6F894DEBF0FBECDBF7C016B018A0149
:100CF000FC0117821682838181FFBDC1CE0101965E
:100D00004C01F7019381F60193FD859193FF819149
:100D10006F01882309F4ABC1853239F493FD8591C5
:100D200093FF81916F01853229F4B70190E00E9411
:100D30007C08E7CF512C312C20E02032A0F48B32FC
:100D400069F030F4803259F0833269F420612CC0AC
:100D50008D3239F0803339F4216026C0226024605E
:100D600023C0286021C027FD27C030ED380F3A305E
:100D700078F426FF06C0FAE05F9E300D1124532E52
:100D800013C08AE0389E300D1124332E20620CC02F
:100D90008E3221F426FD6BC1206406C08C3611F41E
:100DA000206802C0883641F4F60193FD859193FFD7
:100DB00081916F018111C1CF982F9F7D9554933000
:100DC00028F40C5F1F4FFFE3F9830DC0833631F029
:100DD000833771F0833509F05BC022C0F801808150
:100DE00089830E5F1F4F44244394512C540115C036
:100DF0003801F2E06F0E711CF801A080B18026FF6F
:100E000003C0652D70E002C06FEF7FEFC5012C8736
:100E10000E9461082C0183012C852F77222E17C098
:100E20003801F2E06F0E711CF801A080B18026FF3E
:100E300003C0652D70E002C06FEF7FEFC5012C8706
:100E40000E9456082C012C852068222E830123FC49
:100E50001BC0832D90E048165906B0F4B70180E21C
:100E600090E00E947C083A94F4CFF50127FC85912C
:100E700027FE81915F01B70190E00E947C0831104C
:100E80003A94F1E04F1A51084114510471F7E5C04A
:100E9000843611F0893639F5F80127FF07C06081E3
:100EA0007181828193810C5F1F4F08C060817181C5
:100EB000882777FD8095982F0E5F1F4F2F76B22ED3
:100EC00097FF09C090958095709561957F4F8F4FE2
:100ED0009F4F2068B22E2AE030E0A4010E94AE08A5
:100EE000A82EA81844C0853729F42F7EB22E2AE0F8
:100EF00030E025C0F22FF97FBF2E8F36C1F018F4F5
:100F0000883579F0B4C0803719F0883721F0AFC048
:100F10002F2F2061B22EB4FE0DC08B2D8460B82E11
:100F200009C024FF0AC09F2F9660B92E06C028E092
:100F300030E005C020E130E002C020E132E0F801FD
:100F4000B7FE07C060817181828193810C5F1F4F62
:100F500006C06081718180E090E00E5F1F4FA401A8
:100F60000E94AE08A82EA818FB2DFF77BF2EB6FE54
:100F70000BC02B2D2E7FA51450F4B4FE0AC0B2FC7A
:100F800008C02B2D2E7E05C07A2C2B2D03C07A2C69
:100F900001C0752C24FF0DC0FE01EA0DF11D8081FA
:100FA000803311F4297E09C022FF06C07394739424
:100FB00004C0822F867809F0739423FD13C020FFAC
:100FC00006C05A2C731418F4530C5718732C73144E
:100FD00068F4B70180E290E02C870E947C0873944B
:100FE0002C85F5CF731410F4371801C0312C24FF71
:100FF00012C0B70180E390E02C870E947C082C850A
:1010000022FF17C021FF03C088E590E002C088E7F7
:1010100090E0B7010CC0822F867859F021FD02C004
:1010200080E201C08BE227FD8DE2B70190E00E94D3
:101030007C08A51438F4B70180E390E00E947C0896
:101040005A94F7CFAA94F401EA0DF11D8081B701FB
:1010500090E00E947C08A110F5CF332009F451CE16
:10106000B70180E290E00E947C083A94F6CFF70145
:101070008681978102C08FEF9FEF2C960FB6F89470
:10108000DEBF0FBECDBFDF91CF911F910F91FF90BB
:10109000EF90DF90CF90BF90AF909F908F907F9018
:1010A0006F905F904F903F902F900895FC010590B6
:1010B000615070400110D8F7809590958E0F9F1F5A
:1010C0000895FC016150704001900110D8F780959F
:1010D00090958E0F9F1F0895DC01FC01672F719181
:1010E0007723E1F7329704C07C916D93708362910E
:1010F000AE17BF07C8F308950F931F93CF93DF93E5
:10110000182F092FEB018B8181FD03C08FEF9FEF1B
:1011100020C082FF10C04E815F812C813D8142172B
:1011200053077CF4E881F9819F012F5F3F4F39839A
:101130002883108306C0E885F985812F1995892BAE
:1011400029F72E813F812F5F3F4F3F832E83812FD1
:10115000902FDF91CF911F910F910895FA01AA2747
:10116000283051F1203181F1E8946F936E7F6E5FEA
:101170007F4F8F4F9F4FAF4FB1E03ED0B4E03CD098
:10118000670F781F891F9A1FA11D680F791F8A1F7B
:10119000911DA11D6A0F711D811D911DA11D20D0E2
:1011A00009F468943F912AE0269F11243019305D9C
:1011B0003193DEF6CF010895462F4770405D41938D
:1011C000B3E00FD0C9F7F6CF462F4F70405D4A33DA
:1011D00018F0495D31FD4052419302D0A9F7EACFA2
:1011E000B4E0A6959795879577956795BA95C9F7D1
:1011F00000976105710508959B01AC010A2E0694C4
:101200005795479537952795BA95C9F7620F731F7C
:0C121000841F951FA01D0895F894FFCFC7
:10121C000000BD02200057652061726520696E20B8
:10122C006D61696E00737461747300626C696E6BCE
:10123C0000537461636B206261736520303A200047
:10124C00535020303A2000537461636B20626173F9
:10125C006520313A2000535020313A2000255800A7
:10126C005468726561642063726561746564210001
:00000001FF
