:100000000C947A000C949B000C949B000C949B0025
:100010000C949B000C949B000C949B000C949B00F4
:100020000C949B000C949B000C949B000C949B00E4
:100030000C949B000C949B000C949B000C949B00D4
:100040000C949B000C949B000C949B000C949B00C4
:100050000C949B000C9414030C949B000C949B0038
:100060000C949B000C949B000C949B000C949B00A4
:100070000C949B000C949B000C949B000C949B0094
:100080000C949B000C949B000C949B000C949B0084
:100090000C949B000C949B000C949B000C949B0074
:1000A0000C949B000C949B000C949B000C949B0064
:1000B0000C949B000C949B000C949B000C949B0054
:1000C0000C949B000C949B000C949B000C949B0044
:1000D0000C949B000C949B000C949B000C949B0034
:1000E0000C949B000C94C6040C94A2000C949D00EC
:1000F0000C94D20211241FBECFEFD1E2DEBFCDBFE0
:1001000000E00CBF12E0A0E0B2E0E0E7F2E100E0C6
:100110000BBF02C007900D92AC35B107D9F722E0B2
:10012000ACE5B2E001C01D92AC3BB207E1F70E9422
:10013000C6040C9436090C94000086E092E00E94FC
:10014000F000FBCFC0E0D0E021962AE030E08FE362
:100150009CE90197F1F700C00000215031092115F9
:100160003105A9F70E94BC022AE030E08FE39CE948
:100170000197F1F700C00000215031092115310528
:10018000A9F70E94C702CE010E94B701DDCF82E02D
:100190008093C0001092C50080E18093C400E1EC20
:1001A000F0E080818861808308958091C000881F7D
:1001B0008827881F08958091C00087FD02C08FEFB7
:1001C00008958091C60008959091C10095FDFCCFDF
:1001D0009091C00095FFF8CF8093C60081E008950C
:1001E000FC012081222371F031968091C10085FDB0
:1001F000FCCF8091C00085FFF8CF2093C6002191ED
:100200002111F3CF80E090E00895CF93DF9300D0E9
:100210001F921F92CDB7DEB74AE0BE016F5F7F4FDE
:100220000E943C06CE0101960E94F0000F900F90B4
:100230000F900F900F90DF91CF9108958F929F9222
:10024000AF92BF92CF92DF92EF92FF920F931F93E4
:10025000CF93DF93CDB7DEB72A970FB6F894DEBF02
:100260000FBECDBF6115710581059105A1F19E01FC
:100270002F5F3F4F6901790100E010E02AE0822EF4
:10028000912CA12CB12CA50194010E94F304605D76
:10029000F70161937F01B901CA010F5F1F4F61151B
:1002A00071058105910579F7F8013196EC0DFD1D79
:1002B00092918091C10085FDFCCF8091C00085FFA7
:1002C000F8CF9093C600EC15FD0591F710C0809112
:1002D000C00085FD09C08091C10085FFF8CF8091E5
:1002E000C10085FDF8CFF3CF80E38093C6002A9646
:1002F0000FB6F894DEBF0FBECDBFDF91CF911F9137
:100300000F91FF90EF90DF90CF90BF90AF909F90B4
:100310008F9008950F931F93CF93DF93CDB7DEB7E0
:100320002A970FB6F894DEBF0FBECDBF9F938F9371
:1003300085E292E09F938F938E010F5F1F4F1F9373
:100340000F930E945606C8010E94F0000F900F9074
:100350000F900F900F900F902A960FB6F894DEBF73
:100360000FBECDBFDF91CF911F910F910895CF9315
:10037000DF93CDB7DEB72A970FB6F894DEBF0FBE76
:10038000CDBF611571058105910521F1AE014F5F6A
:100390005F4FDA01E0E0F0E010C0205D2C9334E024
:1003A00096958795779567953A95D1F731961196F9
:1003B000611571058105910511F19B012F7033279E
:1003C0002A30310554F3295C2C93E9CF8091C00089
:1003D00085FD09C08091C10085FFF8CF8091C100E3
:1003E00085FDF8CFF3CF80E38093C6002A960FB641
:1003F000F894DEBF0FBECDBFDF91CF910895319647
:10040000E40FF51F92918091C10085FDFCCF809192
:10041000C00085FFF8CF9093C600E417F50791F769
:10042000E5CFCF93DF931F92CDB7DEB79091C10098
:1004300095FDFCCF9091C00095FFF8CF9BE1909384
:10044000C6009091C10095FDFCCF9091C00095FF32
:10045000F8CF9BE59093C60090E069830E94050168
:1004600069819091C10095FDFCCF9091C00095FFEE
:10047000F8CF8BE38093C600862F90E00E940501A1
:100480008091C10085FDFCCF8091C00085FFF8CF31
:1004900088E48093C6000F90DF91CF9108958091FA
:1004A000C10085FDFCCF8091C00085FFF8CF8BE1B6
:1004B0008093C6008091C10085FDFCCF8091C00073
:1004C00085FFF8CF8BE58093C6008091C10085FD44
:1004D000FCCF8091C00085FFF8CF88E48093C600F0
:1004E00008959091C10095FDFCCF9091C00095FFBB
:1004F000F8CF9BE19093C6009091C10095FDFCCF91
:100500009091C00095FFF8CF9BE59093C60090E0D6
:100510000E9405018091C10085FDFCCF8091C00043
:1005200085FFF8CF8DE68093C60008958091C100C5
:1005300085FDFCCF8091C00085FFF8CF8BE18093D3
:10054000C6008091C10085FDFCCF8091C00085FF71
:10055000F8CF8BE58093C60082E090E00E94050111
:100560008091C10085FDFCCF8091C00085FFF8CF50
:100570008AE48093C6000895E4E2F0E020812068D8
:100580002083E5E2F0E02081206820830895E4E202
:10059000F0E0208120682083E5E2F0E020812F77E1
:1005A00020830895C201F1010994EEE6F0E0808114
:1005B0008260808384B5826084BD85B5856085BD99
:1005C0008CE987BD08952F923F924F925F926F9270
:1005D0007F928F929F92AF92BF92CF92DF92EF92D3
:1005E000FF920F931F93F0E0EDE5A080F0E0EEE5C1
:1005F000B080FB01A192B082FC01C190D080F0E0FC
:10060000EDE5C192D0821F910F91FF90EF90DF90A6
:10061000CF90BF90AF909F908F907F906F905F90A2
:100620004F903F902F9008951F920F920FB60F9208
:1006300011240BB60F922F933F934F935F936F93B9
:100640007F938F939F93AF93BF93CF93DF93EF935A
:10065000FF9388E292E00E94F00080915C0290910A
:100660005D02039709F472C080915C0290915D0273
:10067000029709F46BC080915C0290915D029093A7
:100680005F0280935E0280915C0290915D0201970F
:1006900009F463C081E090E090935D0280935C0276
:1006A00080915C0290915D0290E09093B7028093FC
:1006B000B6028EE392E00E94F00060915E027091BB
:1006C0005F0280E090E00E941E0185E492E00E94BB
:1006D000F00060915C0270915D0280E090E00E9409
:1006E0001E0180915E0290915F022091B6023091CE
:1006F000B702BC01660F771F660F771F660F771F63
:10070000680F791F6B597D4FC901880F991F880F9A
:10071000991F880F991F820F931F8B599D4F0E941D
:10072000E302FF91EF91DF91CF91BF91AF919F9144
:100730008F917F916F915F914F913F912F910F908A
:100740000BBE0F900FBE0F901F90189581E090E0A8
:1007500090935D0280935C028ECF10925D021092A6
:100760005C0280915C0290915D029ECF0C94C70068
:10077000CF92DF92EF92FF920F931F93CF93DF936D
:1007800000D01F92CDB7DEB7690122E3C20ED11CA3
:1007900002ED12E020915C0230915D02F901EE0F52
:1007A000FF1FEE0FFF1FEE0FFF1FE20FF31FE05AB8
:1007B000FD4F92838183E0905C02F0905D02C60160
:1007C0004B835C8369837A830E941505F701EE0FE2
:1007D000FF1FEE0FFF1FEE0FFF1FEE0DFF1DE05A74
:1007E000FD4F9087878320915C0230915D0280915C
:1007F0005C0290915D02F901EE0FFF1FEE0FFF1FEB
:10080000EE0FFF1FE20FF31FE05AFD4FDC01AA0FAE
:10081000BB1FAA0FBB1FAA0FBB1FA80FB91FA05A4F
:10082000BD4F17968D919C91189701978C0D9D1D2A
:100830009683858320915C0230915D0280915C02F9
:1008400090915D02F901EE0FFF1FEE0FFF1FEE0FFB
:10085000FF1FE20FF31FE05AFD4FDC01AA0FBB1F81
:10086000AA0FBB1FAA0FBB1FA80FB91FA05ABD4FCD
:1008700015968D919C9116974497968385838091C8
:100880005C0290915D02FC01EE0FFF1FEE0FFF1F57
:10089000EE0FFF1FE80FF91FEB59FD4F7A81708BA8
:1008A000698167875C8156874B814587038B128BF3
:1008B000118A80915C0290915D0220915C023091DE
:1008C0005D02FC01EE0FFF1FEE0FFF1FEE0FFF1F7B
:1008D000E80FF91FE05AFD4F208380915C02909150
:1008E0005D02FC01EE0FFF1FEE0FFF1FEE0FFF1F5B
:1008F000E80FF91FE05AFD4FD482C38280915C0259
:1009000090915D02019690935D0280935C028BE46E
:1009100092E00E94F00080915C0290915D020F9045
:100920000F900F900F90DF91CF911F910F91FF903B
:10093000EF90DF90CF900C948A01EEE6F0E080819A
:100940008260808384B5826084BD85B5856085BD05
:100950008CE987BD7894089580915C0290915D0246
:10096000019759F081E090E090935D0280935C02E2
:1009700080915C0290915D02089510925D02109248
:100980005C0280915C0290915D0208950E94B60322
:100990008AE092E00E94F00022E330E040E050E084
:1009A00062EA70E089E192E00E94B80322E330E05D
:1009B00040E050E06DE970E08FE192E00E94B80302
:1009C00022E330E040E050E066EC74E084E192E045
:1009D0000E94B8030E949D04C1E0D0E0CE010E94B5
:1009E00005012196FBCFA1E21A2EAA1BBB1BFD011C
:1009F0000DC0AA1FBB1FEE1FFF1FA217B307E407FE
:100A0000F50720F0A21BB30BE40BF50B661F771F55
:100A1000881F991F1A9469F7609570958095909535
:100A20009B01AC01BD01CF010895CF93DF938230CC
:100A3000910510F482E090E0E091BA02F091BB02DF
:100A400020E030E0A0E0B0E0309739F14081518102
:100A500048175907B8F04817590771F482819381F4
:100A6000109729F013969C938E9312972CC0909315
:100A7000BB028093BA0227C02115310531F042171D
:100A8000530718F0A901DB0101C0EF019A01BD0174
:100A9000DF010280F381E02DD7CF21153105F9F078
:100AA000281B390B2430310580F48A819B81611524
:100AB000710521F0FB019383828304C09093BB02F4
:100AC0008093BA02FE01329644C0FE01E20FF31F8A
:100AD0008193919322503109398328833AC0209120
:100AE000B8023091B902232B41F4209102023091D7
:100AF00003023093B9022093B80220910002309192
:100B000001022115310541F42DB73EB74091040291
:100B100050910502241B350BE091B802F091B90207
:100B2000E217F307A0F42E1B3F0B2817390778F0C4
:100B3000AC014E5F5F4F2417350748F04E0F5F1F23
:100B40005093B9024093B8028193919302C0E0E0C0
:100B5000F0E0CF01DF91CF910895CF93DF9300971D
:100B600009F487C0FC01329713821282C091BA0245
:100B7000D091BB02209781F420813181280F391F49
:100B80008091B8029091B9028217930779F5F0939A
:100B9000B902E093B8026DC0DE0120E030E0AE178C
:100BA000BF0750F412964D915C9113979D0141152A
:100BB000510509F1DA01F3CFB383A283408151815A
:100BC000840F951F8A179B0771F48D919C91119743
:100BD000840F951F02969183808312968D919C912C
:100BE0001397938382832115310529F4F093BB0277
:100BF000E093BA023EC0D9011396FC93EE9312978C
:100C00004D915D91A40FB51FEA17FB0779F4808120
:100C10009181840F951F0296D90111969C938E9312
:100C20008281938113969C938E931297E0E0F0E07B
:100C30008A819B81009719F0FE01EC01F9CFCE016A
:100C4000029628813981820F931F2091B80230913A
:100C5000B9022817390769F4309729F41092BB02BA
:100C60001092BA0202C013821282D093B902C093CA
:100C7000B802DF91CF910895BB27FB015527AA2722
:100C8000880F991FAA1FA41710F0A41B8395505119
:100C9000B9F7A05DAA3308F0A95DA193009779F791
:100CA000B111B1931192CB010C9496080F931F933D
:100CB000CF93DF93CDB7DEB72E970FB6F894DEBF94
:100CC0000FBECDBF0E891F8986E08C831A830983EE
:100CD0008FEF9FE79E838D83AE01465E5F4F688DE9
:100CE000798DCE0101960E948506EF81F885E00F8F
:100CF000F11F10822E960FB6F894DEBF0FBECDBF47
:100D0000DF91CF911F910F9108952F923F924F92B3
:100D10005F926F927F928F929F92AF92BF92CF928B
:100D2000DF92EF92FF920F931F93CF93DF93CDB794
:100D3000DEB72C970FB6F894DEBF0FBECDBF7C0197
:100D40006B018A01FC0117821682838181FFBDC17C
:100D5000CE0101964C01F7019381F60193FD859137
:100D600093FF81916F01882309F4ABC1853239F477
:100D700093FD859193FF81916F01853229F4B7012D
:100D800090E00E94A608E7CF512C312C20E02032C1
:100D9000A0F48B3269F030F4803259F0833269F478
:100DA00020612CC08D3239F0803339F4216026C0A7
:100DB0002260246023C0286021C027FD27C030EDB9
:100DC000380F3A3078F426FF06C0FAE05F9E300D07
:100DD0001124532E13C08AE0389E300D1124332E77
:100DE00020620CC08E3221F426FD6BC1206406C047
:100DF0008C3611F4206802C0883641F4F60193FD68
:100E0000859193FF81916F018111C1CF982F9F7DB3
:100E10009554933028F40C5F1F4FFFE3F9830DC006
:100E2000833631F0833771F0833509F05BC022C01F
:100E3000F801808189830E5F1F4F44244394512C15
:100E4000540115C03801F2E06F0E711CF801A0804A
:100E5000B18026FF03C0652D70E002C06FEF7FEF09
:100E6000C5012C870E948B082C0183012C852F77CC
:100E7000222E17C03801F2E06F0E711CF801A0801D
:100E8000B18026FF03C0652D70E002C06FEF7FEFD9
:100E9000C5012C870E9480082C012C852068222EF9
:100EA000830123FC1BC0832D90E048165906B0F443
:100EB000B70180E290E00E94A6083A94F4CFF501D1
:100EC00027FC859127FE81915F01B70190E00E9488
:100ED000A60831103A94F1E04F1A51084114510418
:100EE00071F7E5C0843611F0893639F5F80127FF2E
:100EF00007C060817181828193810C5F1F4F08C0A0
:100F000060817181882777FD8095982F0E5F1F4F34
:100F10002F76B22E97FF09C09095809570956195B8
:100F20007F4F8F4F9F4F2068B22E2AE030E0A40100
:100F30000E94D808A82EA81844C0853729F42F7E0F
:100F4000B22E2AE030E025C0F22FF97FBF2E8F3677
:100F5000C1F018F4883579F0B4C0803719F08837BB
:100F600021F0AFC02F2F2061B22EB4FE0DC08B2D0B
:100F70008460B82E09C024FF0AC09F2F9660B92E46
:100F800006C028E030E005C020E130E002C020E1EA
:100F900032E0F801B7FE07C06081718182819381E0
:100FA0000C5F1F4F06C06081718180E090E00E5F92
:100FB0001F4FA4010E94D808A82EA818FB2DFF7768
:100FC000BF2EB6FE0BC02B2D2E7FA51450F4B4FE01
:100FD0000AC0B2FC08C02B2D2E7E05C07A2C2B2D0A
:100FE00003C07A2C01C0752C24FF0DC0FE01EA0D50
:100FF000F11D8081803311F4297E09C022FF06C0D3
:101000007394739404C0822F867809F0739423FD3F
:1010100013C020FF06C05A2C731418F4530C571831
:10102000732C731468F4B70180E290E02C870E945F
:10103000A60873942C85F5CF731410F4371801C0EB
:10104000312C24FF12C0B70180E390E02C870E946E
:10105000A6082C8522FF17C021FF03C088E590E079
:1010600002C088E790E0B7010CC0822F867859F063
:1010700021FD02C080E201C08BE227FD8DE2B701B5
:1010800090E00E94A608A51438F4B70180E390E030
:101090000E94A6085A94F7CFAA94F401EA0DF11D14
:1010A0008081B70190E00E94A608A110F5CF3320FF
:1010B00009F451CEB70180E290E00E94A6083A946C
:1010C000F6CFF7018681978102C08FEF9FEF2C96B4
:1010D0000FB6F894DEBF0FBECDBFDF91CF911F9149
:1010E0000F91FF90EF90DF90CF90BF90AF909F90C7
:1010F0008F907F906F905F904F903F902F900895CA
:10110000FC010590615070400110D8F780959095D2
:101110008E0F9F1F0895FC016150704001900110D7
:10112000D8F7809590958E0F9F1F0895DC01FC01E4
:10113000672F71917723E1F7329704C07C916D930B
:1011400070836291AE17BF07C8F308950F931F9382
:10115000CF93DF93182F092FEB018B8181FD03C003
:101160008FEF9FEF20C082FF10C04E815F812C81E6
:101170003D81421753077CF4E881F9819F012F5F7D
:101180003F4F39832883108306C0E885F985812F76
:101190001995892B29F72E813F812F5F3F4F3F8380
:1011A0002E83812F902FDF91CF911F910F91089562
:1011B000FA01AA27283051F1203181F1E8946F9388
:1011C0006E7F6E5F7F4F8F4F9F4FAF4FB1E03ED02E
:1011D000B4E03CD0670F781F891F9A1FA11D680FCC
:1011E000791F8A1F911DA11D6A0F711D811D911DFF
:1011F000A11D20D009F468943F912AE0269F112474
:101200003019305D3193DEF6CF010895462F4770D7
:10121000405D4193B3E00FD0C9F7F6CF462F4F7032
:10122000405D4A3318F0495D31FD4052419302D090
:10123000A9F7EACFB4E0A695979587957795679536
:10124000BA95C9F700976105710508959B01AC0136
:101250000A2E06945795479537952795BA95C9F75D
:10126000620F731F841F951FA01D0895F894FFCF70
:101270000000BC022000596573005765206172654B
:1012800020696E206D61696E00626C696E6B00731F
:10129000746174730025580048454C4C4F20494EEA
:1012A0005445525255505420574F524C4400204FF1
:1012B0004C443A20004E45573A200054687265610C
:0C12C000642063726561746564210000A5
:00000001FF
