:100000000C9474000C9495000C9495000C9495003D
:100010000C9495000C9495000C9495000C9495000C
:100020000C9495000C9495000C9495000C949500FC
:100030000C9495000C9495000C9495000C949500EC
:100040000C9495000C9495000C9495000C949500DC
:100050000C9495000C94AF020C9495000C949500B0
:100060000C9495000C9495000C9495000C949500BC
:100070000C9495000C9495000C9495000C949500AC
:100080000C9495000C9495000C9495000C9495009C
:100090000C9495000C9495000C9495000C9495008C
:1000A0000C9495000C9495000C9495000C9495007C
:1000B0000C9495000C9495000C9495000C9495006C
:1000C0000C9495000C9495000C9495000C9495005C
:1000D0000C9495000C9495000C9495000C9495004C
:1000E0000C9495000C94AE0211241FBECFEFD1E208
:1000F000DEBFCDBF00E00CBF12E0A0E0B2E0ECE557
:10010000F0E100E00BBF02C007900D92AA30B107EA
:10011000D9F712E0AAE0B2E001C01D92A636B107FD
:10012000E1F70E9490030C942C080C94000082E0EC
:100130008093C0001092C50080E18093C400E1EC80
:10014000F0E080818861808308958091C000881FDD
:100150008827881F08958091C00087FD02C08FEF17
:1001600008958091C60008959091C10095FDFCCF3F
:100170009091C00095FFF8CF8093C60081E008956C
:10018000FC019081992371F031968091C10085FD29
:10019000FCCF8091C00085FFF8CF9093C60091916D
:1001A0009111F3CF80E090E00895CF93DF9300D0DA
:1001B0001F921F92CDB7DEB74AE050E0BE016F5FDD
:1001C0007F4F0E941B05CE0101960E94C0000F9038
:1001D0000F900F900F900F90DF91CF9108958F9215
:1001E0009F92AF92BF92CF92DF92EF92FF920F93C6
:1001F0001F93CF93DF93CDB7DEB72A970FB6F8944E
:10020000DEBF0FBECDBF6115710581059105A1F15E
:100210008E010F5F1F4F6801E12CF12C2AE0822E26
:10022000912CA12CB12CA50194010E94CC03605DFE
:10023000F60161936F01B901CA01FFEFEF1AFF0ADE
:10024000611571058105910571F7F7013196E00F90
:10025000F11F92918091C10085FDFCCF8091C0007B
:1002600085FFF8CF9093C6000E171F0791F710C0B7
:100270008091C00085FD09C08091C10085FFF8CF45
:100280008091C10085FDF8CFF3CF80E38093C60055
:100290002A960FB6F894DEBF0FBECDBFDF91CF9187
:1002A0001F910F91FF90EF90DF90CF90BF90AF9094
:1002B0009F908F9008950F931F93CF93DF93CDB7A7
:1002C000DEB72A970FB6F894DEBF0FBECDBF9F935F
:1002D0008F9386E092E09F938F938E010F5F1F4F65
:1002E0001F930F930E943105C8010E94C0000F9018
:1002F0000F900F900F900F900F902A960FB6F894D2
:10030000DEBF0FBECDBFDF91CF911F910F9108953A
:10031000CF92DF92EF92FF92CF93DF93CDB7DEB70C
:100320002A970FB6F894DEBF0FBECDBF6B017C01DC
:10033000611571058105910521F1AE014F5F5F4F98
:10034000FA0180E090E010C0205D208324E0F69464
:10035000E794D794C7942A95D1F701963196C114A2
:10036000D104E104F10431F196012F7033272A30D2
:10037000310554F3295C2083E9CF8091C00085FDCD
:1003800009C08091C10085FFF8CF8091C10085FD33
:10039000F8CFF3CF80E38093C6002A960FB6F89487
:1003A000DEBF0FBECDBFDF91CF91FF90EF90DF900A
:1003B000CF9008950196FA01E80FF91F929180916C
:1003C000C10085FDFCCF8091C00085FFF8CF9093E0
:1003D000C600E417F50791F7E0CFCF93DF931F92A4
:1003E000CDB7DEB79091C10095FDFCCF9091C000D4
:1003F00095FFF8CF9BE19093C6009091C10095FDC9
:10040000FCCF9091C00095FFF8CF9BE59093C6007C
:1004100090E069830E94D50069819091C10095FDAB
:10042000FCCF9091C00095FFF8CF8BE38093C6007E
:10043000862F90E00E94D5008091C10085FDFCCF01
:100440008091C00085FFF8CF88E48093C6000F90AC
:10045000DF91CF9108958091C10085FDFCCF8091FF
:10046000C00085FFF8CF8BE18093C6008091C1006A
:1004700085FDFCCF8091C00085FFF8CF8BE5809390
:10048000C6008091C10085FDFCCF8091C00085FF32
:10049000F8CF88E48093C60008959091C10095FD3F
:1004A000FCCF9091C00095FFF8CF9BE19093C600E0
:1004B0009091C10095FDFCCF9091C00095FFF8CFC1
:1004C0009BE59093C60090E00E94D5008091C1000A
:1004D00085FDFCCF8091C00085FFF8CF8DE680932D
:1004E000C60008958091C10085FDFCCF8091C000B9
:1004F00085FFF8CF8BE18093C6008091C10085FD18
:10050000FCCF8091C00085FFF8CF8BE58093C600BB
:1005100082E090E00E94D5008091C10085FDFCCF73
:100520008091C00085FFF8CF8AE48093C6000895CB
:10053000E4E2F0E0208120682083E5E2F0E0208121
:10054000206820830895E4E2F0E020812068208381
:10055000E5E2F0E020812F772083089578941F92C0
:100560000F920FB60F9211240BB60F922F933F9359
:100570004F935F936F937F938F939F93AF93BF93AB
:10058000CF93DF93EF93FF93FF91EF91DF91CF91A3
:10059000BF91AF919F918F917F916F915F914F919B
:1005A0003F912F910F900BBE0F900FBE0F901F9099
:1005B0001895EEE6F0E080818260808384B58260E9
:1005C00084BD85B5856085BD8CE987BD08952F9272
:1005D0003F924F925F926F927F928F929F92AF92D3
:1005E000BF92CF92DF92EF92FF920F931F93F0E0B2
:1005F000EDE5A080F0E0EEE5B080FB01A192B082D5
:10060000FC01C190D080F0E0EDE5C192D0821F9155
:100610000F91FF90EF90DF90CF90BF90AF909F90A1
:100620008F907F906F905F904F903F902F900895A4
:100630000C9497008F929F92AF92BF92CF92DF92CD
:10064000EF92FF920F931F93CF93DF9300D01F92EF
:10065000CDB7DEB759012EEAC22E22E0D22E00918C
:100660000A0210910B02F801EE0FFF1FEE0FFF1FA1
:10067000EE0FFF1F4F01800E911E9401245F3D4F2E
:100680007901F90192838183C501C2964B835C8312
:1006900069837A830E94EE03F7019087878395012F
:1006A000235E3F4F820F931F96838583F401EF5E95
:1006B000FD4F7A81708B698167875C8156874B819A
:1006C0004587C38AD28AF701B482A3820F5F1F4F86
:1006D00010930B0200930A020F900F900F900F904F
:1006E000DF91CF911F910F91FF90EF90DF90CF900E
:1006F000BF90AF909F908F900895089580910A02C7
:1007000090910B02019739F081E090E090930B02F9
:1007100080930A02089510920B0210920A02089523
:10072000CF93DF93CDB7DEB7C655D1090FB6F89496
:10073000DEBF0FBECDBF0E9418030E947D0384E17F
:10074000C82ED12CE12CF12C8FEFC81AD80AE80A58
:10075000F80A8AE090E0EFE3FCE93197F1F700C096
:1007600000000197C1F70E9498028AE090E0EFE351
:10077000FCE93197F1F700C000000197C1F70E9432
:10078000A302BE016A5F7F4FCB010E94E702C7014F
:10079000B6010E948801D8CFA1E21A2EAA1BBB1B6A
:1007A000FD010DC0AA1FBB1FEE1FFF1FA217B3073D
:1007B000E407F50720F0A21BB30BE40BF50B661F53
:1007C000771F881F991F1A9469F760957095809517
:1007D00090959B01AC01BD01CF010895CF93DF93AC
:1007E0008230910510F482E090E0E0916402F09193
:1007F000650220E030E0C0E0D0E0309711F14081A8
:10080000518148175907C0F04817590761F4828190
:100810009381209719F09B838A832BC09093650264
:100820008093640226C02115310519F04217530741
:1008300018F49A01BE01DF01EF010280F381E02D7F
:10084000DCCF2115310509F1281B390B2430310586
:1008500090F412968D919C9113976115710521F07A
:10086000FB019383828304C09093650280936402AA
:10087000FD01329644C0FD01E20FF31F8193919375
:10088000225031092D933C933AC02091620230915D
:100890006302232B41F42091020230910302309332
:1008A000630220936202209100023091010221151F
:1008B000310541F42DB73EB7409104025091050235
:1008C000241B350BE0916202F0916302E217F307FB
:1008D000A0F42E1B3F0B2817390778F0AC014E5FB0
:1008E0005F4F2417350748F04E0F5F1F5093630288
:1008F000409362028193919302C0E0E0F0E0CF0167
:10090000DF91CF9108950F931F93CF93DF930097BB
:1009100009F48CC0FC0132971382128200916402A8
:10092000109165020115110581F420813181820F3A
:10093000931F20916202309163022817390779F5DD
:10094000F0936302E093620271C0D80140E050E08E
:10095000AE17BF0750F412962D913C911397AD013D
:100960002115310509F1D901F3CF9D01DA01338356
:10097000228360817181860F971F8217930769F424
:10098000EC0128813981260F371F2E5F3F4F3183BD
:1009900020838A819B8193838283452B29F4F09362
:1009A0006502E093640242C01396FC93EE931297A3
:1009B000ED01499159919E01240F351FE217F3076C
:1009C00071F480819181840F951F029611969C93FA
:1009D0008E938281938113969C938E931297E0E07D
:1009E000F0E0D80112968D919C911397009719F021
:1009F000F8018C01F6CF8D919C9198012E5F3F4FAD
:100A0000820F931F209162023091630228173907E9
:100A100069F4309729F4109265021092640202C0C2
:100A2000138212821093630200936202DF91CF91CE
:100A30001F910F910895FB019F01423074F04532E0
:100A400064F4642F77270E941808805D8A330CF0C5
:100A5000895D8193CB010097A1F71082C9010C94A5
:100A600072070F931F93CF93DF93CDB7DEB72E9707
:100A70000FB6F894DEBF0FBECDBF0E891F8986E08A
:100A80008C831A8309838FEF9FE79E838D83AE014A
:100A9000465E5F4F688D798DCE0101960E9461059B
:100AA0002F813885F801E20FF31F10822E960FB6C2
:100AB000F894DEBF0FBECDBFDF91CF911F910F9194
:100AC00008952F923F924F925F926F927F928F92F2
:100AD0009F92AF92BF92CF92DF92EF92FF920F93CD
:100AE0001F93CF93DF93CDB7DEB72C970FB6F89453
:100AF000DEBF0FBECDBF7C016B018A01FC011782F6
:100B00001682838181FFBDC1CE0101964C01F701A0
:100B10009381F60193FD859193FF81916F01882365
:100B200009F4ABC1853239F493FD859193FF81912E
:100B30006F01853229F4B70190E00E948207E7CF68
:100B4000512C312C20E02032A0F48B3269F030F4AB
:100B5000803259F0833269F420612CC08D3239F033
:100B6000803339F4216026C02260246023C02860CD
:100B700021C027FD27C030ED380F3A3078F426FF2A
:100B800006C0FAE05F9E300D1124532E13C08AE098
:100B9000389E300D1124332E20620CC08E3221F489
:100BA00026FD6BC1206406C08C3611F4206802C09B
:100BB000883641F4F60193FD859193FF81916F0191
:100BC0008111C1CF982F9F7D9554933028F40C5FED
:100BD0001F4FFFE3F9830DC0833631F0833771F087
:100BE000833509F05BC022C0F801808189830E5FE4
:100BF0001F4F44244394512C540115C03801F2E096
:100C00006F0E711CF801A080B18026FF03C0652D16
:100C100070E002C06FEF7FEFC5012C870E9467076D
:100C20002C0183012C852F77222E17C03801F2E08A
:100C30006F0E711CF801A080B18026FF03C0652DE6
:100C400070E002C06FEF7FEFC5012C870E945C0748
:100C50002C012C852068222E830123FC1BC0832DB0
:100C600090E048165906B0F4B70180E290E00E9487
:100C700082073A94F4CFF50127FC859127FE8191F4
:100C80005F01B70190E00E94820731103A94F1E0D1
:100C90004F1A51084114510471F7E5C0843611F020
:100CA000893639F5F80127FF07C06081718182819B
:100CB00093810C5F1F4F08C060817181882777FD89
:100CC0008095982F0E5F1F4F2F76722E97FF09C0C9
:100CD00090958095709561957F4F8F4F9F4F2068BD
:100CE000722E2AE030E0A4010E94BA07A82EA818AC
:100CF00044C0853729F42F7EB22E2AE030E025C08B
:100D0000F22FF97FBF2E8F36C1F018F4883579F0B5
:100D1000B4C0803719F0883721F0AFC02F2F206181
:100D2000B22EB4FE0DC08B2D8460B82E09C024FFF6
:100D30000AC09F2F9660B92E06C028E030E005C09B
:100D400020E130E002C020E132E0F801B7FE07C048
:100D500060817181828193810C5F1F4F06C0608129
:100D6000718180E090E00E5F1F4FA4010E94BA07DE
:100D7000A82EA818FB2DFF777F2E76FE0BC0372DEF
:100D80003E7FA51450F474FE0AC072FC08C0372DD3
:100D90003E7E05C0BA2C372D03C0BA2C01C0B52C3D
:100DA00034FF0DC0FE01EA0DF11D8081803311F486
:100DB000397E09C032FF06C0B394B39404C0832FB8
:100DC000867809F0B39433FD13C030FF06C05A2C67
:100DD000B31418F4530C5B18B32CB31468F4B701B4
:100DE00080E290E03C870E948207B3943C85F5CF77
:100DF000B31410F43B1801C0312C34FF12C0B701FA
:100E000080E390E03C870E9482073C8532FF17C058
:100E100031FD03C088E790E002C088E590E0B701AB
:100E20000CC0832F867859F031FF02C08BE201C0DD
:100E300080E237FD8DE2B70190E00E948207A514A1
:100E400038F4B70180E390E00E9482075A94F7CF0C
:100E5000AA94F401EA0DF11D8081B70190E00E948F
:100E60008207A110F5CF332009F451CEB70180E2FB
:100E700090E00E9482073A94F6CFF701868197812D
:100E800002C08FEF9FEF2C960FB6F894DEBF0FBE17
:100E9000CDBFDF91CF911F910F91FF90EF90DF9029
:100EA000CF90BF90AF909F908F907F906F905F900A
:100EB0004F903F902F900895FC0105906150704035
:100EC0000110D8F7809590958E0F9F1F0895FC0113
:100ED0006150704001900110D8F7809590958E0F69
:100EE0009F1F0895DC01FC01672F71917723E1F7C3
:100EF000329704C07C916D9370836291AE17BF07E7
:100F0000C8F308950F931F93CF93DF93FB012381C1
:100F100021FD03C08FEF9FEF28C022FF16C046813E
:100F20005781248135814217530744F4A081B18150
:100F30009D012F5F3F4F318320838C932681378122
:100F40002F5F3F4F3783268310C0EB01092F182FE7
:100F50000084F185E02D1995892BE1F68E819F8122
:100F600001969F838E83812F902FDF91CF911F91C8
:100F70000F910895FA01AA27283051F1203181F10B
:100F8000E8946F936E7F6E5F7F4F8F4F9F4FAF4F91
:100F9000B1E03ED0B4E03CD0670F781F891F9A1FA4
:100FA000A11D680F791F8A1F911DA11D6A0F711D58
:100FB000811D911DA11D20D009F468943F912AE064
:100FC000269F11243019305D3193DEF6CF0108954C
:100FD000462F4770405D4193B3E00FD0C9F7F6CF7D
:100FE000462F4F70405D4A3318F0495D31FD405245
:100FF000419302D0A9F7EACFB4E0A69597958795DB
:1010000077956795BA95C9F70097610571050895B9
:101010009B01AC010A2E0694579547953795279565
:10102000BA95C9F7620F731F841F951FA01D0895FD
:10103000AA1BBB1B51E107C0AA1FBB1FA617B707FE
:1010400010F0A61BB70B881F991F5A95A9F780951A
:0C1050009095BC01CD010895F894FFCFED
:0A105C000000660220002558000085
:00000001FF
