:100000000C947E000C949F000C949F000C949F0015
:100010000C949F000C949F000C949F000C949F00E4
:100020000C949F000C949F000C949F000C949F00D4
:100030000C949F000C949F000C949F000C949F00C4
:100040000C949F000C94C7040C949F000C949F0088
:100050000C949F000C9424050C949F000C949F001A
:100060000C949F000C949F000C949F000C949F0094
:100070000C949F000C949F000C949F000C949F0084
:100080000C949F000C949F000C949F000C949F0074
:100090000C949F000C949F000C949F000C949F0064
:1000A0000C949F000C949F000C949F000C949F0054
:1000B0000C949F000C949F000C949F000C949F0044
:1000C0000C949F000C949F000C949F000C949F0034
:1000D0000C949F000C949F000C949F000C949F0024
:1000E0000C949F000C946C080C9466020C94C3044E
:1000F0000C9420020C94AE000C94A10011241FBE9D
:10010000CFEFD1E2DEBFCDBF00E00CBF13E0A0E037
:10011000B2E0E4E1FAE100E00BBF02C007900D920B
:10012000AC35B107D9F724E0ACE5B3E001C01D92CE
:10013000A432B207E1F70E946C080C94080D0C94ED
:10014000000085E090E00E94BA060E94AD0485E0C0
:1001500090E00E94BA060E94B804F3CFC0E0D0E05D
:1001600014E640911D0450911E049A01369527957E
:1001700036952795ABE7B4E10E94D8089695879508
:10018000189F9001199F300D11244217530709F44D
:1001900021960E94400482E392E00E94E102CE0197
:1001A0000E94F60260E070E083E090E00E940204AA
:1001B00080E492E00E94E10280911C0490E00E94A1
:1001C000F60260E070E084E090E00E94020484E5C2
:1001D00092E00E94E10280919E0390E00E94F6026C
:1001E00060E070E085E090E00E9402048FE592E01C
:1001F0000E94E10280919F039091A0030E94E1027E
:1002000060E070E086E090E00E9402048CE692E0FC
:100210000E94E1028EEA90E00E94F60260E070E047
:1002200087E090E00E94020487E792E00E94E102EA
:100230008091A1039091A2032091A3033091A40384
:10024000820F931F2091A5033091A603821B930B6D
:100250000E94F60260E070E088E090E00E940204F4
:1002600084E892E00E94E1028091A1039091A203B0
:100270000E94F60260E070E089E090E00E940204D3
:1002800086E992E00E94E1028091A3039091A40389
:100290000E94F60260E070E08AE090E00E940204B2
:1002A0008CEA92E00E94E1028091A5039091A6035E
:1002B0000E94F60260E070E08BE090E00E94020491
:1002C00088EB92E00E94E1022091A1033091A20309
:1002D0008091A5039091A603820F931F0E94F602BE
:1002E00060E070E08CE090E00E94020483EC92E019
:1002F0000E94E1028091A3039091A4030E94F60260
:1003000060E070E08EE090E00E94020484E592E0FC
:100310000E94E1028091AC0390E00E94F60260E04E
:1003200070E08FE090E00E9402048FE592E00E946E
:10033000E1028091AD039091AE030E94E10260E082
:1003400070E080E190E00E9402048CE692E00E945E
:10035000E10281EA90E00E94F60260E070E081E153
:1003600090E00E94020487E792E00E94E1028091FF
:10037000AF039091B0032091B1033091B203820F8B
:10038000931F2091B3033091B403821B930B0E94FF
:10039000F60260E070E082E190E00E94020484E8EE
:1003A00092E00E94E1028091AF039091B0030E941D
:1003B000F60260E070E083E190E00E94020486E9CA
:1003C00092E00E94E1028091B1039091B2030E94F9
:1003D000F60260E070E084E190E00E9402048CEAA2
:1003E00092E00E94E1028091B3039091B4030E94D5
:1003F000F60260E070E085E190E00E94020488EB84
:1004000092E00E94E1022091AF033091B00380910D
:10041000B3039091B403820F931F0E94F60260E031
:1004200070E086E190E00E94020483EC92E00E947A
:10043000E1028091B1039091B2030E94F60291CE45
:10044000CF93DF938FE190E00E94620460E570E05B
:100450008EE190E00E94020488EC92E00E94E102AA
:1004600080910202909103020E94F60285ED92E0D3
:100470000E94E10287ED92E00E94E1028091000279
:10048000909101020E94F60285ED92E00E94E10245
:1004900080915C038823A1F0C0E0D0E082EE92E07E
:1004A0000E94E102CE010E94F60285ED92E00E94D8
:1004B000E102219680915C0390E0C817D90774F39C
:1004C0008EE190E0DF91CF910C946204CAE014C0F9
:1004D00080935C038BE893E00E94AD0787E693E08E
:1004E0000E94AD0766E470E08CE090E00E94020498
:1004F00081E093E00E94E102809102029091030268
:100500000E94BA0684E993E00E948B078BE893E08F
:100510000E948B0766E470E08AE090E00E9402048B
:1005200089EE92E00E94E10280915C038F5F8B3044
:1005300078F2C0935C03CECF87E693E00E948B07EE
:100540008BE893E00E948B0780910002909101025A
:100550000E94BA0680915C03815080935C038BE813
:1005600093E00E94AD0784E993E00E94AD07E4CFD9
:1005700082E08093C0001092C50080E18093C400A7
:10058000E1ECF0E080818861808308958091C00073
:10059000881F8827881F08958091C00087FD02C0AA
:1005A0008FEF08958091C60008959091C10095FD48
:1005B000FCCF9091C00095FFF8CF8093C60081E0FA
:1005C0000895FC012081222371F031968091C100B1
:1005D00085FDFCCF8091C00085FFF8CF2093C60039
:1005E00021912111F3CF80E090E00895CF93DF9324
:1005F00000D01F921F92CDB7DEB74AE0BE016F5FF9
:100600007F4F0E940E0ACE0101960E94E1020F90D8
:100610000F900F900F900F90DF91CF9108958F92D0
:100620009F92AF92BF92CF92DF92EF92FF920F9381
:100630001F93CF93DF93CDB7DEB72A970FB6F89409
:10064000DEBF0FBECDBF6115710581059105A1F11A
:100650009E012F5F3F4F6901790100E010E02AE021
:10066000822E912CA12CB12CA50194010E94B608D8
:10067000605DF70161937F01B901CA010F5F1F4FF0
:10068000611571058105910579F7F8013196EC0D39
:10069000FD1D92918091C10085FDFCCF8091C0002D
:1006A00085FFF8CF9093C600EC15FD0591F710C0BB
:1006B0008091C00085FD09C08091C10085FFF8CF01
:1006C0008091C10085FDF8CFF3CF80E38093C60011
:1006D0002A960FB6F894DEBF0FBECDBFDF91CF9143
:1006E0001F910F91FF90EF90DF90CF90BF90AF9050
:1006F0009F908F9008950F931F93CF93DF93CDB763
:10070000DEB72A970FB6F894DEBF0FBECDBF9F931A
:100710008F938BE193E09F938F938E010F5F1F4F19
:100720001F930F930E94280AC8010E94E1020F90B4
:100730000F900F900F900F900F902A960FB6F8948D
:10074000DEBF0FBECDBFDF91CF911F910F910895F6
:10075000CF93DF93CDB7DEB72A970FB6F894DEBFFD
:100760000FBECDBF611571058105910521F1AE0167
:100770004F5F5F4FDA01E0E0F0E010C0205D2C93A6
:1007800034E096958795779567953A95D1F73196A8
:100790001196611571058105910511F19B012F706D
:1007A00033272A30310554F3295C2C93E9CF80910B
:1007B000C00085FD09C08091C10085FFF8CF809100
:1007C000C10085FDF8CFF3CF80E38093C6002A9661
:1007D0000FB6F894DEBF0FBECDBFDF91CF91089565
:1007E0003196E40FF51F92918091C10085FDFCCFF9
:1007F0008091C00085FFF8CF9093C600E417F507FD
:1008000091F7E5CFCF93DF931F92CDB7DEB79091ED
:10081000C10095FDFCCF9091C00095FFF8CF9BE102
:100820009093C6009091C10095FDFCCF9091C000BF
:1008300095FFF8CF9BE59093C60090E069830E94F6
:10084000F60269819091C10095FDFCCF9091C000A6
:1008500095FFF8CF8BE38093C600862F90E00E942F
:10086000F6028091C10085FDFCCF8091C00085FF1C
:10087000F8CF88E48093C6000F90DF91CF91089560
:100880008091C10085FDFCCF8091C00085FFF8CF2D
:100890008BE18093C6008091C10085FDFCCF8091E3
:1008A000C00085FFF8CF8BE58093C6008091C10022
:1008B00085FDFCCF8091C00085FFF8CF88E4809350
:1008C000C60008959091C10095FDFCCF9091C000A5
:1008D00095FFF8CF9BE19093C6009091C10095FDE4
:1008E000FCCF9091C00095FFF8CF9BE59093C60098
:1008F00090E00E94F6028091C10085FDFCCF8091BE
:10090000C00085FFF8CF8DE68093C60008958091E2
:10091000C10085FDFCCF8091C00085FFF8CF8BE141
:100920008093C6008091C10085FDFCCF8091C000FE
:1009300085FFF8CF8BE58093C60082E090E00E94AF
:10094000F6028091C10085FDFCCF8091C00085FF3B
:10095000F8CF8AE48093C6000895E4E2F0E02081B5
:1009600020682083E5E2F0E020812068208308955C
:10097000E4E2F0E0208120682083E5E2F0E02081DD
:100980002F77208308957894C201F10109941F9272
:100990000F920FB60F9211240F900FBE0F901F9061
:1009A0001895EEE6F0E080818260808384B58260F5
:1009B00084BD85B5856085BD8CE987BD89E09DE3F3
:1009C0009093890080938800EFE6F0E08081826058
:1009D0008083E1E8F0E080818D60808308952F922C
:1009E0003F924F925F926F927F928F929F92AF92BF
:1009F000BF92CF92DF92EF92FF920F931F93CF930C
:100A0000DF93F0E0EDE5A080F0E0EEE5B080FB01E3
:100A1000A192B082FC01C190D080F0E0EDE5C192DE
:100A2000D082DF91CF911F910F91FF90EF90DF90D7
:100A3000CF90BF90AF909F908F907F906F905F907E
:100A40004F903F902F9008951F920F920FB60F92E4
:100A500011240BB60F922F933F934F935F936F9395
:100A60007F938F939F93AF93BF93EF93FF93809167
:100A70001D0490911E04019690931E0480931D0402
:100A800080915D03853009F479C080915D03809386
:100A90009D03E9EAF3E021E08081823041F13E9656
:100AA00083E0EF3EF807C1F780915D0390E040914D
:100AB0005D0350E015C09C01220F331FF901EE0FBA
:100AC000FF1FEE0FFF1FEE0FFF1FE21BF30BE2569F
:100AD000FC4F23852130A9F04817590709F44BC072
:100AE00001968530910539F780E090E0E4CF81816F
:100AF0009281009711F42083D2CF01979283818352
:100B0000CECF80935D0380915D0380931F0466E4E4
:100B100070E080E090E00E9402048EE193E00E9489
:100B2000E10280915D0390E00E94F60260919D03D6
:100B300080911F049EE0699FB00111246D557C4F88
:100B40002EE0829FC00111248D559C4F0E94EF041E
:100B5000FF91EF91BF91AF919F918F917F916F9195
:100B60005F914F913F912F910F900BBE0F900FBE51
:100B70000F901F90189580915D03C7CF10925D0371
:100B800084CF10921C0410921E0410921D040C9429
:100B9000B802CF92DF92FF920F931F93CF93DF9310
:100BA00000D01F92CDB7DEB7690122E3C20ED11C7F
:100BB00003EC14E0E0915D03AEE0EA9FF001112444
:100BC000E256FC4F92838183F0905D03C6014B8314
:100BD0005C8369837A830E94E708BEE0FB9EF00194
:100BE0001124E256FC4F90878783E0915D03A0912A
:100BF0005D032EE0E29FF0011124E256FC4F8EE0EF
:100C0000A89FD0011124A256BC4F17968D919C919C
:100C1000189701978C0D9D1D96838583E0915D0348
:100C2000A0915D039EE0E99FF0011124E256FC4F84
:100C30002EE0A29FD0011124A256BC4F15968D9193
:100C40009C911697469796838583E0915D038EE08D
:100C5000E89FF0011124E256FC4F0580F681E02D5B
:100C60007A81718B6981628B5C8157874B81408B64
:100C7000058B148B138AE0915D0380915D039EE0E8
:100C8000E99FF0011124E256FC4F8083E0915D035F
:100C9000AEE0EA9FF0011124E256FC4FD482C382F9
:100CA000E0915D03BEE0EB9FF0011124E256FC4FA2
:100CB00081E08387ECE1F4E080818F5F8083809125
:100CC0005D038F5F80935D030F900F900F900F90E7
:100CD000DF91CF911F910F91FF90DF90CF900895FA
:100CE0000E94D10478946FEB73E083EA93E00E9452
:100CF000EF04089580915D0390E040915D0350E022
:100D000014C09C01220F331FF901EE0FFF1FEE0FDD
:100D1000FF1FEE0FFF1FE21BF30BE256FC4F238574
:100D2000213051F08417950761F0019685309105C7
:100D300041F780E090E0E5CF80935D0380915D0313
:100D4000089580915D030895E9EAF3E021E0808150
:100D5000823031F03E9683E0EF3EF807C1F7089508
:100D600081819281009711F42083F4CF01979283BF
:100D70008183F0CF81309105A9F0E0915D032EE0F1
:100D8000E29FF0011124E256FC4F22E02387E0911C
:100D90005D032EE0E29FF0011124E256FC4F95879F
:100DA0008487089580915D0380939D0380915D0306
:100DB00090E040915D0350E014C09C01220F331F6E
:100DC000F901EE0FFF1FEE0FFF1FEE0FFF1FE21BDB
:100DD000F30BE256FC4F2385213051F04817590799
:100DE00001F101968530910541F780E090E0E5CF73
:100DF00080935D0380915D0380931F0460919D0348
:100E000080911F042EE0629FB00111246D557C4F2C
:100E10002EE0829FC00111248D559C4F0E94EF044B
:100E2000089580915D03E8CFFC0181E08083168204
:100E3000178285E0808708951F93CF93DF93EC019D
:100E4000F89488818823D1F08F8111E0180F98855C
:100E50001917D0F49E819117C9F090915D03FE019E
:100E6000E80FF11D9183E0915D038EE0E89FF001B2
:100E70001124E256FC4F83E083871F831882789405
:100E8000DF91CF911F91089510E0E4CF62E370E00D
:100E900082E390E00E94020489E293E00E94E10272
:100EA0008F81DBCFCF93DF93EC01F8948E81FE012D
:100EB000E80FF11DE18181E088839EE0E99FF00168
:100EC0001124E256FC4F83878E819F81981751F041
:100ED0008F5F9885891708F080E08E837894DF9182
:100EE000CF91089562E370E087E390E00E940204EE
:100EF00088E393E00E94E1028E81EACFFC01158233
:100F00001682678385E080878EE480838183828375
:100F10008383848308950F931F93CF93DF938C0172
:100F2000F894FC01878181508783C0E0D0E068E2BB
:100F300070E0CE0144960E940204F801EC0FFD1F00
:100F4000808190E00E94F6022196C530D10579F7A4
:100F5000DF91CF911F910F910895CF93DF93EC0113
:100F6000F8948D81FE01E80FF11DE0818F818F5F84
:100F70008F83811111C08EE0E89FF0011124E256A9
:100F8000FC4F81E083878D819E81981759F08F5F98
:100F90009885891728F48D837894DF91CF910895EF
:100FA00080E0F9CF62E370E081E490E00E94020407
:100FB00088E393E00E94E1028D81E9CFCF93DF9334
:100FC000EC01F8948D81FE01E80FF11D90818F8175
:100FD0008F5F8F83811134C02EE0929FF001112426
:100FE000E256FC4F1386E0915D038EE0E89FF0012E
:100FF0001124E256FC4F81E0838780915D0380934A
:101000009D0390931F0490935D038D819E8198179B
:10101000E9F08F5F98858917B8F48D8360919D03FF
:1010200080911F049EE0699FB00111246D557C4F93
:101030002EE0829FC00111248D559C4F0E94EF0429
:101040007894DF91CF91089580E0E7CF60E070E081
:1010500086E490E00E9402048EE393E00E94E102A5
:101060008D81D7CF60915D0380915D0390E04091C9
:101070005D0350E014C09C01220F331FF901EE0FF5
:10108000FF1FEE0FFF1FEE0FFF1FE21BF30BE256D9
:10109000FC4F2385213051F048175907D1F00196B4
:1010A0008530910541F780E090E0E5CF80935D03C6
:1010B00080915D032EE0629FB00111246D557C4F3D
:1010C0002EE0829FC00111248D559C4F0E94EF0499
:1010D000089580915D03EECF0E94C10522E330E0C8
:1010E00040E050E06EEA70E08AE092E00E94C905BC
:1010F00022E330E040E050E061EA70E080E192E01D
:101100000E94C90522E330E040E050E06CE678E060
:1011100086E192E00E94C90522E330E040E050E021
:1011200060E272E08BE192E00E94C90522E330E0C8
:1011300040E050E066E672E082E193E00E94C9057B
:101140006AE070E084E993E00E947E0760E070E06E
:1011500087E693E00E947E0761E070E08BE893E011
:101160000E947E070E9470067894FFCFA1E21A2E9B
:10117000AA1BBB1BFD010DC0AA1FBB1FEE1FFF1F3B
:10118000A217B307E407F50720F0A21BB30BE40B8B
:10119000F50B661F771F881F991F1A9469F76095D2
:1011A0007095809590959B01AC01BD01CF0108958C
:1011B000A29FB001B39FC001A39F700D811D112498
:1011C000911DB29F700D811D1124911D0895CF9323
:1011D000DF938230910510F482E090E0E0912204E8
:1011E000F091230420E030E0A0E0B0E0309739F146
:1011F0004081518148175907B8F04817590771F4D1
:1012000082819381109729F013969C938E93129765
:101210002CC0909323048093220427C0211531050C
:1012200031F04217530718F0A901DB0101C0EF01AB
:101230009A01BD01DF010280F381E02DD7CF211596
:101240003105F9F0281B390B2430310580F48A81EF
:101250009B816115710521F0FB019383828304C09A
:101260009093230480932204FE01329644C0FE0131
:10127000E20FF31F81939193225031093983288320
:101280003AC02091200430912104232B41F4209175
:10129000060230910702309321042093200420910C
:1012A0000402309105022115310541F42DB73EB7F6
:1012B0004091080250910902241B350BE091200453
:1012C000F0912104E217F307A0F42E1B3F0B28171F
:1012D000390778F0AC014E5F5F4F2417350748F0AF
:1012E0004E0F5F1F509321044093200481939193EC
:1012F00002C0E0E0F0E0CF01DF91CF910895CF93FD
:10130000DF93009709F487C0FC01329713821282A1
:10131000C0912204D0912304209781F4208131814F
:10132000280F391F80912004909121048217930780
:1013300079F5F0932104E09320046DC0DE0120E0F4
:1013400030E0AE17BF0750F412964D915C911397A1
:101350009D014115510509F1DA01F3CFB383A28351
:1013600040815181840F951F8A179B0771F48D91DD
:101370009C911197840F951F0296918380831296FA
:101380008D919C911397938382832115310529F4C4
:10139000F0932304E09322043EC0D9011396FC93FA
:1013A000EE9312974D915D91A40FB51FEA17FB07BD
:1013B00079F480819181840F951F0296D90111964D
:1013C0009C938E938281938113969C938E93129714
:1013D000E0E0F0E08A819B81009719F0FE01EC01CA
:1013E000F9CFCE01029628813981820F931F209177
:1013F0002004309121042817390769F4309729F423
:10140000109223041092220402C013821282D093FD
:101410002104C0932004DF91CF910895BB27FB01E5
:101420005527AA27880F991FAA1FA41710F0A41BDD
:1014300083955051B9F7A05DAA3308F0A95DA19337
:10144000009779F7B111B1931192CB010C94680C0C
:101450000F931F93CF93DF93CDB7DEB72E970FB6C1
:10146000F894DEBF0FBECDBF0E891F8986E08C8346
:101470001A8309838FEF9FE79E838D83AE01465EBB
:101480005F4F688D798DCE0101960E94570AEF81DA
:10149000F885E00FF11F10822E960FB6F894DEBF8C
:1014A0000FBECDBFDF91CF911F910F9108952F9265
:1014B0003F924F925F926F927F928F929F92AF92E4
:1014C000BF92CF92DF92EF92FF920F931F93CF9331
:1014D000DF93CDB7DEB72C970FB6F894DEBF0FBE03
:1014E000CDBF7C016B018A01FC01178216828381CA
:1014F00081FFBDC1CE0101964C01F7019381F60138
:1015000093FD859193FF81916F01882309F4ABC10D
:10151000853239F493FD859193FF81916F01853276
:1015200029F4B70190E00E94780CE7CF512C312CC0
:1015300020E02032A0F48B3269F030F4803259F090
:10154000833269F420612CC08D3239F0803339F454
:10155000216026C02260246023C0286021C027FDAE
:1015600027C030ED380F3A3078F426FF06C0FAE095
:101570005F9E300D1124532E13C08AE0389E300D2B
:101580001124332E20620CC08E3221F426FD6BC153
:10159000206406C08C3611F4206802C0883641F4FD
:1015A000F60193FD859193FF81916F018111C1CF68
:1015B000982F9F7D9554933028F40C5F1F4FFFE3C5
:1015C000F9830DC0833631F0833771F0833509F02C
:1015D0005BC022C0F801808189830E5F1F4F4424C5
:1015E0004394512C540115C03801F2E06F0E711C68
:1015F000F801A080B18026FF03C0652D70E002C015
:101600006FEF7FEFC5012C870E945D0C2C018301D9
:101610002C852F77222E17C03801F2E06F0E711C37
:10162000F801A080B18026FF03C0652D70E002C0E4
:101630006FEF7FEFC5012C870E94520C2C012C8587
:101640002068222E830123FC1BC0832D90E04816C6
:101650005906B0F4B70180E290E00E94780C3A9409
:10166000F4CFF50127FC859127FE81915F01B70139
:1016700090E00E94780C31103A94F1E04F1A510832
:101680004114510471F7E5C0843611F0893639F5FB
:10169000F80127FF07C060817181828193810C5F0F
:1016A0001F4F08C060817181882777FD8095982F32
:1016B0000E5F1F4F2F76B22E97FF09C09095809531
:1016C000709561957F4F8F4F9F4F2068B22E2AE013
:1016D00030E0A4010E94AA0CA82EA81844C08537A7
:1016E00029F42F7EB22E2AE030E025C0F22FF97FB8
:1016F000BF2E8F36C1F018F4883579F0B4C080372A
:1017000019F0883721F0AFC02F2F2061B22EB4FE20
:101710000DC08B2D8460B82E09C024FF0AC09F2FF6
:101720009660B92E06C028E030E005C020E130E028
:1017300002C020E132E0F801B7FE07C0608171818C
:10174000828193810C5F1F4F06C06081718180E0B0
:1017500090E00E5F1F4FA4010E94AA0CA82EA818AB
:10176000FB2DFF77BF2EB6FE0BC02B2D2E7FA514B1
:1017700050F4B4FE0AC0B2FC08C02B2D2E7E05C06A
:101780007A2C2B2D03C07A2C01C0752C24FF0DC0A0
:10179000FE01EA0DF11D8081803311F4297E09C01C
:1017A00022FF06C07394739404C0822F867809F0D8
:1017B000739423FD13C020FF06C05A2C731418F431
:1017C000530C5718732C731468F4B70180E290E03F
:1017D0002C870E94780C73942C85F5CF731410F429
:1017E000371801C0312C24FF12C0B70180E390E00C
:1017F0002C870E94780C2C8522FF17C021FF03C084
:1018000088E590E002C088E790E0B7010CC0822F25
:10181000867859F021FD02C080E201C08BE227FDED
:101820008DE2B70190E00E94780CA51438F4B7015E
:1018300080E390E00E94780C5A94F7CFAA94F401C8
:10184000EA0DF11D8081B70190E00E94780CA11093
:10185000F5CF332009F451CEB70180E290E00E9429
:10186000780C3A94F6CFF7018681978102C08FEF0A
:101870009FEF2C960FB6F894DEBF0FBECDBFDF9161
:10188000CF911F910F91FF90EF90DF90CF90BF907D
:10189000AF909F908F907F906F905F904F903F9010
:1018A0002F900895FC010590615070400110D8F709
:1018B000809590958E0F9F1F0895FC016150704098
:1018C00001900110D8F7809590958E0F9F1F089575
:1018D000DC01FC01672F71917723E1F7329704C097
:1018E0007C916D9370836291AE17BF07C8F3089522
:1018F0000F931F93CF93DF93182F092FEB018B8149
:1019000081FD03C08FEF9FEF20C082FF10C04E818A
:101910005F812C813D81421753077CF4E881F98176
:101920009F012F5F3F4F39832883108306C0E885CE
:10193000F985812F1995892B29F72E813F812F5FFA
:101940003F4F3F832E83812F902FDF91CF911F91A7
:101950000F910895FA01AA27283051F1203181F121
:10196000E8946F936E7F6E5F7F4F8F4F9F4FAF4FA7
:10197000B1E03ED0B4E03CD0670F781F891F9A1FBA
:10198000A11D680F791F8A1F911DA11D6A0F711D6E
:10199000811D911DA11D20D009F468943F912AE07A
:1019A000269F11243019305D3193DEF6CF01089562
:1019B000462F4770405D4193B3E00FD0C9F7F6CF93
:1019C000462F4F70405D4A3318F0495D31FD40525B
:1019D000419302D0A9F7EACFB4E0A69597958795F1
:1019E00077956795BA95C9F70097610571050895D0
:1019F0009B01AC010A2E069457954795379527957C
:101A0000BA95C9F7620F731F841F951FA01D089513
:041A1000F894FFCF78
:101A14006400640000002404200073746174730083
:101A2400626C696E6B006D61696E00646973706CE1
:101A340061795F626F756E6465645F627566666521
:101A4400720053797374656D2054696D653A200092
:101A54004E756D626572206F66207468726561648C
:101A6400733A20005468726561642049443A005412
:101A74006872656164204E616D653A0054687265F0
:101A840061642050433A00537461636B2055736161
:101A940067653A00546F74616C20537461636B2002
:101AA40053697A653A0043757272656E7420746F77
:101AB40070206F6620537461636B3A0053746163E2
:101AC4006B20626173653A00537461636B20656EC9
:101AD400643A0053503A200050726F64756374691D
:101AE4006F6E3A20000A00436F6E73756D65723A2B
:101AF40020004974656D3A20007765206172652085
:101B04006F7574206F662073656D5F776169747398
:101B14000077652061726520646F6E652077697453
:101B2400682070726F64756365720025580054688C
:101B3400726561644E756D3A004275666665722021
:101B440069732066756C6C00656D70747900736FD1
:101B54006D657468696E672077656972642069735E
:0C1B64002068617070656E696E6700009B
:00000001FF
