:100000000C9480000C94A1000C94A1000C94A1000D
:100010000C94A1000C94A1000C94A1000C94A100DC
:100020000C94A1000C94A1000C94A1000C94A100CC
:100030000C94A1000C94A1000C94A1000C94A100BC
:100040000C94A1000C94B7040C94A1000C94A10092
:100050000C94A1000C9414050C94A1000C94A10024
:100060000C94A1000C94A1000C94A1000C94A1008C
:100070000C94A1000C94A1000C94A1000C94A1007C
:100080000C94A1000C94A1000C94A1000C94A1006C
:100090000C94A1000C94A1000C94A1000C94A1005C
:1000A0000C94A1000C94A1000C94A1000C94A1004C
:1000B0000C94A1000C94A1000C94A1000C94A1003C
:1000C0000C94A1000C94A1000C94A1000C94A1002C
:1000D0000C94A1000C94A1000C94A1000C94A1001C
:1000E0000C94A1000C948C020C9449080C94B30459
:1000F0000C94B0000C9424020C94A3000C946A029B
:1001000011241FBECFEFD1E2DEBFCDBF00E00CBF98
:1001100013E0A0E0B2E0E2EEF9E100E00BBF02C0C4
:1001200007900D92AA33B107D9F724E0AAE3B3E010
:1001300001C01D92A930B207E1F70E9449080C9452
:10014000EF0C0C94000085E090E00E94B6060E943F
:100150009D0485E090E00E94B6060E94A804F3CFBB
:100160000E947704C0E0D0E014E640910204509170
:1001700003049A013695279536952795ABE7B4E1A8
:100180000E94BF0896958795189F9001199F300D82
:1001900011244217530709F421960E94300484E485
:1001A00092E00E94D102CE010E94E60260E070E07F
:1001B00083E090E00E94F20382E592E00E94D10287
:1001C0008091010490E00E94E60260E070E084E02B
:1001D00090E00E94F20386E692E00E94D1028091B4
:1001E000830390E00E94E60260E070E085E090E02A
:1001F0000E94F20381E792E00E94D1028091840381
:10020000909185030E94D10260E070E086E090E06A
:100210000E94F2038EE792E00E94D10280EB90E010
:100220000E94E60260E070E087E090E00E94F20346
:1002300089E892E00E94D102809186039091870321
:100240002091880330918903820F931F20918A03A4
:1002500030918B03821B930B0E94E60260E070E0FA
:1002600088E090E00E94F20386E992E00E94D102C9
:1002700080918603909187030E94E60260E070E01F
:1002800089E090E00E94F20388EA92E00E94D102A5
:1002900080918803909189030E94E60260E070E0FB
:1002A0008AE090E00E94F2038EEB92E00E94D1027D
:1002B00080918A0390918B030E94E60260E070E0D7
:1002C0008BE090E00E94F2038AEC92E00E94D1025F
:1002D000209186033091870380918A0390918B034C
:1002E000820F931F0E94E60260E070E08CE090E0D5
:1002F0000E94F20385ED92E00E94D1028091880372
:10030000909189030E94E60260E070E08EE090E048
:100310000E94F20386E692E00E94D102809191034E
:1003200090E00E94E60260E070E08FE090E00E94C2
:10033000F20381E792E00E94D102809192039091B2
:1003400093030E94D10260E070E080E190E00E949F
:10035000F2038EE792E00E94D10283EA90E00E94CD
:10036000E60260E070E081E190E00E94F20389E83B
:1003700092E00E94D1028091940390919503209184
:10038000960330919703820F931F20919803309129
:100390009903821B930B0E94E60260E070E082E109
:1003A00090E00E94F20386E992E00E94D1028091DF
:1003B0009403909195030E94E60260E070E083E16F
:1003C00090E00E94F20388EA92E00E94D1028091BC
:1003D0009603909197030E94E60260E070E084E14A
:1003E00090E00E94F2038EEB92E00E94D102809195
:1003F0009803909199030E94E60260E070E085E125
:1004000090E00E94F2038AEC92E00E94D1022091D7
:100410009403309195038091980390919903820FF2
:10042000931F0E94E60260E070E086E190E00E9487
:10043000F20385ED92E00E94D102809196039091A3
:1004400097030E94E60291CECF93DF938FE190E075
:100450000E94520460E570E089E190E00E94F2039E
:100460008AED92E00E94D1028091020290910302F3
:100470000E94E60260E570E08BE190E00E94F203EA
:1004800087EE92E00E94D1028091000290910102D9
:100490000E94E60280913A038823B1F0C0E0D0E0E8
:1004A00060E570E0CE014E960E94F20382EF92E08A
:1004B0000E94D102CE010E94E602219680913A0369
:1004C00090E0C817D90764F38EE190E0DF91CF91F7
:1004D0000C945204CAE00AC080933A038EE693E07B
:1004E0000E948E0786E493E00E948E0780910202AC
:1004F000909103020E94B60688E793E00E94880765
:100500008EE693E00E94880780913A038F5F8B30DC
:1005100018F3C0933A03E2CF86E493E00E94880781
:100520008EE693E00E94880780910002909101027C
:100530000E94B60680913A03815080933A038EE67A
:1005400093E00E948E0788E793E00E948E07E4CF35
:1005500082E08093C0001092C50080E18093C400C7
:10056000E1ECF0E080818861808308958091C00093
:10057000881F8827881F08958091C00087FD02C0CA
:100580008FEF08958091C60008959091C10095FD68
:10059000FCCF9091C00095FFF8CF8093C60081E01A
:1005A0000895FC012081222371F031968091C100D1
:1005B00085FDFCCF8091C00085FFF8CF2093C60059
:1005C00021912111F3CF80E090E00895CF93DF9344
:1005D00000D01F921F92CDB7DEB74AE0BE016F5F19
:1005E0007F4F0E94F509CE0101960E94D1020F9023
:1005F0000F900F900F900F90DF91CF9108958F92F1
:100600009F92AF92BF92CF92DF92EF92FF920F93A1
:100610001F93CF93DF93CDB7DEB72A970FB6F89429
:10062000DEBF0FBECDBF6115710581059105A1F13A
:100630009E012F5F3F4F6901790100E010E02AE041
:10064000822E912CA12CB12CA50194010E949D0811
:10065000605DF70161937F01B901CA010F5F1F4F10
:10066000611571058105910579F7F8013196EC0D59
:10067000FD1D92918091C10085FDFCCF8091C0004D
:1006800085FFF8CF9093C600EC15FD0591F710C0DB
:100690008091C00085FD09C08091C10085FFF8CF21
:1006A0008091C10085FDF8CFF3CF80E38093C60031
:1006B0002A960FB6F894DEBF0FBECDBFDF91CF9163
:1006C0001F910F91FF90EF90DF90CF90BF90AF9070
:1006D0009F908F9008950F931F93CF93DF93CDB783
:1006E000DEB72A970FB6F894DEBF0FBECDBF9F933B
:1006F0008F9389EF92E09F938F938E010F5F1F4F2F
:100700001F930F930E940F0AC8010E94D1020F90FD
:100710000F900F900F900F900F902A960FB6F894AD
:10072000DEBF0FBECDBFDF91CF911F910F91089516
:10073000CF93DF93CDB7DEB72A970FB6F894DEBF1D
:100740000FBECDBF611571058105910521F1AE0187
:100750004F5F5F4FDA01E0E0F0E010C0205D2C93C6
:1007600034E096958795779567953A95D1F73196C8
:100770001196611571058105910511F19B012F708D
:1007800033272A30310554F3295C2C93E9CF80912B
:10079000C00085FD09C08091C10085FFF8CF809120
:1007A000C10085FDF8CFF3CF80E38093C6002A9681
:1007B0000FB6F894DEBF0FBECDBFDF91CF91089585
:1007C0003196E40FF51F92918091C10085FDFCCF19
:1007D0008091C00085FFF8CF9093C600E417F5071D
:1007E00091F7E5CFCF93DF931F92CDB7DEB790910E
:1007F000C10095FDFCCF9091C00095FFF8CF9BE123
:100800009093C6009091C10095FDFCCF9091C000DF
:1008100095FFF8CF9BE59093C60090E069830E9416
:10082000E60269819091C10095FDFCCF9091C000D6
:1008300095FFF8CF8BE38093C600862F90E00E944F
:10084000E6028091C10085FDFCCF8091C00085FF4C
:10085000F8CF88E48093C6000F90DF91CF91089580
:100860008091C10085FDFCCF8091C00085FFF8CF4D
:100870008BE18093C6008091C10085FDFCCF809103
:10088000C00085FFF8CF8BE58093C6008091C10042
:1008900085FDFCCF8091C00085FFF8CF88E4809370
:1008A000C60008959091C10095FDFCCF9091C000C5
:1008B00095FFF8CF9BE19093C6009091C10095FD04
:1008C000FCCF9091C00095FFF8CF9BE59093C600B8
:1008D00090E00E94E6028091C10085FDFCCF8091EE
:1008E000C00085FFF8CF8DE68093C6000895809103
:1008F000C10085FDFCCF8091C00085FFF8CF8BE162
:100900008093C6008091C10085FDFCCF8091C0001E
:1009100085FFF8CF8BE58093C60082E090E00E94CF
:10092000E6028091C10085FDFCCF8091C00085FF6B
:10093000F8CF8AE48093C6000895E4E2F0E02081D5
:1009400020682083E5E2F0E020812068208308957C
:10095000E4E2F0E0208120682083E5E2F0E02081FD
:100960002F77208308957894C201F10109941F9292
:100970000F920FB60F9211240F900FBE0F901F9081
:100980001895EEE6F0E080818260808384B5826015
:1009900084BD85B5856085BD8CE987BD89E09DE313
:1009A0009093890080938800EFE6F0E08081826078
:1009B0008083E1E8F0E080818D60808308952F924C
:1009C0003F924F925F926F927F928F929F92AF92DF
:1009D000BF92CF92DF92EF92FF920F931F93CF932C
:1009E000DF93F0E0EDE5A080F0E0EEE5B080FB0104
:1009F000A192B082FC01C190D080F0E0EDE5C192FF
:100A0000D082DF91CF911F910F91FF90EF90DF90F7
:100A1000CF90BF90AF909F908F907F906F905F909E
:100A20004F903F902F9008951F920F920FB60F9204
:100A300011240BB60F922F933F934F935F936F93B5
:100A40007F938F939F93AF93BF93EF93FF93809187
:100A5000020490910304019690930304809302048E
:100A600080913B03863009F47EC080913B038093E4
:100A70008203EEE8F3E021E005C03E9683E0E23E2B
:100A8000F80769F080818230C1F7818192810097F7
:100A900049F520833E9683E0E23EF80799F780917E
:100AA0003B0390E040913B0350E015C09C01220FB6
:100AB000331FF901EE0FFF1FEE0FFF1FEE0FFF1F99
:100AC000E21BF30BED57FC4F2385213079F04817DB
:100AD000590709F445C001968630910539F780E041
:100AE00090E0E4CF019792838183C7CF80933B034B
:100AF00080913B038093040466E470E080E090E022
:100B00000E94F2038CEF92E00E94D10280913B039D
:100B100090E00E94E60260918203809104049EE0CE
:100B2000699FB001112468577C4F2EE0829FC0015D
:100B3000112488579C4F0E94DF04FF91EF91BF91D1
:100B4000AF919F918F917F916F915F914F913F9165
:100B50002F910F900BBE0F900FBE0F901F90189506
:100B600080913B03C7CF10923B037FCF10920104CB
:100B700010920304109202040C94A802CF92DF9208
:100B8000FF920F931F93CF93DF9300D01F92CDB7A7
:100B9000DEB7690122E3C20ED11C03EB14E0E09141
:100BA0003B03AEE0EA9FF0011124ED57FC4F928326
:100BB0008183F0903B03C6014B835C8369837A8316
:100BC0000E94CE08BEE0FB9EF0011124ED57FC4FC1
:100BD00090878783E0913B03A0913B032EE0E29F47
:100BE000F0011124ED57FC4F8EE0A89FD001112495
:100BF000AD57BC4F17968D919C91189701978C0D0E
:100C00009D1D96838583E0913B03A0913B039EE06D
:100C1000E99FF0011124ED57FC4F2EE0A29FD00177
:100C20001124AD57BC4F15968D919C911697469700
:100C300096838583E0913B038EE0E89FF0011124C9
:100C4000ED57FC4F0580F681E02D7A81718B69812B
:100C5000628B5C8157874B81408B058B148B138A89
:100C6000E0913B0380913B039EE0E99FF00111245A
:100C7000ED57FC4F8083E0913B03AEE0EA9FF0012B
:100C80001124ED57FC4FD482C382E0913B03BEE0B8
:100C9000EB9FF0011124ED57FC4F81E08387E1E0E9
:100CA000F4E080818F5F808380913B038F5F80932E
:100CB0003B030F900F900F900F90DF91CF911F91FA
:100CC0000F91FF90DF90CF9008950E94C104789417
:100CD0000E94770464EA73E088E893E00E94DF04EE
:100CE000089580913B0390E040913B0350E014C095
:100CF0009C01220F331FF901EE0FFF1FEE0FFF1FA4
:100D0000EE0FFF1FE21BF30BED57FC4F2385213045
:100D100051F08417950761F001968630910541F7EF
:100D200080E090E0E5CF80933B0380913B03089502
:100D300080913B030895EEE8F3E021E005C03E9684
:100D400083E0E23EF80769F080818230C1F781815B
:100D50009281009739F420833E9683E0E23EF807C3
:100D600099F70895019792838183E9CF81309105A6
:100D7000A9F0E0913B032EE0E29FF0011124ED5732
:100D8000FC4F22E02387E0913B032EE0E29FF0013D
:100D90001124ED57FC4F95878487089580913B037C
:100DA0008093820380913B0390E040913B0350E0AD
:100DB00014C09C01220F331FF901EE0FFF1FEE0F2D
:100DC000FF1FEE0FFF1FE21BF30BED57FC4F2385B8
:100DD000213051F04817590701F1019686309105ED
:100DE00041F780E090E0E5CF80933B0380913B03A7
:100DF0008093040460918203809104042EE0629F3A
:100E0000B001112468577C4F2EE0829FC00111244D
:100E100088579C4F0E94DF04089580913B03E8CFE0
:100E2000FC0181E080831782108686E08187089527
:100E30001F93CF93DF93EC01F89488818823D1F03E
:100E4000888511E0180F99851917D0F49F819117A3
:100E5000C9F090913B03FE01E80FF11D9183E091F1
:100E60003B038EE0E89FF0011124ED57FC4F83E037
:100E70008387188718827894DF91CF911F91089506
:100E800010E0E4CF62E370E082E390E00E94F203BE
:100E900087E093E00E94D1028885DBCFCF93DF9378
:100EA000EC01F8948F81FE01E80FF11DE18181E0F2
:100EB00088839EE0E99FF0011124ED57FC4F838762
:100EC0008F819885981751F08F5F9985891708F061
:100ED00080E08F837894DF91CF91089562E370E092
:100EE00087E390E00E94F20386E193E00E94D10242
:100EF0008F81EACFFC0116821782608786E08187A6
:100F000088EC8083818382838383848385830895AF
:100F1000F894FC012085215020870895CF93DF931A
:100F2000EC01F8948E81FE01E80FF11DE0818885C7
:100F30008F5F8887811111C08EE0E89FF001112436
:100F4000ED57FC4F81E083878E819F81981759F080
:100F50008F5F9985891728F48E837894DF91CF91DC
:100F6000089580E0F9CF62E370E081E490E00E94B0
:100F7000F2038E81EDCFCF93DF93EC01F8948E8155
:100F8000FE01E80FF11D908188858F5F88878111B0
:100F900034C02EE0929FF0011124ED57FC4F1386D0
:100FA000E0913B038EE0E89FF0011124ED57FC4FE8
:100FB00081E0838780913B038093820390930404B4
:100FC00090933B038E819F819817E9F08F5F9985FD
:100FD0008917B8F48E8360918203809104049EE0A7
:100FE000699FB001112468577C4F2EE0829FC00199
:100FF000112488579C4F0E94DF047894DF91CF9191
:10100000089580E0E7CF60E070E086E490E00E9421
:10101000F2038CE193E00E94D1028E81D7CF6091E0
:101020003B0380913B0390E040913B0350E014C0B0
:101030009C01220F331FF901EE0FFF1FEE0FFF1F60
:10104000EE0FFF1FE21BF30BED57FC4F2385213002
:1010500051F048175907D1F001968630910541F7B4
:1010600080E090E0E5CF80933B0380913B032EE04E
:10107000629FB001112468577C4F2EE0829FC0010F
:10108000112488579C4F0E94DF04089580913B03F0
:10109000EECF0E94B60522E330E040E050E060EB86
:1010A00070E08AE092E00E94BE0522E330E040E07A
:1010B00050E063EA70E080E192E00E94BE0522E326
:1010C00030E040E050E069E478E086E192E00E94A0
:1010D000BE0522E330E040E050E064E272E08BE1E4
:1010E00092E00E94BE0522E330E040E050E06AE674
:1010F00072E082E392E00E94BE0522E330E040E02D
:1011000050E06CE872E08BE392E00E94BE056AE07A
:1011100070E088E793E00E947A0760E070E086E480
:1011200093E00E947A0761E070E08EE693E00E940F
:101130007A070E9465067894FFCFA1E21A2EAA1BB7
:10114000BB1BFD010DC0AA1FBB1FEE1FFF1FA21777
:10115000B307E407F50720F0A21BB30BE40BF50B74
:10116000661F771F881F991F1A9469F760957095FD
:10117000809590959B01AC01BD01CF010895A29F80
:10118000B001B39FC001A39F700D811D1124911D5B
:10119000B29F700D811D1124911D0895CF93DF938F
:1011A0008230910510F482E090E0E0910704F09124
:1011B000080420E030E0A0E0B0E0309739F1408151
:1011C000518148175907B8F04817590771F48281BF
:1011D0009381109729F013969C938E9312972CC0AD
:1011E000909308048093070427C02115310531F03E
:1011F0004217530718F0A901DB0101C0EF019A0162
:10120000BD01DF010280F381E02DD7CF211531052B
:10121000F9F0281B390B2430310580F48A819B8139
:101220006115710521F0FB019383828304C09093C3
:10123000080480930704FE01329644C0FE01E20FC9
:10124000F31F8193919322503109398328833AC047
:101250002091050430910604232B41F420910602CD
:101260003091070230930604209305042091040274
:10127000309105022115310541F42DB73EB740915B
:10128000080250910902241B350BE0910504F091EE
:101290000604E217F307A0F42E1B3F0B28173907AB
:1012A00078F0AC014E5F5F4F2417350748F04E0FC2
:1012B0005F1F50930604409305048193919302C0ED
:1012C000E0E0F0E0CF01DF91CF910895CF93DF937D
:1012D000009709F487C0FC01329713821282C091F3
:1012E0000704D0910804209781F420813181280FD0
:1012F000391F80910504909106048217930779F5B0
:10130000F0930604E09305046DC0DE0120E030E0B8
:10131000AE17BF0750F412964D915C9113979D0143
:101320004115510509F1DA01F3CFB383A28340815E
:101330005181840F951F8A179B0771F48D919C91A1
:101340001197840F951F02969183808312968D9139
:101350009C911397938382832115310529F4F0938F
:101360000804E09307043EC0D9011396FC93EE9362
:1013700012974D915D91A40FB51FEA17FB0779F401
:1013800080819181840F951F0296D90111969C93BB
:101390008E938281938113969C938E931297E0E0B3
:1013A000F0E08A819B81009719F0FE01EC01F9CFF2
:1013B000CE01029628813981820F931F2091050466
:1013C000309106042817390769F4309729F41092F0
:1013D00008041092070402C013821282D0930604FC
:1013E000C0930504DF91CF910895BB27FB015527DA
:1013F000AA27880F991FAA1FA41710F0A41B839572
:101400005051B9F7A05DAA3308F0A95DA1930097E8
:1014100079F7B111B1931192CB010C944F0C0F934A
:101420001F93CF93DF93CDB7DEB72E970FB6F89407
:10143000DEBF0FBECDBF0E891F8986E08C831A8365
:1014400009838FEF9FE79E838D83AE01465E5F4FDA
:10145000688D798DCE0101960E943E0AEF81F88554
:10146000E00FF11F10822E960FB6F894DEBF0FBE6C
:10147000CDBFDF91CF911F910F9108952F923F9291
:101480004F925F926F927F928F929F92AF92BF9294
:10149000CF92DF92EF92FF920F931F93CF93DF9340
:1014A000CDB7DEB72C970FB6F894DEBF0FBECDBF19
:1014B0007C016B018A01FC0117821682838181FF06
:1014C000BDC1CE0101964C01F7019381F60193FD58
:1014D000859193FF81916F01882309F4ABC1853217
:1014E00039F493FD859193FF81916F01853229F441
:1014F000B70190E00E945F0CE7CF512C312C20E027
:101500002032A0F48B3269F030F4803259F083320B
:1015100069F420612CC08D3239F0803339F42160B8
:1015200026C02260246023C0286021C027FD27C078
:1015300030ED380F3A3078F426FF06C0FAE05F9EAF
:10154000300D1124532E13C08AE0389E300D112423
:10155000332E20620CC08E3221F426FD6BC1206434
:1015600006C08C3611F4206802C0883641F4F601BA
:1015700093FD859193FF81916F018111C1CF982FC8
:101580009F7D9554933028F40C5F1F4FFFE3F98340
:101590000DC0833631F0833771F0833509F05BC0BD
:1015A00022C0F801808189830E5F1F4F4424439439
:1015B000512C540115C03801F2E06F0E711CF80176
:1015C000A080B18026FF03C0652D70E002C06FEFE0
:1015D0007FEFC5012C870E94440C2C0183012C85D0
:1015E0002F77222E17C03801F2E06F0E711CF80120
:1015F000A080B18026FF03C0652D70E002C06FEFB0
:101600007FEFC5012C870E94390C2C012C852068A6
:10161000222E830123FC1BC0832D90E0481659061F
:10162000B0F4B70180E290E00E945F0C3A94F4CFEE
:10163000F50127FC859127FE81915F01B70190E0BC
:101640000E945F0C31103A94F1E04F1A5108411496
:10165000510471F7E5C0843611F0893639F5F80187
:1016600027FF07C060817181828193810C5F1F4FCA
:1016700008C060817181882777FD8095982F0E5F63
:101680001F4F2F76B22E97FF09C0909580957095C9
:1016900061957F4F8F4F9F4F2068B22E2AE030E038
:1016A000A4010E94910CA82EA81844C0853729F4E3
:1016B0002F7EB22E2AE030E025C0F22FF97FBF2E18
:1016C0008F36C1F018F4883579F0B4C0803719F03E
:1016D000883721F0AFC02F2F2061B22EB4FE0DC08D
:1016E0008B2D8460B82E09C024FF0AC09F2F9660FE
:1016F000B92E06C028E030E005C020E130E002C08D
:1017000020E132E0F801B7FE07C06081718182817B
:1017100093810C5F1F4F06C06081718180E090E073
:101720000E5F1F4FA4010E94910CA82EA818FB2D3C
:10173000FF77BF2EB6FE0BC02B2D2E7FA51450F4C5
:10174000B4FE0AC0B2FC08C02B2D2E7E05C07A2C38
:101750002B2D03C07A2C01C0752C24FF0DC0FE0177
:10176000EA0DF11D8081803311F4297E09C022FF2A
:1017700006C07394739404C0822F867809F0739422
:1017800023FD13C020FF06C05A2C731418F4530C09
:101790005718732C731468F4B70180E290E02C871B
:1017A0000E945F0C73942C85F5CF731410F43718D6
:1017B00001C0312C24FF12C0B70180E390E02C87D8
:1017C0000E945F0C2C8522FF17C021FF03C088E513
:1017D00090E002C088E790E0B7010CC0822F8678C5
:1017E00059F021FD02C080E201C08BE227FD8DE2AD
:1017F000B70190E00E945F0CA51438F4B70180E3B4
:1018000090E00E945F0C5A94F7CFAA94F401EA0D7D
:10181000F11D8081B70190E00E945F0CA110F5CF0F
:10182000332009F451CEB70180E290E00E945F0CB2
:101830003A94F6CFF7018681978102C08FEF9FEF30
:101840002C960FB6F894DEBF0FBECDBFDF91CF91BF
:101850001F910F91FF90EF90DF90CF90BF90AF90CE
:101860009F908F907F906F905F904F903F902F90C0
:101870000895FC010590615070400110D8F78095E3
:1018800090958E0F9F1F0895FC016150704001904C
:101890000110D8F7809590958E0F9F1F0895DC0159
:1018A000FC01672F71917723E1F7329704C07C9197
:1018B0006D9370836291AE17BF07C8F308950F93BD
:1018C0001F93CF93DF93182F092FEB018B8181FD9D
:1018D00003C08FEF9FEF20C082FF10C04E815F8159
:1018E0002C813D81421753077CF4E881F9819F01E7
:1018F0002F5F3F4F39832883108306C0E885F98521
:10190000812F1995892B29F72E813F812F5F3F4F1A
:101910003F832E83812F902FDF91CF911F910F91C5
:101920000895FA01AA27283051F1203181F1E89475
:101930006F936E7F6E5F7F4F8F4F9F4FAF4FB1E0C2
:101940003ED0B4E03CD0670F781F891F9A1FA11DBD
:10195000680F791F8A1F911DA11D6A0F711D811DBE
:10196000911DA11D20D009F468943F912AE0269F83
:1019700011243019305D3193DEF6CF010895462FE2
:101980004770405D4193B3E00FD0C9F7F6CF462FC3
:101990004F70405D4A3318F0495D31FD405241932C
:1019A00002D0A9F7EACFB4E0A695979587957795E9
:1019B0006795BA95C9F700976105710508959B0170
:1019C000AC010A2E06945795479537952795BA95F9
:1019D000C9F7620F731F841F951FA01D0895F89407
:0219E000FFCF37
:1019E20064006400000009042000737461747300D1
:1019F200626C696E6B006D61696E00646973706C14
:101A020061795F626F756E6465645F627566666553
:101A1200720070726F647563657200636F6E7375C6
:101A22006D65720053797374656D2054696D653A02
:101A320020004E756D626572206F66207468726553
:101A42006164733A20005468726561642049443AC3
:101A520000546872656164204E616D653A00546895
:101A6200726561642050433A00537461636B205580
:101A7200736167653A00546F74616C2053746163DB
:101A82006B2053697A653A0043757272656E7420F1
:101A9200746F70206F6620537461636B3A005374E5
:101AA20061636B20626173653A00537461636B20FA
:101AB200656E643A0053503A200050726F64756349
:101AC20074696F6E3A2000436F6E73756D65723A7A
:101AD20020004974656D3A200025580054687265EB
:101AE20061644E756D3A004275666665722069736F
:101AF2002066756C6C00656D70747900736F6D652E
:101B02007468696E672077656972642069732068FA
:0A1B1200617070656E696E67000077
:00000001FF
