:100000000C9480000C94A1000C94A1000C94A1000D
:100010000C94A1000C94A1000C94A1000C94A100DC
:100020000C94A1000C94A1000C94A1000C94A100CC
:100030000C94A1000C94A1000C94A1000C94A100BC
:100040000C94A1000C945B030C94A1000C94A100EF
:100050000C94A1000C94AB040C94A1000C94A1008E
:100060000C94A1000C94A1000C94A1000C94A1008C
:100070000C94A1000C94A1000C94A1000C94A1007C
:100080000C94A1000C94A1000C94A1000C94A1006C
:100090000C94A1000C94A1000C94A1000C94A1005C
:1000A0000C94A1000C94A1000C94A1000C94A1004C
:1000B0000C94A1000C94A1000C94A1000C94A1003C
:1000C0000C94A1000C94A1000C94A1000C94A1002C
:1000D0000C94A1000C94A1000C94A1000C94A1001C
:1000E0000C94A1000C9481060C94C0000C943C016B
:1000F0000C94ED000C9457030C9429010C94A3006C
:1001000011241FBECFEFD1E2DEBFCDBF00E00CBF98
:1001100013E0A0E0B2E0EAEAF6E100E00BBF02C0C3
:1001200007900D92AE31B107D9F723E0AEE1B3E00D
:1001300001C01D92A33CB207E1F70E9481060C9416
:10014000530B0C94000080E090E007C0EFE3FCE963
:100150003197F1F700C0000001968A309105B4F3A1
:100160000E9441038AE090E0EFE3FCE93197F1F768
:1001700000C0000001970097B9F70E944C03E3CF3D
:1001800089E592E00E9475018091460390914703B2
:100190000E94A30188E692E00E94750180914403C9
:1001A000909145030E94A3018FE692E00E947501A1
:1001B00080915403909155030E94A3018EE792E031
:1001C0000E94750180915203909153030E94A301F4
:1001D00087E592E00E947501D3CFCF93DF9385E846
:1001E00092E00E94750180911E038823A1F0C0E077
:1001F000D0E084EB92E00E947501CE010E94A30141
:1002000087EA92E00E947501219680911E0390E09A
:10021000C817D90774F38AE992E00E9475018091AA
:100220000202909103020E94A30187EA92E00E94D9
:10023000750189EA92E00E94750180910002909117
:1002400001020E94A30187EA92E0DF91CF910C9412
:1002500075018BEB92E00E947501809102029091F2
:1002600003020E94190580911E038F5F8B3008F0F6
:100270008AE080931E0308958AEC92E00E94750143
:1002800080910002909101020E94190580911E0345
:10029000815080931E03089582E08093C0001092E5
:1002A000C50080E18093C400E1ECF0E080818861CA
:1002B000808308958091C000881F8827881F089533
:1002C0008091C00087FD02C08FEF08958091C60025
:1002D00008959091C10095FDFCCF9091C00095FFCD
:1002E000F8CF8093C60081E00895FC01208122238D
:1002F00071F031968091C10085FDFCCF8091C000E6
:1003000085FFF8CF2093C60021912111F3CF80E023
:1003100090E00895CF93DF9300D01F921F92CDB746
:10032000DEB74AE0BE016F5F7F4F0E945908CE01E1
:1003300001960E9475010F900F900F900F900F90F3
:10034000DF91CF9108958F929F92AF92BF92CF92FB
:10035000DF92EF92FF920F931F93CF93DF93CDB76E
:10036000DEB72A970FB6F894DEBF0FBECDBF61157A
:10037000710581059105A1F19E012F5F3F4F690134
:10038000790100E010E02AE0822E912CA12CB12C02
:10039000A50194010E941007605DF70161937F0140
:1003A000B901CA010F5F1F4F6115710581059105E4
:1003B00079F7F8013196EC0DFD1D92918091C10005
:1003C00085FDFCCF8091C00085FFF8CF9093C600DB
:1003D000EC15FD0591F710C08091C00085FD09C0A6
:1003E0008091C10085FFF8CF8091C10085FDF8CFD5
:1003F000F3CF80E38093C6002A960FB6F894DEBF51
:100400000FBECDBFDF91CF911F910F91FF90EF9065
:10041000DF90CF90BF90AF909F908F9008950F93F3
:100420001F93CF93DF93CDB7DEB72A970FB6F8941B
:10043000DEBF0FBECDBF9F938F9389ED92E09F9358
:100440008F938E010F5F1F4F1F930F930E947308AE
:10045000C8010E9475010F900F900F900F900F90A0
:100460000F902A960FB6F894DEBF0FBECDBFDF9176
:10047000CF911F910F910895CF93DF93CDB7DEB742
:100480002A970FB6F894DEBF0FBECDBF6115710578
:100490008105910521F1AE014F5F5F4FDA01E0E088
:1004A000F0E010C0205D2C9334E096958795779509
:1004B00067953A95D1F731961196611571058105C9
:1004C000910511F19B012F7033272A30310554F328
:1004D000295C2C93E9CF8091C00085FD09C08091F3
:1004E000C10085FFF8CF8091C10085FDF8CFF3CF23
:1004F00080E38093C6002A960FB6F894DEBF0FBE45
:10050000CDBFDF91CF9108953196E40FF51F929101
:100510008091C10085FDFCCF8091C00085FFF8CFA0
:100520009093C600E417F50791F7E5CFCF93DF93DB
:100530001F92CDB7DEB79091C10095FDFCCF909191
:10054000C00095FFF8CF9BE19093C6009091C10049
:1005500095FDFCCF9091C00095FFF8CF9BE590935F
:10056000C60090E069830E948A0169819091C10070
:1005700095FDFCCF9091C00095FFF8CF8BE3809361
:10058000C600862F90E00E948A018091C10085FDFF
:10059000FCCF8091C00085FFF8CF88E48093C6002F
:1005A0000F90DF91CF9108958091C10085FDFCCF20
:1005B0008091C00085FFF8CF8BE18093C6008091C9
:1005C000C10085FDFCCF8091C00085FFF8CF8BE591
:1005D0008093C6008091C10085FDFCCF8091C00052
:1005E00085FFF8CF88E48093C60008959091C100FC
:1005F00095FDFCCF9091C00095FFF8CF9BE19093C3
:10060000C6009091C10095FDFCCF9091C00095FF70
:10061000F8CF9BE59093C60090E00E948A018091FC
:10062000C10085FDFCCF8091C00085FFF8CF8DE62D
:100630008093C60008958091C10085FDFCCF809114
:10064000C00085FFF8CF8BE18093C6008091C10088
:1006500085FDFCCF8091C00085FFF8CF8BE58093AE
:10066000C60082E090E00E948A018091C10085FD71
:10067000FCCF8091C00085FFF8CF8AE48093C6004C
:100680000895E4E2F0E0208120682083E5E2F0E0D4
:100690002081206820830895E4E2F0E02081206832
:1006A0002083E5E2F0E020812F772083089578947D
:1006B000C201F10109941F920F920FB60F921124FB
:1006C0000F900FBE0F901F901895EEE6F0E080811E
:1006D0008260808384B5826084BD85B5856085BD78
:1006E0008CE987BD89E09DE3909389008093880021
:1006F000EFE6F0E0808182608083E1E8F0E08081D5
:100700008D60808308952F923F924F925F926F92F7
:100710007F928F929F92AF92BF92CF92DF92EF9291
:10072000FF920F931F93F0E0EDE5A080F0E0EEE57F
:10073000B080FB01A192B082FC01C190D080F0E0BA
:10074000EDE5C192D0821F910F91FF90EF90DF9065
:10075000CF90BF90AF909F908F907F906F905F9061
:100760004F903F902F9008950C944C01CF92DF92C0
:10077000FF920F931F93CF93DF9300D01F92CDB7BB
:10078000DEB7690122E3C20ED11C07E513E0E09158
:100790001F03AEE0EA9FF0011124E15CFC4F92835D
:1007A0008183F0901F03C6014B835C8369837A8346
:1007B0000E943207BEE0FB9EF0011124E15CFC4F79
:1007C00090878783E0911F03A0911F032EE0E29F93
:1007D000F0011124E15CFC4F8EE0A89FD0011124B0
:1007E000A15CBC4F17968D919C91189701978C0D29
:1007F0009D1D96838583E0911F03A0911F039EE0BA
:10080000E99FF0011124E15CFC4F2EE0A29FD00192
:100810001124A15CBC4F15968D919C91169744971D
:1008200096838583E0911F038EE0E89FF0011124F9
:10083000E15CFC4F0580F681E02D7A817787698144
:10084000608B5C8155874B814687038B128B118AA5
:10085000E0911F0380911F039EE0E99FF0011124A6
:10086000E15CFC4F8083E0911F03AEE0EA9FF00162
:100870001124E15CFC4FD482C38280911F038F5FFF
:1008800080931F038CED92E00E94750180911F03FD
:1008900090E00F900F900F900F90DF91CF911F91EC
:1008A0000F91FF90DF90CF900C940F020E94650390
:1008B000789460E673E084E493E00E9483030895F3
:1008C00080911F0390E020911F03019686309105CF
:1008D000A9F0282F880F991FFC01EE0FFF1FEE0FC4
:1008E000FF1FEE0FFF1FE81BF90BE15CFC4F81E0DF
:1008F000838720931F0380911F03089520E080E0E9
:1009000090E0E8CFEAE4F3E021E005C03E9683E022
:10091000EE39F80769F080818230C1F781819281D8
:10092000892B39F420833E9683E0EE39F80799F756
:100930000895A091BE038EE0A89FD0011124A15C70
:10094000BC4F1C968D919C911D9701971D969C9371
:100950008E931C97DBCF1F920F920FB60F9211242C
:100960000BB60F922F933F934F935F936F937F93A9
:100970008F939F93AF93BF93CF93DF93EF93FF93A7
:1009800080911F03863009F451C080911F0380932A
:100990003E0380911F0390E020911F030196863053
:1009A000910509F43FC0282F880F991FFC01EE0F15
:1009B000FF1FEE0FFF1FEE0FFF1FE81BF90BE15C9F
:1009C000FC4F81E0838720931F0380911F03809356
:1009D000BE030E94820460913E038091BE032EE01C
:1009E000629FB00111246C5B7C4F2EE0829FC0019E
:1009F00011248C5B9C4F0E948303FF91EF91DF9148
:100A0000CF91BF91AF919F918F917F916F915F91A6
:100A10004F913F912F910F900BBE0F900FBE0F90F3
:100A20001F90189520E080E090E0BECF10921F0349
:100A3000ACCF81309105A9F0E0911F032EE0E29F39
:100A4000F0011124E15CFC4F22E02387E0911F03B9
:100A50002EE0E29FF0011124E15CFC4F9587848732
:100A6000089580911F0380933E0380911F0390E0BF
:100A700020911F0301968630910549F1282F880F98
:100A8000991FFC01EE0FFF1FEE0FFF1FEE0FFF1F60
:100A9000E81BF90BE15CFC4F81E0838720931F0387
:100AA00080911F038093BE0360913E038091BE033B
:100AB0002EE0629FB00111246C5B7C4F2EE0829F80
:100AC000C00111248C5B9C4F0E948303089520E099
:100AD00080E090E0D4CFFC0181E080831782108613
:100AE00086E0818708951F93CF93DF93EC01F894FC
:100AF00088818823D1F0888511E0180F998519170E
:100B0000D0F49F819117C9F090911F03FE01E80F67
:100B1000F11D9183E0911F038EE0E89FF001112405
:100B2000E15CFC4F83E08387188718827894DF911B
:100B3000CF911F91089510E0E4CF8CEE92E00E94D7
:100B400075018885E1CFCF93DF93EC01F894888518
:100B5000FE01E80FF11DE18181E088839EE0E99FBD
:100B6000F0011124E15CFC4F83878F8198859817F1
:100B700051F08F5F9985891708F080E08F83789412
:100B8000DF91CF9108958BEF92E00E9475018F81E4
:100B9000F0CFFC0116821782608786E08187089576
:100BA000F894FC012085215020870895CF93DF938E
:100BB000EC01F8948F81FE01E80FF11DE08188853A
:100BC0008F5F8887811112C08EE0E89FF0011124A9
:100BD000E15CFC4F81E083878E819F81981759F0FB
:100BE0008F5F9985891728F48E837894DF91CF9150
:100BF000089580E0F9CF8BEF92E00E9475018E811D
:100C0000EFCFCF93DF93EC01F8948F81FE01E80FD3
:100C1000F11D908188858F5F8887811135C02EE016
:100C2000929FF0011124E15CFC4F1386E0911F03B9
:100C30008EE0E89FF0011124E15CFC4F81E08387A6
:100C400080911F0380933E039093BE0390931F03F4
:100C50008E819F819817E9F08F5F99858917B8F485
:100C60008E83789460913E038091BE039EE0699FDD
:100C7000B00111246C5B7C4F2EE0829FC0011124D7
:100C80008C5B9C4F0E948303DF91CF91089580E09D
:100C9000E7CF81E093E00E9475018E81DDCF609106
:100CA0001F0380911F0390E020911F03019686305F
:100CB000910519F1282F880F991FFC01EE0FFF1FD6
:100CC000EE0FFF1FEE0FFF1FE81BF90BE15CFC4F5F
:100CD00081E0838720931F0380911F032EE0629F92
:100CE000B00111246C5B7C4F2EE0829FC001112467
:100CF0008C5B9C4F0E948303089520E080E090E08D
:100D0000DACF0E94B4038AE092E00E94750122E3E8
:100D100030E040E050E060EC70E089E192E00E9459
:100D2000B60322E330E040E050E063EA70E08FE198
:100D300092E00E94B60322E330E040E050E061E838
:100D400076E084E192E00E94B60322E330E040E0E6
:100D500050E06DEE70E085E292E00E94B60322E37F
:100D600030E040E050E069E271E08CE392E00E9404
:100D7000B60322E330E040E050E06CE371E085E44C
:100D800092E00E94B6030091340310913503209144
:100D90003603309137034091380350913903609105
:100DA0003A0370913B0380913C0390913D030E9474
:100DB0006B0500912A0310912B0320912C03309195
:100DC0002D0340912E0350912F03609130037091B9
:100DD000310380913203909133030E946B0584E0CC
:100DE000E82EF12C00912003109121032091220381
:100DF00030912303409124035091250360912603F1
:100E00007091270380912803909129030E94C905BE
:100E10000E94560478948EE492E00E947501FBCF04
:100E2000A1E21A2EAA1BBB1BFD010DC0AA1FBB1FEE
:100E3000EE1FFF1FA217B307E407F50720F0A21B60
:100E4000B30BE40BF50B661F771F881F991F1A94CD
:100E500069F760957095809590959B01AC01BD01F7
:100E6000CF010895CF93DF938230910510F482E093
:100E700090E0E091C103F091C20320E030E0A0E0F7
:100E8000B0E0309739F14081518148175907B8F0E7
:100E90004817590771F482819381109729F01396AE
:100EA0009C938E9312972CC09093C2038093C1039E
:100EB00027C02115310531F04217530718F0A90159
:100EC000DB0101C0EF019A01BD01DF010280F38166
:100ED000E02DD7CF21153105F9F0281B390B24302F
:100EE000310580F48A819B816115710521F0FB0138
:100EF0009383828304C09093C2038093C103FE0155
:100F0000329644C0FE01E20FF31F81939193225069
:100F10003109398328833AC02091BF033091C0033F
:100F2000232B41F420910602309107023093C00335
:100F30002093BF0320910402309105022115310551
:100F400041F42DB73EB74091080250910902241B8D
:100F5000350BE091BF03F091C003E217F307A0F453
:100F60002E1B3F0B2817390778F0AC014E5F5F4FFF
:100F70002417350748F04E0F5F1F5093C00340936E
:100F8000BF038193919302C0E0E0F0E0CF01DF91D5
:100F9000CF910895CF93DF93009709F487C0FC01A8
:100FA000329713821282C091C103D091C20320975D
:100FB00081F420813181280F391F8091BF039091E6
:100FC000C0038217930779F5F093C003E093BF0342
:100FD0006DC0DE0120E030E0AE17BF0750F412967E
:100FE0004D915C9113979D014115510509F1DA016D
:100FF000F3CFB383A28340815181840F951F8A1759
:101000009B0771F48D919C911197840F951F029607
:101010009183808312968D919C9113979383828301
:101020002115310529F4F093C203E093C1033EC0BA
:10103000D9011396FC93EE9312974D915D91A40FF5
:10104000B51FEA17FB0779F480819181840F951F02
:101050000296D90111969C938E9382819381139667
:101060009C938E931297E0E0F0E08A819B81009739
:1010700019F0FE01EC01F9CFCE01029628813981E9
:10108000820F931F2091BF033091C00328173907A7
:1010900069F4309729F41092C2031092C10302C080
:1010A00013821282D093C003C093BF03DF91CF910C
:1010B0000895BB27FB015527AA27880F991FAA1F50
:1010C000A41710F0A41B83955051B9F7A05DAA3363
:1010D00008F0A95DA193009779F7B111B19311922E
:1010E000CB010C94B30A0F931F93CF93DF93CDB72B
:1010F000DEB72E970FB6F894DEBF0FBECDBF0E89B8
:101100001F8986E08C831A8309838FEF9FE79E8374
:101110008D83AE01465E5F4F688D798DCE0101965D
:101120000E94A208EF81F885E00FF11F10822E9631
:101130000FB6F894DEBF0FBECDBFDF91CF911F91E8
:101140000F9108952F923F924F925F926F927F92EC
:101150008F929F92AF92BF92CF92DF92EF92FF92C7
:101160000F931F93CF93DF93CDB7DEB72C970FB6B6
:10117000F894DEBF0FBECDBF7C016B018A01FC017C
:1011800017821682838181FFBDC1CE0101964C0179
:10119000F7019381F60193FD859193FF81916F0192
:1011A000882309F4ABC1853239F493FD859193FF0F
:1011B00081916F01853229F4B70190E00E94C30A42
:1011C000E7CF512C312C20E02032A0F48B3269F093
:1011D00030F4803259F0833269F420612CC08D32B2
:1011E00039F0803339F4216026C02260246023C0A6
:1011F000286021C027FD27C030ED380F3A3078F441
:1012000026FF06C0FAE05F9E300D1124532E13C056
:101210008AE0389E300D1124332E20620CC08E32AD
:1012200021F426FD6BC1206406C08C3611F42068C1
:1012300002C0883641F4F60193FD859193FF8191B8
:101240006F018111C1CF982F9F7D9554933028F461
:101250000C5F1F4FFFE3F9830DC0833631F08337F6
:1012600071F0833509F05BC022C0F8018081898369
:101270000E5F1F4F44244394512C540115C0380174
:10128000F2E06F0E711CF801A080B18026FF03C050
:10129000652D70E002C06FEF7FEFC5012C870E94C3
:1012A000A80A2C0183012C852F77222E17C0380124
:1012B000F2E06F0E711CF801A080B18026FF03C020
:1012C000652D70E002C06FEF7FEFC5012C870E9493
:1012D0009D0A2C012C852068222E830123FC1BC033
:1012E000832D90E048165906B0F4B70180E290E0F3
:1012F0000E94C30A3A94F4CFF50127FC859127FE9A
:1013000081915F01B70190E00E94C30A31103A94C5
:10131000F1E04F1A51084114510471F7E5C08436C9
:1013200011F0893639F5F80127FF07C06081718116
:10133000828193810C5F1F4F08C060817181882773
:1013400077FD8095982F0E5F1F4F2F76B22E97FF57
:1013500009C090958095709561957F4F8F4F9F4FF5
:101360002068B22E2AE030E0A4010E94F50AA82EDF
:10137000A81844C0853729F42F7EB22E2AE030E029
:1013800025C0F22FF97FBF2E8F36C1F018F48835B3
:1013900079F0B4C0803719F0883721F0AFC02F2F13
:1013A0002061B22EB4FE0DC08B2D8460B82E09C012
:1013B00024FF0AC09F2F9660B92E06C028E030E0B7
:1013C00005C020E130E002C020E132E0F801B7FEC4
:1013D00007C060817181828193810C5F1F4F06C0BD
:1013E0006081718180E090E00E5F1F4FA4010E9438
:1013F000F50AA82EA818FB2DFF77BF2EB6FE0BC04E
:101400002B2D2E7FA51450F4B4FE0AC0B2FC08C0E8
:101410002B2D2E7E05C07A2C2B2D03C07A2C01C0DB
:10142000752C24FF0DC0FE01EA0DF11D8081803373
:1014300011F4297E09C022FF06C07394739404C07E
:10144000822F867809F0739423FD13C020FF06C015
:101450005A2C731418F4530C5718732C731468F423
:10146000B70180E290E02C870E94C30A73942C8518
:10147000F5CF731410F4371801C0312C24FF12C0BB
:10148000B70180E390E02C870E94C30A2C8522FFDD
:1014900017C021FF03C088E590E002C088E790E014
:1014A000B7010CC0822F867859F021FD02C080E27E
:1014B00001C08BE227FD8DE2B70190E00E94C30AD4
:1014C000A51438F4B70180E390E00E94C30A5A944F
:1014D000F7CFAA94F401EA0DF11D8081B70190E0E5
:1014E0000E94C30AA110F5CF332009F451CEB701F1
:1014F00080E290E00E94C30A3A94F6CFF701868119
:10150000978102C08FEF9FEF2C960FB6F894DEBF45
:101510000FBECDBFDF91CF911F910F91FF90EF9044
:10152000DF90CF90BF90AF909F908F907F906F9003
:101530005F904F903F902F900895FC01059061506F
:1015400070400110D8F7809590958E0F9F1F0895D9
:10155000FC016150704001900110D8F78095909582
:101560008E0F9F1F0895DC01FC01672F7191772377
:10157000E1F7329704C07C916D9370836291AE174E
:10158000BF07C8F308950F931F93CF93DF93182FCE
:10159000092FEB018B8181FD03C08FEF9FEF20C0EE
:1015A00082FF10C04E815F812C813D81421753071D
:1015B0007CF4E881F9819F012F5F3F4F39832883B5
:1015C000108306C0E885F985812F1995892B29F7A5
:1015D0002E813F812F5F3F4F3F832E83812F902F9E
:1015E000DF91CF911F910F910895FA01AA2728301A
:1015F00051F1203181F1E8946F936E7F6E5F7F4FE0
:101600008F4F9F4FAF4FB1E03ED0B4E03CD0670F5B
:10161000781F891F9A1FA11D680F791F8A1F911DAE
:10162000A11D6A0F711D811D911DA11D20D009F4FE
:1016300068943F912AE0269F11243019305D319340
:10164000DEF6CF010895462F4770405D4193B3E029
:101650000FD0C9F7F6CF462F4F70405D4A3318F0D0
:10166000495D31FD4052419302D0A9F7EACFB4E081
:10167000A6959795879577956795BA95C9F7009739
:101680006105710508959B01AC010A2E06945795DA
:10169000479537952795BA95C9F7620F731F841F31
:0A16A000951FA01D0895F894FFCFD8
:1016AA00640064000000C30320005765206172656E
:1016BA0020696E206D61696E0073746174730062D3
:1016CA006C696E6B00646973706C61795F626F75C7
:1016DA006E6465645F6275666665720070726F64D7
:1016EA007563657200636F6E73756D657200492765
:1016FA006D206D61696E2E2000537461636B2062E8
:10170A0061736520303A2000535020303A2000534C
:10171A007461636B206261736520313A2000535013
:10172A0020313A200049276D20626F756E64656426
:10173A00206275666665722E200050726F6475634A
:10174A0074696F6E3A20000A00436F6E73756D6597
:10175A00723A20004974656D3A200049276D20705D
:10176A00726F64756365722E200049276D20636F5E
:10177A006E73756D65722E20002558005468726567
:10178A0061642063726561746564210042756666EE
:10179A0065722069732066756C6C00656D7074796A
:1017AA0000736F6D657468696E6720776569726426
:0E17BA002069732068617070656E696E67004B
:00000001FF
